:100000000C9458000C9480000C9480000C94800098
:100010000C9480000C9480000C9480000C94800060
:100020000C9480000C9480000C9480000C94800050
:100030000C9480000C9480000C9480000C94800040
:100040000C9441020C9480000C940F020C94E90172
:100050000C9480000C9480000C9480000C94800020
:100060000C9480000C948000000000002500280003
:100070002B00040404040404040402020202020229
:10008000030303030303010204081020408001025C
:1000900004081020010204081020000000080002DB
:1000A00001000003040700000000000000008B02B4
:1000B00011241FBECFEFD8E0DEBFCDBF22E0A4E207
:1000C000B1E001C01D92A231B207E1F711E0A0E05A
:1000D000B1E0E4E8F7E002C005900D92A432B10768
:1000E000D9F710E0C8E5D0E004C02197FE010E94D6
:1000F000B503C735D107C9F70E94CA020C94C003E3
:100100000C940000EDE2F1E0A089B18982E08C93CB
:10011000A485B5851C92A685B78580E18C93108E49
:10012000A489B58986E08C93A289B3898C9180617A
:100130008C93A289B3898C9188608C93A289B389AE
:100140008C9180688C930288F389E02D80818F7D6B
:1001500080830895CF92DF92EF92FF920F931F93C7
:100160002FB7F894C0902901D0902A01E0902B017C
:10017000F0902C012FBFDC01CB018C0D9D1DAE1D1D
:10018000BF1D4FB7F8940091290110912A012091C9
:100190002B0130912C014FBF0C151D052E053F057D
:1001A00028F080179107A207B30758F71F910F9106
:1001B000FF90EF90DF90CF900895CF92DF92EF9273
:1001C000FF920F931F93CF93DF936C017A018B0102
:1001D000C0E0D0E0CE15DF0589F0D8016D918D012A
:1001E000D601ED91FC910190F081E02DC6010995B9
:1001F000892B11F47E0102C02196ECCFC701DF915B
:10020000CF911F910F91FF90EF90DF90CF900895C5
:10021000089580E090E00895FC01538D448D252FD2
:1002200030E0842F90E0821B930B541710F0CF9690
:10023000089501970895FC01918D828D981761F0C2
:10024000828DDF01A80FB11D5D968C91928D9F5F0D
:100250009F73928F90E008958FEF9FEF0895FC01B8
:10026000918D828D981731F0828DE80FF11D858D6B
:1002700090E008958FEF9FEF0895FC01918D228DFE
:10028000892F90E0805C9F4F821B91098F73992783
:1002900008958DE291E00E943D0121E0892B09F44F
:1002A00020E0822F0895FC01848DDF01A80FB11D8D
:1002B000A35ABF4F2C91848D90E001968F7399279C
:1002C000848FA689B7892C93A089B1898C91806489
:1002D0008C93938D848D981306C00288F389E02D4A
:1002E00080818F7D80830895EF92FF920F931F93FB
:1002F000CF93DF93EC0181E0888F9B8D8C8D9813D9
:1003000005C0E889F989808185FD24C0F62E0B8D12
:1003100010E00F5F1F4F0F731127E02E8C8DE81236
:100320000CC00FB607FCFACFE889F989808185FFF8
:10033000F5CFCE010E945301F1CF8B8DFE01E80F66
:10034000F11DE35AFF4FF0820B8FEA89FB89808110
:10035000806207C0EE89FF896083E889F98980811E
:100360008064808381E090E0DF91CF911F910F91B5
:10037000FF90EF900895CF93DF93EC01888D882351
:10038000C9F0EA89FB89808185FD05C0A889B98902
:100390008C9186FD0FC00FB607FCF5CF808185FFDD
:1003A000F2CFA889B9898C9185FFEDCFCE010E944B
:1003B0005301E7CFDF91CF91089580E090E0892B42
:1003C00029F00E94490181110C94000008950E94B7
:1003D000BB031F920F920FB60F9211242F933F93DE
:1003E0004F935F936F937F938F939F93AF93BF933D
:1003F000EF93FF938DE291E00E945301FF91EF9103
:10040000BF91AF919F918F917F916F915F914F912C
:100410003F912F910F900FBE0F901F9018951F9234
:100420000F920FB60F9211242F938F939F93EF93F8
:10043000FF93E0913D01F0913E018081E091430105
:10044000F091440182FD12C09081809146018F5F3E
:100450008F7320914701821751F0E0914601F0E03F
:10046000E35DFE4F958F8093460101C08081FF912F
:10047000EF919F918F912F910F900FBE0F901F9032
:1004800018951F920F920FB60F9211242F933F933E
:100490008F939F93AF93BF938091290190912A01ED
:1004A000A0912B01B0912C013091280123E0230F62
:1004B0002D3720F40196A11DB11D05C026E8230F9C
:1004C0000296A11DB11D20932801809329019093CC
:1004D0002A01A0932B01B0932C01809124019091CB
:1004E0002501A0912601B09127010196A11DB11D02
:1004F0008093240190932501A0932601B0932701B6
:10050000BF91AF919F918F913F912F910F900FBE0F
:100510000F901F901895EDE2F1E01382128288EEA1
:1005200093E0A0E0B0E084839583A683B78384E062
:1005300091E09183808385EC90E09587848784ECBB
:1005400090E09787868780EC90E0918B808B81ECA0
:1005500090E0938B828B82EC90E0958B848B86EC81
:1005600090E0978B868B118E128E138E148EEAEC90
:10057000F1E0168217821086118612861386148681
:10058000158616861786108A118A128A138A148A8B
:10059000158A0895789484B5826084BD84B581609D
:1005A00084BD85B5826085BD85B5816085BD80913E
:1005B0006E00816080936E001092810080918100B6
:1005C00082608093810080918100816080938100AE
:1005D000809180008160809380008091B100846070
:1005E0008093B1008091B00081608093B0008091D1
:1005F0007A00846080937A0080917A008260809390
:100600007A0080917A00816080937A0080917A00EC
:10061000806880937A001092C10010920E021092AE
:100620000F0210921002109211021092CC0110923F
:10063000CD011092CE011092CF0168EB7BE080E0FB
:1006400090E00E94AA008DE291E090930D028093C9
:100650000C020E9482002FB7F8948091290190919A
:100660002A01A0912B01B0912C012FBF8093CC01C6
:100670009093CD01A093CE01B093CF0180910C0255
:1006800090910D02DC01ED91FC910280F381E02D4F
:1006900041E150E062E171E009956AE070E080E0DC
:1006A00090E00E94AA0081E08093E0010E94820015
:1006B000C0E0D0E060E0CE010E94A7032196C11502
:1006C000B4E0DB07B9F7E7EAF0E08491E3E9F0E0B2
:1006D0009491EFE7F0E0E491EE23B1F1882339F152
:1006E000833091F038F48130A9F0823001F584B57F
:1006F0008F7D12C0873091F08830A1F08430B9F43A
:10070000809180008F7D03C0809180008F778093DF
:1007100080000DC084B58F7784BD09C08091B00082
:100720008F7703C08091B0008F7D8093B000F0E0A0
:10073000EE0FFF1FE859FF4FA591B4918FB7F894C2
:10074000EC919E2B9C938FBF0E94DD01FDCF262F45
:10075000F999FECF1FBA92BD81BD20BD0FB6F894A6
:10076000FA9AF99A0FBE01960895EE0FFF1F0590B1
:10077000F491E02D099481E090E0F8940C94C0038A
:04078000F894FFCF1B
:10078400000000007401DD000C01BB013D011B01F0
:100794002F01564D4450565F317C315F564D4450C5
:0407A400560D0A00E4
:00000001FF
