:100000000C9482050C94AA050C94AA050C94AA05DC
:100010000C94AA050C94AA050C94AA050C94AA05A4
:100020000C94AA050C94AA050C94AA050C94AA0594
:100030000C94AA050C94AA050C94AA050C94AA0584
:100040000C94D7170C94AA050C941F170C94F9164E
:100050000C94AA050C94AA050C94AA050C94AA0564
:100060000C941C0C0C94AA05DB40A4A62EAFDA025B
:1000700081DA1281DA02818F2000A1C8D300408D7D
:10008000AED580A800006000000000000000000065
:100090000000000000E00000000000000000000080
:1000A00000000001E000000000000000000000006F
:1000B000000001F00000000000000000000000004F
:1000C0000003F0000000000000000000000000003D
:1000D00007F0000000000000000000000000000722
:1000E000F8000000000000000000000000000FF811
:1000F00000000003C0007E000001E0007F0FF80058
:10010000000003C000FE000001E000FFEFF8000067
:100110000003C000FE000001E000FFFFF800000047
:1001200003C000F00000000F007FFE7FC00000034E
:10013000C000F00000000F003FFE7FF83FF1FBCF52
:10014000FCFEF3BC3DEFE01FFE7FFF7FFBFFDFFE09
:10015000FEFFBC3DEFE01FC6FFFF7FFBFFDFFEFEA3
:10016000FFBC3DEFE00FE3C7FE787BC3DE1EF0FF70
:10017000BC3DEF0007FF87FC787BC3DE1EF0F83C38
:100180003DEF0001FFFFF0007BC3C01EF0F03C3DDF
:10019000EF0001F37FE03FFBC3CFFEF0F03C3DEF0B
:1001A0000003E33F807FFBC3DFFEF0F03C3DEF0048
:1001B00007E73C00787BC3DE1EF0F03C3DEF000714
:1001C000FFBE00787BC3DE1EF0F03C3DEF0007FF72
:1001D000FE00787BC3DE1EF0F03C3DEF000FFFFE1B
:1001E000007FFBFFDFFEF0F03FFDEFE00FFFFF00C1
:1001F0007FFBFFDFFEF0F03FFDEFE00FF9FF003E79
:1002000079F9CF9EF0F01F3DE7E01FF1FF000000FD
:100210000000000000000000001F80FF007FFFFFC3
:10022000FFFFFFFFFFFFFFE01C007F007FFFFFFFDE
:10023000FEB46D888D18E000001F007FFFFFFFFEF9
:1002400095AD7DB577E000000F007FFFFFFFFEA5B5
:10025000AD9D8D19E0000006007FFFFFFFFEB5ADEC
:10026000EDB57EE00000000000018000000000000D
:1002700000000000038000000000000000000007F4
:10028000C000000000000000000007C000000000E7
:1002900000000000000FC00000000000000000008F
:1002A0001FE00000000000000000001FE000000050
:1002B0000000000000003FE000000000000000001F
:1002C000003FF00000000000000000007FF0000090
:1002D00000000000001FF87FF00000000000000098
:1002E0003FFE7FF0000000000000003FFF7FF000B5
:1002F0000000000000001FFFFBE000000000000005
:10030000000FFFF9FFC00000000000000FFFF9FF21
:10031000F800000000000007FFF1FFFF00000000F0
:10032000000003FC73FFFF80000000000001FE3F9F
:10033000FFFF80000000000000FF1E0FFF00000014
:10034000000000007FFE1FFC000000000000003FD6
:10035000FFFFF8000000000000000FDFFFE00000DA
:1003600000000000001F19FFC00000000000000096
:100370003F3CFF00000000000000007E7CF8000011
:100380000000000000007FFE7C0000000000000074
:1003900000FFFFFC0000000000000000FFFFFE0067
:1003A00000000000000000FFFFFE00000000000051
:1003B0000001FFEFFE0000000000000001FFCFFE83
:1003C0000000000000000003FF07FE000000000026
:1003D000000003FC07FE0000000000000003F00323
:1003E000FE00000000000000018000FE0000000090
:1003F0000000000000007E0000000000000000007F
:10040000003E000000000000000000000C000000A2
:10041000000000078000FC000003C000000007800F
:1004200001FC000003C0000000078001FC00000385
:10043000C0000000078001E00000001E000000076F
:100440008001E00000001E007FE3F79FF9FDE778E0
:100450007BDFC0FFF7FFBFFDFDFF787BDFC0FFF74D
:10046000FFBFFDFDFF787BDFC0F0F787BC3DE1FFFC
:10047000787BDE00F0F787BC3DE1F0787BDE0000A2
:10048000F787803DE1E0787BDE007FF7879FFDE125
:10049000E0787BDE00FFF787BFFDE1E0787BDE00E0
:1004A000F0F787BC3DE1E0787BDE00F0F787BC3DEC
:1004B000E1E0787BDE00F0F787BC3DE1E0787BDEB1
:1004C00000FFF7FFBFFDE1E07FFBDFC0FFF7FFBFED
:1004D000FDE1E07FFBDFC07CF3F39F3DE1E03E7B8D
:1004E000CFC00000000000000000000000FFFFFF80
:1004F000FFFFFFFFFFFFFFC0FFFFFFFFFD68DB11F6
:100500001A31C0FFFFFFFFFD2B5AFB6AEFC0FFFF50
:10051000FFFFFD4B5B3B1A33C0FFFFFFFFFD6B5B33
:10052000DB6AFDC030780048656C6C6F2C20776FFB
:10053000726C64210000FF2F260000FF2F270001AE
:100540002F2900A300012F2A00A3007363726F6C90
:100550006C002064793A200020793A2000783A2013
:100560000000C001C001C003E0F3E0FEF87EFF33ED
:100570009F1FFC0D701BA03FE03FF07CF0707000EF
:10058000305353443133303620616C6C6F63617487
:10059000696F6E206661696C656400000000000090
:1005A0003E5B4F5B3E3E6B4F6B3E1C3E7C3E1C18E1
:1005B0003C7E3C181C577D571C1C5E7F5E1C00183F
:1005C0003C1800FFE7C3E7FF0018241800FFE7DB33
:1005D000E7FF30483A060E2629792926407F05058F
:1005E00007407F05253F5A3CE73C5A7F3E1C1C08CC
:1005F000081C1C3E7F14227F22145F5F005F5F0691
:10060000097F017F006689956A606060606094A2DE
:10061000FFA29408047E040810207E201008082AF7
:100620001C08081C2A08081E101010100C1E0C1E96
:100630000C30383E3830060E3E0E0600000000003A
:1006400000005F00000007000700147F147F1424DF
:100650002A7F2A1223130864623649562050000864
:10066000070300001C2241000041221C002A1C7FBD
:100670001C2A08083E080800807030000808080896
:1006800008000060600020100804023E5149453E09
:1006900000427F400072494949462141494D331883
:1006A00014127F1027454545393C4A4949314121BB
:1006B0001109073649494936464949291E0000149F
:1006C00000000040340000000814224114141414E7
:1006D00014004122140802015909063E415D594E99
:1006E0007C1211127C7F494949363E414141227FAB
:1006F0004141413E7F494949417F090909013E4144
:100700004151737F0808087F00417F41002040412C
:100710003F017F081422417F404040407F021C027D
:100720007F7F0408107F3E4141413E7F0909090651
:100730003E4151215E7F0919294626494949320324
:10074000017F01033F4040403F1F2040201F3F40AA
:1007500038403F6314081463030478040361594963
:100760004D43007F414141020408102000414141B6
:100770007F0402010204404040404000030708009B
:1007800020545478407F284444383844444428381E
:100790004444287F385454541800087E090218A491
:1007A000A49C787F0804047800447D4000204040E9
:1007B0003D007F1028440000417F40007C04780405
:1007C000787C080404783844444438FC18242418FD
:1007D00018242418FC7C08040408485454542404A5
:1007E000043F44243C4040207C1C2040201C3C40D2
:1007F00030403C44281028444C9090907C446454F1
:100800004C440008364100000077000000413608E3
:100810000002010204023C2623263C1EA1A1611213
:100820003A4040207A38545455592155557941223F
:1008300054547842215554784020545579400C1E28
:1008400052721239555555593954545459395554D1
:1008500054580000457C410002457D420001457C22
:10086000407D1211127DF0282528F07C545545005A
:100870002054547C547C0A097F4932494949323A10
:100880004444443A324A4848303A4141217A3A4253
:10089000402078009DA0A07D3D4242423D3D404029
:1008A000403D3C24FF2424487E4943662B2FFC2FE7
:1008B0002BFF0929F620C0887E0903205454794172
:1008C0000000447D413048484A32384040227A0096
:1008D0007A0A0A727D0D19317D2629292F282629A9
:1008E00029292630484D40203808080808080808FB
:1008F00008382F10C8ACBA2F102834FA00007B003B
:100900000008142A142222142A14085500550055F0
:10091000AA55AA55AAFF55FF55FF000000FF001079
:100920001010FF00141414FF001010FF00FF10102F
:10093000F010F0141414FC001414F700FF0000FF72
:1009400000FF1414F404FC141417101F10101F10CF
:100950001F1414141F00101010F0000000001F10CE
:100960001010101F10101010F010000000FF1010D9
:1009700010101010101010FF10000000FF140000E5
:10098000FF00FF00001F10170000FC04F4141417F0
:1009900010171414F404F40000FF00F714141414D6
:1009A000141414F700F7141414171410101F101F48
:1009B000141414F4141010F010F000001F101F0095
:1009C00000001F14000000FC140000F010F01010D4
:1009D000FF10FF141414FF141010101F000000006B
:1009E000F010FFFFFFFFFFF0F0F0F0F0FFFFFF005F
:1009F00000000000FFFF0F0F0F0F0F384444384472
:100A0000FC4A4A4A347E02020606027E027E0263E5
:100A1000554941633844443C04407E201E20060270
:100A20007E020299A5E7A5991C2A492A1C4C72014D
:100A3000724C304A4D4D303048784830BC625A468E
:100A40003D3E494949007E0101017E2A2A2A2A2A7F
:100A500044445F444440514A444040444A51400069
:100A600000FF0103E080FF000008086B6B083612EE
:100A7000362436060F090F06000018180000001073
:100A800010003040FF0101001F01011E00191D1759
:100A900012003C3C3C3C000000000000000000252F
:100AA0000028002B0000000000240027002A00047A
:100AB0000404040404040402020202020203030305
:100AC00003030301020408102040800102040810FF
:100AD000200102040810202200FF2100000103076A
:100AE0000F1F3F7F0080C0E0F0F8FCFE0000000810
:100AF00000020100000304070000000000000000E5
:100B00006626572611241FBECFEFD8E0DEBFCDBF2B
:100B100011E0A0E0B1E0ECE0F2E502C005900D923A
:100B2000AC36B107D9F723E0ACE6B1E001C01D92C5
:100B3000AD33B207E1F715E0C1E8D5E004C0219775
:100B4000FE010E94BA27C038D107C9F70E94CB180E
:100B50000C94F9280C9400000895FC016370658BD7
:100B60008481958126813781613039F0633029F0A5
:100B700091878087338722870895318720879387DD
:100B8000828708952F923F924F925F926F927F9249
:100B90008F929F92AF92BF92CF92DF92EF92FF928D
:100BA0000F931F93CF93DF93CDB7DEB76C970FB63C
:100BB000F894DEBF0FBECDBF9C8F8B8F5B011A01F7
:100BC0001F830E833701C982DC0158964D915C91D9
:100BD00059974115510509F0E5C018968D919C91E2
:100BE0001997681779070CF0CAC11A968D919C91D4
:100BF0001B97281639060CF0C2C18C2C912CFB01D6
:100C000036E0C39EE00DF11D1124FB87EA871E1616
:100C10001F060CF0B4C1C40133E0880F991F3A9548
:100C2000E1F79D878C87820D931D181619060CF02D
:100C3000A6C157968C91811103C0203B08F02F5F0D
:100C4000AB8DBC8DED91FC9111970284F385E02D65
:100C5000CD012A8F09952A8DB5E02B9F9001112493
:100C6000F5013596FF87EE87BB82AA822501A9018F
:100C70004A195B09598B488BC10108969B8B8A8B5B
:100C8000E889F989E40DF51DE556FA4F94919887A6
:100C900061013D822C82A885A0FF13C0AB8DBC8D65
:100CA000ED91FC91B981B13031F40484F585E02DEA
:100CB0002E813F8116C00684F785E02DEE80FF80EF
:100CC0001AC0EE81FF816E167F06F1F0AB8DBC8DF0
:100CD000ED91FC91B981B13051F40484F585E02D9A
:100CE0009301A601B2018B8D9C8D09950DC00684E0
:100CF000F785E02D7301840194014C815D816A8147
:100D00007B818B8D9C8D0995E885E695E887FFEFC3
:100D1000CF1ADF0A2C813D81280D391D3D832C839C
:100D20004A895B89C416D50609F0B5CF5FEF451A2D
:100D3000550A8A819B81880D991D9B838A83AE8584
:100D4000BF854A165B0609F09BCFEE81FF816E16C8
:100D50007F0609F4F2C0EB8DFC8DA081B181F98191
:100D6000F13079F4B5016B5F7F4F5096ED91FC91B6
:100D70005197830128E030E0A1018B8D9C8D09956E
:100D8000DCC06A857B85681979091E96ED91FC9116
:100D90001F9773010C851D859401A1018B8D9C8D7E
:100DA0000995CBC0FA01349694913297659174916C
:100DB000291BCB01B7E02B9F800D911D1124FA0157
:100DC000259134913B8B2A8BFC01459154915B8397
:100DD0004A83FC013296C490319654915E873296D4
:100DE00014913196D4908981823058F0612E012E71
:100DF000000C7708AD2D0D2C000CBB0BB987A88714
:100E000004C019861886612C712CAB8DBC8DED91B8
:100E1000FC9111970284F385E02DCD010995B981EC
:100E20008B2E912C689CC001699C900D789C900D34
:100E30001124FC01EA0DFB1DFD87EC871C82712C3F
:100E4000612CE12F110FFF0B95012E0F3F1F3B87E8
:100E50002A87AC0CB11CA5014E0F5F1F5F8B4E8B18
:100E6000C1018D0D911DD7FC9A95998F888F4E8564
:100E7000641608F062C0862D90E048855985480FB9
:100E8000591F489D9001499D300D589D300D1124EA
:100E9000D901A20DB31DB98BA88BAA84BB844C8445
:100EA0005D84DC80BA85DB1AE88DF98DE80FF91FC7
:100EB000FD8BEC8B8D2D8A0D2E893F89A216B306F2
:100EC000B9F1877061F48A819B810196EA89FB8977
:100ED000AA81BB81EA0FFB1F74909B838A8377FEF4
:100EE00020C0AB8DBC8DED91FC91B981B13061F426
:100EF0000484F585E02D2E813F814C895D89B50103
:100F00008B8D9C8D09950DC00684F785E02DEE80B4
:100F1000FF808401940148895989B2018B8D9C8D91
:100F20000995770CEFEFAE1ABE0A480C591CC2CFD8
:100F30003C813C0D3C8363949ACFAB8DBC8DED918D
:100F4000FC9111970688F789E02DCD016C960FB6BC
:100F5000F894DEBF0FBECDBFDF91CF911F910F91EF
:100F6000FF90EF90DF90CF90BF90AF909F908F90C9
:100F70007F906F905F904F903F902F9009946C9668
:100F80000FB6F894DEBF0FBECDBFDF91CF911F919A
:100F90000F91FF90EF90DF90CF90BF90AF909F9018
:100FA0008F907F906F905F904F903F902F9008951B
:100FB000AF92BF92CF92EF92FF920F931F93CF9376
:100FC000DF93EC01262F888D998D009709F040C0A2
:100FD0006A3059F41D861C862C898E859F8538E0E1
:100FE000239F800D911D112441C06D3009F4AAC0CA
:100FF0008E898823C1F03C898C859D8546E0349F8D
:10100000800D911D112448855985481759075CF4B6
:101010001D861C868E859F8548E0349F800D911D1E
:1010200011249F878E87EA88FB88088919894E8555
:101030005F856C857D85CC88CE010E94C2052C8998
:101040008C859D8536E0239F800D911D112442C023
:101050006A3079F41D861C862C89FC013696E49151
:101060008E859F852E9F800D911D11249F878E87D1
:1010700069C06D3009F466C0FC0134963491631781
:1010800008F460C03196E491E61708F45BC0FC01F7
:101090003296A590B490462F50E0431B510937E09B
:1010A000349FB001359F700D1124A60EB71EF501B7
:1010B000329634913196E491332311F0E1110DC051
:1010C000F5013496E4912C898C859D85E29F800DF5
:1010D000911D11249D878C8735C0F501359644916B
:1010E0005E89552311F16C89E32FF0E0E40FF11DC7
:1010F00047FDFA956E9FD0016F9FB00D11244C856E
:101100005D854A0F5B1FE885F985E417F5076CF4E8
:101110001D861C86FC013696E4918E859F856E9F08
:10112000800D911D11249F878E87EA88FB8808898E
:1011300019894E855F856C857D85CC88CE010E949E
:10114000C205BECF81E090E0DF91CF911F910F915A
:10115000FF90EF90CF90BF90AF9008956F927F92E5
:101160008F929F92AF92BF92CF92DF92EF92FF92B7
:101170000F931F93CF93DF93EC014B015A01690149
:101180003801E881F9810284F385E02D0995E88131
:10119000F9810288F389E02D87019601A501B40148
:1011A000CE010995E881F981A501460D571D4150F1
:1011B00051090288F389E02D9601B401CE01099509
:1011C000E881F9810088F189E02D9301A501B4013E
:1011D000CE010995E881F981C80CD91CB60161508E
:1011E00071090088F189E02D9301A501CE010995CF
:1011F000E881F9810688F789E02DCE01DF91CF9152
:101200001F910F91FF90EF90DF90CF90BF90AF9024
:101210009F908F907F906F900994CF92DF92EF9282
:10122000FF920F931F93CF93DF9300D000D000D095
:10123000CDB7DEB76C01DC01ED91FC91621773074D
:1012400089F4041715072CF4942F852FA801092F72
:10125000182F041B150B98012F5F3F4F048CF58D41
:10126000E02D12C04017510709F5261737072CF457
:10127000962F872FB901292F382F261B370B2F5F69
:101280003F4F068CF78DE02D8701C6010995269604
:101290000FB6F894DEBF0FBECDBFDF91CF911F9187
:1012A0000F91FF90EF90DF90CF9008950284F38527
:1012B000E02D2D833E834B835C8369837A8309957C
:1012C000D601ED91FC910488F589E02D2D813E81B8
:1012D0004B815C8169817A81C6010995D601ED91C6
:1012E000FC910688F789E02DC60126960FB6F89482
:1012F000DEBF0FBECDBFDF91CF911F910F91FF9049
:10130000EF90DF90CF900994EF92FF920F931F938D
:10131000DC01ED91FC9111971A960D911C911B9790
:1013200018962D913C91199700A0F1A1E02D7B0119
:1013300040E050E060E070E009951F910F91FF9050
:10134000EF9008954F925F926F927F928F929F924B
:10135000AF92BF92CF92DF92EF92FF920F931F93C3
:10136000CF93DF9300D0CDB7DEB76C015A013901BE
:101370004801DC01ED91FC910284F385E02D698345
:101380007A8309956981462E7A81572E640C751CE3
:10139000D601ED91FC91461457046CF40088F18954
:1013A000E02D87019401A501B201C6010995BFEFA7
:1013B0004B1A5B0AEDCF0688F789E02DC6010F9026
:1013C0000F90DF91CF911F910F91FF90EF90DF90E1
:1013D000CF90BF90AF909F908F907F906F905F90D5
:1013E0004F900994AF92BF92CF92DF92EF92FF920B
:1013F0000F931F93CF93DF9300D000D0CDB7DEB70C
:101400005C016901DC01ED91FC910284F385E02D22
:101410004B835C8369837A830995D501ED91FC91B7
:1014200069817A819B012C0D3D1D21503109048871
:10143000F589E02D78014B815C818A01C501099510
:10144000D501ED91FC910688F789E02DC5010F903B
:101450000F900F900F90DF91CF911F910F91FF9000
:10146000EF90DF90CF90BF90AF900994AF92BF9272
:10147000CF92DF92EF92FF920F931F93CF93DF9360
:1014800000D000D0CDB7DEB75C016901DC01ED9181
:10149000FC910284F385E02D4B835C8369837A831E
:1014A0000995D501ED91FC914B815C81C40ED51E4F
:1014B000B1E0CB1AD1080488F589E02D78018601C6
:1014C00069817A819B01C5010995D501ED91FC9156
:1014D0000688F789E02DC5010F900F900F900F90AF
:1014E000DF91CF911F910F91FF90EF90DF90CF9000
:1014F000BF90AF9009940895EF92FF920F931F93BE
:10150000DC01ED91FC9100A0F1A1E02D09951F9166
:101510000F91FF90EF9008950F931F93DC01ED91D1
:10152000FC91068CF78DE02D09951F910F91089580
:101530000F931F93DC01ED91FC91048CF58DE02D50
:1015400009951F910F910895DC01ED91FC910084A4
:10155000F185E02D099408952F923F924F925F926A
:101560006F927F928F929F92AF92BF92CF92DF92B3
:10157000EF92FF920F931F93CF93DF9300D01F92B0
:10158000CDB7DEB74C017B836A836A01590117012D
:101590009801241B350B37FF03C031952195310984
:1015A000C5014A815B81841B950B97FF03C0919510
:1015B0008195910951E059838217930714F019829C
:1015C0000BC09A2D8B2D5801092F182F9A818B81D2
:1015D000DB82CA82C92ED82E8A819B81A816B906C1
:1015E0005CF49C2D8D2D6801092F182F9A818B8119
:1015F000BB82AA82A92EB82E2501AA81BB814A1AD4
:101600005B0A38016C187D0877FE03C07194619401
:101610007108720157FE03C0BFEFEB1AFB0AF59485
:10162000E794C016D1061CF00FEF1FEF1FC001E0BA
:1016300010E01CC0D401ED91FC91B9810484F585C2
:10164000E02D9101BB23C1F04A815B81B601C40149
:101650000995E618F708F7FE04C0C00ED11EE40C89
:10166000F51CEA81FB813196FB83EA834A815B8129
:10167000A416B506FCF604C0A6016A817B81E7CFFB
:101680000F900F900F90DF91CF911F910F91FF90CE
:10169000EF90DF90CF90BF90AF909F908F907F9012
:1016A0006F905F904F903F902F90089585ED8093BD
:1016B000BC008091BC0084FDFCCF10926E010895A7
:1016C0004091B401262F30E0240F311D2132310525
:1016D000DCF420916E012430C9F4FC0180E090E03C
:1016E000861758F43091B4012191DC01AE56BE4FFB
:1016F000A30FB11D2C930196F3CF8091B401680F15
:101700006093B40180E0089581E0089582E0089537
:10171000089581E090E03091700120916F013217BF
:1017200010F480E090E09195819591090895809161
:10173000700190916F01891730F48F5F8093700171
:1017400080E090E008958FEF9FEF089580916F0102
:1017500090E020917001821B91090895CF92DF9251
:10176000EF92FF920F931F93CF93DF937C01262F6D
:10177000972F8A0180910402882391F0C62FD72FDA
:101780006E01C40ED51ECC15DD0571F06991D7012F
:10179000ED91FC910190F081E02DC7010995F3CF07
:1017A000642F822F0E94600BC801DF91CF911F919F
:1017B0000F91FF90EF90DF90CF900895CF93DF933C
:1017C0001F92CDB7DEB76983209104022223D1F0A6
:1017D00020910102203240F021E030E0FC0133830F
:1017E000228380E090E015C080910202E82FF0E0B3
:1017F000EE58FE4F998190838F5F80930202809311
:10180000010205C061E0CE0101960E94600B81E0FB
:1018100090E00F90DF91CF910895089580E090E0DF
:1018200008958EBD00000DB407FEFDCF8EB508955E
:1018300008958CBD9DBD08951F920F920FB60F9213
:1018400011242F933F934F935F936F937F938F93C5
:101850009F93AF93BF93EF93FF938091B900887FDD
:10186000803609F49CC068F5883209F45BC090F4B6
:10187000803109F454C038F4882309F4F6C0883064
:1018800009F44DC0F6C0883109F44CC0803209F427
:101890005DC0EFC0803409F468C048F4803309F4B7
:1018A00055C0883309F0E5C08093D901D8C0803590
:1018B00009F44FC0883509F45DC0883409F0D9C0F7
:1018C000D6C0883909F4C7C0A8F4883709F467C0BE
:1018D00038F4883609F463C0803709F460C0C9C0A1
:1018E000883809F4B8C0803909F45FC0803809F03D
:1018F000C0C05BC0803B09F486C038F4803A09F46C
:1019000066C0883A09F47FC0B4C0803C09F4A7C01F
:10191000883C09F4A4C0883B09F48AC0AAC080911D
:10192000FC0110C09091FB018091FA01981770F5AD
:10193000E091FB0181E08E0F8093FB01F0E0E65225
:10194000FE4F80818093BB0085EC86C08093D901D7
:101950008EC0E091FB0181E08E0F8093FB018091AE
:10196000BB00F0E0E652FE4F80839091FB01809136
:10197000FA016EC0E091FB0181E08E0F8093FB01C4
:101980008091BB00F0E0E652FE4F808380916D01B4
:1019900081116DC081E080936C0184EA61C083E0B5
:1019A00080936E011092D801CFCF8091D801803200
:1019B00008F051C0E091D80181E08E0F8093D801EA
:1019C0008091BB00F0E0E854FE4F8083BDCF85ECF2
:1019D0008093BC0010926E018091D801803230F467
:1019E000E091D801F0E0E854FE4F10826091D801F8
:1019F00070E0E091B601F091B70188EB91E00995B4
:101A00001092D80136C084E080936E011092B50127
:101A10001092B401E091B201F091B3010995809167
:101A2000B401811105C081E08093B401109292014C
:101A3000E091B50181E08E0F8093B501F0E0EE56A4
:101A4000FE4F80818093BB009091B5018091B401DD
:101A5000981708F479CF85E88093BC000AC085EC1C
:101A60008093BC0010926E0104C01092D9010E94B4
:101A7000560BFF91EF91BF91AF919F918F917F9105
:101A80006F915F914F913F912F910F900FBE0F90EB
:101A90001F9018959B01AC0160E074E284EF90E028
:101AA0000E945727DA01C9014097A109B109B695EB
:101AB000A795979587958093B80008952091010286
:101AC00090910302213208F04AC080916E01811189
:101AD000FCCF32E030936E0131E030936D013FEF87
:101AE0003093D9011092FB012093FA01A2E7B1E0F3
:101AF0004AED51E0FA013E2F341B321718F43D91A4
:101B00003193F9CF1092FC012091FC01990F922B97
:101B10009093FC0190916C01913061F410926C01F2
:101B20009091FC019093BB009091BC0093FDF8CF85
:101B300095EC01C095EE9093BC0090916E019230AF
:101B4000E1F39091D9019F3F79F08091D9018032E2
:101B500041F08091D901803331F084E005C081E00B
:101B600003C082E001C083E01092020210920102E1
:101B7000109204020895CF92DF92EF92FF920F939A
:101B80001F93CF93DF936C017A018B01C0E0D0E00B
:101B9000CE15DF0589F0D8016D918D01D601ED914B
:101BA000FC910190F081E02DC6010995892B11F47B
:101BB0007E0102C02196ECCFC701DF91CF911F912A
:101BC0000F91FF90EF90DF90CF900895E5E0F2E065
:101BD000A089B18982E08C93A485B5851C92A685E5
:101BE000B7858FEC8C93108EA489B58986E08C9391
:101BF000A289B3898C9180618C93A289B3898C91DD
:101C000088608C93A289B3898C9180688C930288B8
:101C1000F389E02D80818F7D80830895FF920F935B
:101C20001F93CF93DF93EC01F62E809112039091D6
:101C30001303009709F451C02091160331E030934B
:101C40000402209303021092020210920102DC01AE
:101C5000ED91FC910190F081E02D60E009958E01FD
:101C6000D1E0CF0DFF24F3948091120390911303E0
:101C7000C01761F1D032C8F00E945E0D809116034A
:101C8000F092040280930302109202021092010269
:101C90008091120390911303DC01ED91FC9101906E
:101CA000F081E02D60E00995D1E0809112039091E0
:101CB0001303F8016491DC01ED91FC910190F08136
:101CC000E02D0995DF5F0F5F1F4FCECFDF91CF91E2
:101CD0001F910F91FF900C945E0DE0912203F09103
:101CE00023032081809128038095822380838E01A5
:101CF000C60FC017C1F1F8018491209110033091F3
:101D00001103232B19F00E94110C2AC028E030E0A7
:101D100040E8E0911E03F0911F0390912603542F99
:101D2000582319F05081952B03C05081909595232D
:101D30009083E0912003F09121035081909127033B
:101D4000952B9083E0912003F09121035081909195
:101D50002703909595239083469521503109C9F624
:101D60000F5F1F4FC6CFDF91CF911F910F91FF9053
:101D70000895CF92DF92EF92FF920F931F93CF932C
:101D8000DF931F92CDB7DEB78091120390911303BA
:101D9000892B59F060912C0370912D0380912E03B3
:101DA00090912F030E944A0D16C0809110039091CC
:101DB0001103892B31F080912A0390912B030E940B
:101DC000190CE0912403F09125039081809129035F
:101DD00080958923808365E087ED9AE00E940E0E4E
:101DE0006091FA02615086EF92E00E9421182091E2
:101DF000FC023091FD02C901079697FD079623E08A
:101E0000959587952A95E1F72091FA023091FB028A
:101E1000829F8001839F100D929F100D1124E090EE
:101E20001403F090150380911203909113030E0D8B
:101E30001F1D009709F44EC02091160331E0309326
:101E40000402209303021092020210920102DC01AC
:101E5000ED91FC910190F081E02D60E4099567011E
:101E600021E0FF24F3948091120390911303C01694
:101E7000D10669F12032C8F00E945E0D80911603F0
:101E8000F092040280930302109202021092010267
:101E90008091120390911303DC01ED91FC9101906C
:101EA000F081E02D60E4099521E08091120390918A
:101EB0001303F60161916F01DC01ED91FC9101903A
:101EC000F081E02D2983099529812F5FCCCF0E94D5
:101ED0005E0D43C0E0912203F09123039081809135
:101EE0002803892B8083E016F106B9F1F70181916F
:101EF0007F012091100330911103232B19F00E94D0
:101F0000110CF1CF28E030E040E8E0911E03F091A1
:101F10001F0390912603542F582319F05081952BBD
:101F200003C05081909595239083E0912003F09118
:101F30002103508190912703952B9083E0912003FA
:101F4000F0912103508190912703909595239083E0
:101F5000469521503109C9F6C6CF80911203909160
:101F60001303892B99F060913003709131038091B4
:101F70003203909133030F90DF91CF911F910F9116
:101F8000FF90EF90DF90CF900C944A0DE0912403E6
:101F9000F0912503908180912903892B8083809182
:101FA000100390911103892B59F00F90DF91CF917D
:101FB0001F910F91FF90EF90DF90CF900C94180C31
:101FC0000F90DF91CF911F910F91FF90EF90DF90D5
:101FD000CF9008952091FC023091FD02C90107962F
:101FE00097FD079623E0959587952A95E1F720912F
:101FF000FA023091FB02829FA001839F500D929FB5
:10200000500D112460E070E080911403909115034D
:102010000C94F2282F923F924F925F926F927F9290
:102020008F929F92AF92BF92CF92DF92EF92FF92E8
:102030000F931F93CF93DF93CDB7DEB728970FB6DB
:10204000F894DEBF0FBECDBF4C017C836B835887F5
:102050004F8381E090E05C01A41AB50ACA01919512
:1020600081959109AC01440F551F5A83498318018A
:102070005FEF251A350A3B012101C12CD12C822F9B
:1020800081708D8322702E83EF81F885CE16DF0656
:102090000CF071C0EF80F884B7FC0AC091E0E91A37
:1020A000F108E981FA813296FA83E983AE0EBF1E08
:1020B000FFEFCF1ADF0AC601880F991F0196A80EFD
:1020C000B91EEC14FD0454F14D81442391F09701A5
:1020D000220F331F220D331D02E010E04B815C8183
:1020E0004E195F09B601680D791D86EF92E00E94D6
:1020F000980A5E81552391F09701220F331F220D1C
:10210000331D02E010E04B815C814E195F09B40180
:102110006C197D0986EF92E00E94980A8F8198855C
:10212000E816F906F9F09D81992361F002E010E0CC
:102130009201A3016F817885680D791D86EF92E089
:102140000E94980AEE81EE2369F0B4014F81588510
:10215000641B750B02E010E09201A30186EF92E090
:102160000E94980A51E0651A710882E0480E511CDD
:10217000F886EF8289CF28960FB6F894DEBF0FBE9F
:10218000CDBFDF91CF911F910F91FF90EF90DF9026
:10219000CF90BF90AF909F908F907F906F905F9007
:1021A0004F903F902F9008952F923F924F925F92C1
:1021B0006F927F928F929F92AF92BF92CF92DF9257
:1021C000EF92FF920F931F93CF93DF937C016B01EC
:1021D000EA0181E090E05C01A41AB50A6624772444
:1021E000641A750A660C771C00E010E0882483945A
:1021F000912C822F8470582E822F8270482E822F2D
:102200008870382E2170222E0C171D070CF079C013
:10221000B7FC06C0219782E0680E711CA60CB71CA3
:102220000F5F1F4F82E0880E911CA80CB91C55202F
:10223000C1F021E030E0A6014C0F5D1FB8016E0D2A
:102240007F1D86EF92E00E94A40A21E030E0A80101
:102250004C0D5D1DB7016C0F7D1F86EF92E00E9453
:10226000A40A4420C1F021E030E0A6014C1B5D0B24
:10227000B8016E0D7F1D86EF92E00E94A40A21E056
:1022800030E0A601401B510BB7016C0F7D1F86EF9C
:1022900092E00E94A40A3320C1F021E030E0A801BE
:1022A0004C0D5D1DB7016C1B7D0B86EF92E00E940B
:1022B000A40A21E030E0A6014C0F5D1FB701601BAE
:1022C000710B86EF92E00E94A40A222009F49CCFB1
:1022D00021E030E0A601401B510BB7016C1B7D0BC8
:1022E00086EF92E00E94A40A21E030E0A6014C1B98
:1022F0005D0BB701601B710B86EF92E00E94A40A90
:1023000083CFDF91CF911F910F91FF90EF90DF90DE
:10231000CF90BF90AF909F908F907F906F905F9085
:102320004F903F902F900895809112039091130346
:10233000892B59F060912C0370912D0380912E030D
:1023400090912F030E944A0D16C080911003909126
:102350001103892B31F080912A0390912B030E9465
:10236000190CE0912403F0912503908180912903B9
:102370008095892380836EE286EF92E00E94211887
:102380008091120390911303892B51F060913003D7
:102390007091310380913203909133030C944A0D74
:1023A000E0912403F0912503908180912903892BEA
:1023B00080838091100390911103892B11F00C946C
:1023C000180C08953F924F925F926F927F928F9276
:1023D0009F92AF92BF92CF92DF92EF92FF920F93B4
:1023E0001F93CF93DF93CDB7DEB728970FB6F8943E
:1023F000DEBF0FBECDBF6C017E836D832A01390124
:10240000DC01ED91FC910284F385E02D0995C80172
:10241000079697FD0796FC0193E0F595E7959A9549
:10242000E1F7FA83E983812C912CA12CB12C312C7A
:10243000C501840D951D9C838B83AE14BF040CF0E5
:102440003FC018861F82EF81F885E017F10784F5F9
:102450008F81988587709927892B11F0330C0EC0D6
:10246000EF81F885F7FD379683E0F595E7958A9536
:10247000E1F7E80DF91DE60DF71D349037FE12C0A7
:10248000D601ED91FC910484F585E02D21E030E04A
:102490004B815C816D817E818F819885680F791F6A
:1024A000C6010995AF81B8851196B887AF83CBCFA8
:1024B000FFEFAF1ABF0A29813A81820E931EB8CF6F
:1024C000D601ED91FC910688F789E02DC60128968A
:1024D0000FB6F894DEBF0FBECDBFDF91CF911F9135
:1024E0000F91FF90EF90DF90CF90BF90AF909F90B3
:1024F0008F907F906F905F904F903F90099490E005
:10250000FC01ED53F54F2491FC01E155F54F849109
:10251000882399F090E0880F991FFC01EB55F54F47
:10252000A591B491FC01E556F54F859194918FB733
:10253000F894EC91E22BEC938FBF0895CF92DF9249
:10254000EF92FF920F931F932FB7F894C090FD0165
:10255000D090FE01E090FF01F09000022FBFDC015F
:10256000CB018C0D9D1DAE1DBF1D4FB7F894009182
:10257000FD011091FE012091FF01309100024FBF3B
:102580000C151D052E053F0528F080179107A207A1
:10259000B30758F71F910F91FF90EF90DF90CF9006
:1025A0000895EF92FF920F931F93CF93DF938C01C7
:1025B0007B01C0E0D0E0F701EC0FFD1F64916623C2
:1025C00061F0D801ED91FC910190F081E02DC801FE
:1025D0000995892B11F02196EECFCE01DF91CF9195
:1025E0001F910F91FF90EF9008956115710579F09B
:1025F000FB0101900020E9F73197AF01461B570B13
:10260000DC01ED91FC910280F381E02D099480E0E2
:1026100090E008954F925F926F927F92EF92FF92B7
:102620000F931F93CF93DF93CDB7DEB7A1970FB66C
:10263000F894DEBF0FBECDBF7C01FA01CB0119A219
:10264000223008F42AE08E010F5D1F4F422E512CDC
:10265000612C712CBF01A30192010E945727F9013F
:10266000CA01015011096A3014F4605D01C0695C4F
:10267000D8016C93232B242B252B61F7B801C701BC
:102680000E94F512A1960FB6F894DEBF0FBECDBF23
:10269000DF91CF911F910F91FF90EF907F906F90FE
:1026A0005F904F900895CF92DF92EF92FF92CF9379
:1026B000DF936B017C01E0910502F091060201902D
:1026C000F081E02D6DE285E092E00995EC01442770
:1026D0005527BA014C195D096E097F092AE085E08A
:1026E00092E00E940A138C0F9D1FDF91CF91FF9003
:1026F000EF90DF90CF9008950F931F93CF93DF93C8
:10270000EC010E94D1128C0169E671E0CE010E94B9
:10271000F512800F911FDF91CF911F910F910895B6
:10272000FC01538D448D252F30E0842F90E0821BD7
:10273000930B541710F0CF96089501970895FC015C
:10274000918D828D981761F0828DDF01A80FB11DE8
:102750005D968C91928D9F5F9F73928F90E008950C
:102760008FEF9FEF0895FC01918D828D981731F0C6
:10277000828DE80FF11D858D90E008958FEF9FEF1A
:102780000895FC01918D228D892F90E0805C9F4FF0
:10279000821B91098F739927089585E092E00E942A
:1027A000C11321E0892B09F420E0822F0895FC0158
:1027B000848DDF01A80FB11DA35ABF4F2C91848DCA
:1027C00090E001968F739927848FA689B7892C93FF
:1027D000A089B1898C9180648C93938D848D98139A
:1027E00006C00288F389E02D80818F7D8083089563
:1027F000EF92FF920F931F93CF93DF93EC0181E051
:10280000888F9B8D8C8D981305C0E889F98980810C
:1028100085FD24C0F62E0B8D10E00F5F1F4F0F7348
:102820001127E02E8C8DE8120CC00FB607FCFACFF2
:10283000E889F989808185FFF5CFCE010E94D71301
:10284000F1CF8B8DFE01E80FF11DE35AFF4FF082AF
:102850000B8FEA89FB898081806207C0EE89FF893E
:102860006083E889F98980818064808381E090E0D9
:10287000DF91CF911F910F91FF90EF900895CF932B
:10288000DF93EC01888D8823C9F0EA89FB89808178
:1028900085FD05C0A889B9898C9186FD0FC00FB64A
:1028A00007FCF5CF808185FFF2CFA889B9898C918B
:1028B00085FFEDCFCE010E94D713E7CFDF91CF91F7
:1028C000089580E090E0892B29F00E94CD138111BA
:1028D0000C94000008953FB7F894809135039091CF
:1028E0003603A0913703B091380326B5A89B05C0E5
:1028F0002F3F19F00196A11DB11D3FBFBA2FA92F7F
:10290000982F8827820F911DA11DB11DBC01CD01FB
:1029100042E0660F771F881F991F4A95D1F70895E7
:102920000F931F93CF93DF9377FF04C0260F371FBA
:1029300060E070E0DC011496CD91DC911597FB010D
:10294000E20FF31FCE17DF071CF49E01261B370B87
:10295000121613060CF046C0FA0157FD3796DF0138
:10296000E3E0B595A795EA95E1F7AC9FF001AD9F3F
:10297000F00DBC9FF00D11246E0F7F1FDC015E96E1
:10298000ED91FC915F97E60FF71F4770552781E0A7
:1029900090E001C0880F4A95EAF7482F01301105F1
:1029A00039F078F002301105E9F42E0F3F1F13C003
:1029B0002E0F3F1FE217F307A9F08081842B81932C
:1029C000F9CF80952E0F3F1FE217F30759F0908142
:1029D00098239193F9CFE217F30721F080818427A0
:1029E0008193F9CFDF91CF911F910F910895EF92CD
:1029F000FF920F931F93CF93DF93EC0177FDA4C059
:102A0000EC80FD806E157F050CF09EC057FF04C062
:102A1000240F351F40E050E08E819F81FA01E20FC4
:102A2000F31F8E179F071CF49C01241B350B1216F5
:102A300013060CF089C0922F842F86958695869573
:102A40008E9DD0018F9DB00D11246A0F7B1FAE8D1E
:102A5000BF8DA60FB71F4770A9F188E0841B482FD0
:102A6000682F70E0FB01EC51F54FE491281790F4CA
:102A7000621B71092FEF30E002C0359527956A95EA
:102A8000E2F7E2230130110541F070F00230110548
:102A900079F05AC00130110519F48C91E82B0AC065
:102AA0000130110508F049C0E0958C91E82302C07F
:102AB0008C91E827EC932C813D81941708F444C055
:102AC000A20FB31FE92FE41BE830F8F00230110524
:102AD00061F48E2F9C9190959C932C813D81A20F47
:102AE000B31F88508830B0F70FC081E00115110581
:102AF00009F480E081959E2F8C932C813D81A20F5B
:102B0000B31F98509830C0F7E770EE23E9F0F0E07B
:102B1000E452F54FE4910130110539F048F00230EC
:102B2000110591F48C91E82706C08C91E82B03C025
:102B3000E0958C91E823EC9307C00230110509F46D
:102B4000B7CFAE0DBF1DBECFDF91CF911F910F91BB
:102B5000FF90EF9008950F931F93CF93DF93DC01C5
:102B60005596EC915597E23071F0E330E9F0E130A1
:102B700079F5FB0114960D90BC91A02DA41BB50B0B
:102B8000A21BB30B18C0EC01EC81FD81E61BF70B17
:102B9000BF0161507109EE81FF81DF01A41BB50BFC
:102BA000AD01421B530B14C0DA01EC01EE81FF8131
:102BB000E61BF70B3197F7FD0DC0EC014E815F81ED
:102BC000E417F5073CF4AF01BD010E94901402C068
:102BD0000E94F714DF91CF911F910F9108950F93E9
:102BE0001F93DC015596EC915597E23061F0E3308C
:102BF00009F1E13081F51496ED91FC911597E41BF4
:102C0000F50B319723C0DC011496ED91FC911597DB
:102C1000DF01A61BB70BBD01DC011696ED91FC91FF
:102C20001797DF01A41BB50BAD0141505109621B81
:102C3000730B11C0FA01DC0116964D915C91179748
:102C4000DA01A61BB70BBD01621B730BAB01BF0101
:102C50000E94F7140CC057FD0AC0DC011696ED91D6
:102C6000FC9117974E175F0714F40E9490141F9160
:102C70000F910895FC0177FDB9C080859185681793
:102C800079070CF0B3C057FDB1C082859385481712
:102C900059070CF008958589823079F484819581F3
:102CA000DC01A61BB70BBD016150710986819781BC
:102CB000DC01A41BB50BAD010EC0833009F084C04C
:102CC00064277527CB0184279527682779274681B4
:102CD0005781481B590B415051092130310531F0C2
:102CE00048F12230310509F44AC00895CA0157FD60
:102CF00007969C01A3E035952795AA95E1F7A48155
:102D0000B5812A9FC0012B9F900D3A9F900D1124F1
:102D1000680F791F068CF78DE02DE60FF71F4770BF
:102D2000552781E090E001C0880F4A95EAF790812D
:102D3000892B48C0CA0157FD07969C0193E0359541
:102D400027959A95E1F7A481B5812A9FC0012B9F11
:102D5000900D3A9F900D1124680F791F068CF78D06
:102D6000E02DE60FF71F4770552781E090E001C086
:102D7000880F4A95EAF780959081892323C0CA017C
:102D800057FD07969C0183E0359527958A95E1F7D5
:102D9000A481B5812A9FC0012B9F900D3A9F900D71
:102DA0001124680F791F068CF78DE02DE60FF71FB1
:102DB0004770552781E090E001C0880F4A95EAF7F7
:102DC0009081892780830895813009F086CF642718
:102DD0007527462757276427752784819581DC014D
:102DE000A61BB70BBD016150710977CF08950E94F2
:102DF000ED281F920F920FB60F9211242F933F933D
:102E00004F935F936F937F938F939F93AF93BF93F2
:102E1000EF93FF9385E092E00E94D713FF91EF912B
:102E2000BF91AF919F918F917F916F915F914F91E2
:102E30003F912F910F900FBE0F901F9018951F92EA
:102E40000F920FB60F9211242F938F939F93EF93AE
:102E5000FF93E0911502F09116028081E0911B0230
:102E6000F0911C0282FD12C0908180911E028F5F42
:102E70008F7320911F02821751F0E0911E02F0E043
:102E8000EB5FFD4F958F80931E0201C08081FF9103
:102E9000EF919F918F912F910F900FBE0F901F90E8
:102EA000189590E0FC01E451F54F3491FC01ED538D
:102EB000F54F2491FC01E155F54FE491EE2309F41F
:102EC0003BC0332339F1333091F038F43130A9F07D
:102ED000323001F584B58F7D12C0373091F0383033
:102EE000A1F03430B9F4809180008F7D03C08091CF
:102EF00080008F77809380000DC084B58F7784BD6C
:102F000009C08091B0008F7703C08091B0008F7DA1
:102F10008093B000F0E0EE0FFF1FE556F54FA5914E
:102F2000B4918FB7F894EC91611103C020952E23D2
:102F300001C02E2B2C938FBF08958F929F92AF923A
:102F4000BF92CF92DF92EF92FF926B017C010E94C1
:102F50006B144B015C01C114D104E104F104F1F0E4
:102F60000E946B14DC01CB0188199909AA09BB09DD
:102F7000883E9340A105B10570F321E0C21AD10843
:102F8000E108F10888EE880E83E0981EA11CB11CB0
:102F9000C114D104E104F10419F7DDCFFF90EF90E3
:102FA000DF90CF90BF90AF909F908F9008951F9229
:102FB0000F920FB60F9211242F933F938F939F93ED
:102FC000AF93BF938091FD019091FE01A091FF010D
:102FD000B09100023091340323E0230F2D3720F409
:102FE0000196A11DB11D05C026E8230F0296A11D63
:102FF000B11D209334038093FD019093FE01A093B3
:10300000FF01B09300028091350390913603A091A7
:103010003703B09138030196A11DB11D809335038C
:1030200090933603A0933703B0933803BF91AF91C9
:103030009F918F913F912F910F900FBE0F901F90F6
:1030400018951F93CF93DF93FC01848D958D009786
:1030500029F1162FEF0120A131E0309304022093D3
:1030600003021092020210920102DC01ED91FC9128
:103070000190F081E02D60E009958C8D9D8DDC0143
:10308000ED91FC910190F081E02D612F09958C8DDF
:103090009D8DDF91CF911F910C945E0DA4A5B5A5D8
:1030A0009C9182A9809589238C93828D938D892B05
:1030B00031F0862FDF91CF911F910C94110C28E0F5
:1030C00030E080E8A0A5B1A590A9482F462319F0CB
:1030D0004C91942B03C04C91909594239C93A2A562
:1030E000B3A54C9191A9942B9C93A2A5B3A54C9107
:1030F00091A9909594239C9386952150310911F7BD
:10310000DF91CF911F9108951F93CF93DF93EC012F
:10311000162F8C8D9D8D892B39F06EA97FA988ADD6
:1031200099AD0E944A0D0FC08A8D9B8D892B21F08D
:103130008CA99DA90E94190CEEA5FFA590818BA9D1
:10314000809589238083111102C066EA01C067EA75
:10315000CE010E9421188C8D9D8D892B49F06AAD7E
:103160007BAD8CAD9DADDF91CF911F910C944A0D3D
:10317000EEA5FFA590818BA9892B80838A8D9B8DDD
:10318000892B29F0DF91CF911F910C94180CDF91BE
:10319000CF911F910895CF93DF93CDB7DEB7CC5475
:1031A000D1090FB6F894DEBF0FBECDBF789484B5B9
:1031B000826084BD84B5816084BD85B5826085BD33
:1031C00085B5816085BD80916E00816080936E00C1
:1031D00010928100809181008260809381008091B3
:1031E0008100816080938100809180008160809364
:1031F00080008091B10084608093B1008091B00024
:1032000081608093B00080917A00846080937A001E
:1032100080917A00826080937A0080917A00816048
:1032200080937A0080917A00806880937A0010926F
:10323000C1001092E6021092E7021092E80210928A
:10324000E9021092A4021092A5021092A602109216
:10325000A70268EB7BE080E090E00E949E1285E090
:1032600092E09093E5028093E4020E94E60D2FB76E
:10327000F8948091FD019091FE01A091FF01B09121
:1032800000022FBF8093A4029093A502A093A602F0
:10329000B093A7026AE571E08091E4029091E502A3
:1032A0000E94F5126AE070E080E090E00E949E12B9
:1032B00081E08093B8020E94E60D80911403909102
:1032C0001503892B41F52091FC023091FD02C901C3
:1032D000079697FD079623E0959587952A95E1F740
:1032E0002091FA023091FB02AC01429FC001439F42
:1032F000900D529F900D11240E94C02790931503AA
:1033000080931403892B39F461E875E085E092E03D
:103310000E947C13FFCF0E94EA0F8091FC029091E3
:10332000FD026091FA027091FB0281329105CCF0AE
:10333000AC014054510957FF02C04F5F5F4F559594
:1033400047956255710977FF02C06F5F7F4F759592
:10335000679510E4E12EF12C02E510E024E632E05E
:1033600018C0AC014052510957FF02C04F5F5F4F78
:10337000559547956357710977FF02C06F5F7F4F7F
:1033800075956795F0E2EF2EF12C03E710E024E845
:1033900030E086EF92E00E94E21182E08093170312
:1033A0008091120390911303892B59F18DE380933F
:1033B00016031092700110926F0110920202109287
:1033C000010210926E0181E080936D0110926C01F8
:1033D00061E082E10E94511761E083E10E94511790
:1033E0008091B9008E7F8093B9008091B9008D7F64
:1033F0008093B90088E48093B80085E48093BC0092
:10340000B6C080911B030E947F1280911C030E9412
:103410007F1280911B03082E000C990BFC01E155D3
:10342000F54FE491F0E0EE0FFF1FE556F54F2591C3
:1034300034913093230320932203FC01ED53F54F85
:10344000E491E093280380911C03082E000C990B53
:10345000FC01E155F54FE491F0E0EE0FFF1FE5565A
:10346000F54FA591B491B0932503A0932403FC01DB
:10347000ED53F54FE491E09329038C91E82BEC9305
:103480008091100390911103892B89F11FB7F89453
:1034900080917101811124C0E9EBFAE08491EDEC97
:1034A000FAE09491E82FF0E0EE0FFF1FEB55F54F97
:1034B000A591B491EC91E92321F461E08AE00E94A6
:1034C00051178AE00E947F128CB580618CBD8CB54B
:1034D00080648CBD8DE00E947F128BE00E947F1281
:1034E000809171018F5F809371011FBF40C08091F7
:1034F00019030E947F1280911A030E947F1280910B
:103500001903082E000C990BFC01E155F54FE491CD
:10351000F0E0EE0FFF1FE556F54F25913491309303
:103520001F0320931E03FC01ED53F54FE491E0933C
:10353000260380911A03082E000C990BFC01E1551B
:10354000F54FE491F0E0EE0FFF1FE556F54FA59122
:10355000B491B0932103A0932003FC01ED53F54FE8
:10356000E491E09327038C91E095E823EC9380911C
:103570001D0387FD1DC00E947F1261E080911D0325
:103580000E94511761E070E080E090E00E949D177A
:1035900060E080911D030E9451176AE070E080E0B6
:1035A00090E00E949D1761E080911D030E945117D9
:1035B0008091120390911303892B59F060912C0391
:1035C00070912D0380912E0390912F030E944A0D3C
:1035D00016C08091100390911103892B31F08091D6
:1035E0002A0390912B030E94190CE0912403F0917F
:1035F000250390818091290380958923808364E04D
:1036000080E890E00E940E0E6091FC02615086EF0F
:1036100092E00E94211864E08CE790E00E940E0E78
:1036200080911703813011F064E101C060E186EF01
:1036300092E00E94211864E088E790E00E940E0E5C
:103640008091FA029091FB0280389105E9F4809113
:10365000FC029091FD028032910531F464E084E730
:1036600090E00E940E0E29C08034910531F563E090
:1036700081E790E00E940E0E80911703813011F0D7
:103680006FEC17C06FE915C080369105B1F48091D9
:10369000FC029091FD02409781F463E08EE690E099
:1036A0000E940E0E80911703813011F06FEA01C065
:1036B00060E186EF92E00E94211869ED86EF92E0CA
:1036C0000E94211880911703813011F061EF01C031
:1036D00062E286EF92E00E94211866E088E690E0C0
:1036E0000E940E0E8091120390911303892B59F0C2
:1036F00060913003709131038091320390913303D4
:103700000E944A0D11C0E0912403F091250390819D
:1037100080912903892B808380911003909111035C
:10372000892B11F00E94180C0E94B90E60ED77E011
:1037300080E090E00E949D170E94EA0F21E030E0B7
:103740004AE050E06AE070E086EF92E00E943A16AC
:103750000E94B90E60ED77E080E090E00E949D1736
:103760000E94EA0FC12CD12C8091FE029091FF02A1
:10377000C816D906F4F4009100031091010301501A
:103780001109EE24E394F12C960140E050E060E052
:1037900070E086EF92E00E940D090E94B90E61E090
:1037A00070E080E090E00E949D1754E0C50ED11CAF
:1037B000DBCFC12CD12C8091000390910103C8165E
:1037C000D906F4F42091FE023091FF022150310914
:1037D000EE24E394F12C860140E050E060E070E0DC
:1037E00086EF92E00E940D090E94B90E61E070E040
:1037F00080E090E00E949D1764E0C60ED11CDBCFF4
:103800006AEF70E080E090E00E949D170E94EA0F4E
:10381000A12CB12C8091FE029091FF02C090000378
:10382000D0900103A816B906DCF4A6014150510955
:10383000EE24E394F12C00E010E0950160E070E0EC
:1038400086EF92E00E940D090E94B90E61E070E0DF
:1038500080E090E00E949D1774E0A70EB11CDACFC3
:1038600081E0C81AD108D7FC22C02091FE02309115
:10387000FF02215031094091000350910103415052
:103880005109EE24E394F12C860160E070E086EFAC
:1038900092E00E940D090E94B90E61E070E080E0A4
:1038A00090E00E949D1794E0C91AD108DCCF6AEF1E
:1038B00070E080E090E00E949D170E94EA0FA090C7
:1038C000FE02B090FF02A1E0AA1AB108C090000366
:1038D000D0900103B7FC1FC0A6014150510960916F
:1038E000FE027091FF0261507109EE24E394F12C05
:1038F00000E010E0950186EF92E00E940D090E9421
:10390000B90E61E070E080E090E00E949D17B4E0A5
:10391000AB1AB108DBCFE1E0CE1AD108D7FC22C048
:103920004091000350910103415051096091FE0202
:103930007091FF0261507109EE24E394F12C86012D
:1039400020E030E086EF92E00E940D090E94B90E5F
:1039500061E070E080E090E00E949D17F4E0CF1AF3
:10396000D108DCCF6AEF70E080E090E00E949D1704
:103970000E94EA0FC12CD12C809100039091010389
:10398000C816D906F4F46091FE027091FF026150EE
:103990007109EE24E394F12C860120E030E040E050
:1039A00050E086EF92E00E940D090E94B90E61E09E
:1039B00070E080E090E00E949D1724E0C20ED11CD0
:1039C000DBCFC12CD12C6091FE027091FF02C61694
:1039D000D706F4F40091000310910103015011097E
:1039E00061507109EE24E394F12C960140E050E01F
:1039F00086EF92E00E940D090E94B90E61E070E02E
:103A000080E090E00E949D1734E0C30ED11CDBCF14
:103A100060ED77E080E090E00E949D170E94EA0F41
:103A2000A12CB12CC12CD12C0091000310910103C9
:103A3000C80117FD019695958795C816D90604F516
:103A40000A0D1B1D2091FE023091FF022A0D3B1D25
:103A5000EE24E394F12CA601B60186EF92E00E94D9
:103A6000AE080E94B90E61E070E080E090E00E9434
:103A70009D1742E0C40ED11C54E0A51AB108D4CF62
:103A800060ED77E080E090E00E949D170E94EA0FD1
:103A9000A12CB12CC12CD12C009100031091010359
:103AA000C80117FD019695958795C816D90604F5A6
:103AB0000A0D1B1D2091FE023091FF022A0D3B1DB5
:103AC00042E0E42EF12CA601B60186EF92E00E94BE
:103AD000A2090E94B90E61E070E080E090E00E94CF
:103AE0009D1763E0C60ED11C76E0A71AB108D4CFAB
:103AF00060ED77E080E090E00E949D170E94EA0F61
:103B00001AAA19AAC12CD12CE090FE02F090FF0253
:103B100040900003509001034E145F0424F4C70149
:103B2000F7FE04C002C0C20157FC01969595879527
:103B3000C816D9060CF0D3C057FE03C08FEF481A41
:103B4000580A55944794F7FE03C09FEFE91AF90A03
:103B5000F594E794A1E0B0E0AC19BD09BCA3ABA318
:103B6000E9A9FAA9FAA7E9A721E030E0A2014C0DE2
:103B70005D1DB70186EF92E00E94A40A21E030E0CB
:103B8000A2014C195D09B70186EF92E00E94A40AD8
:103B9000B7016C0D7D1D21E030E0A20186EF92E0BF
:103BA0000E94A40AB7016C197D0921E030E0A2014E
:103BB00086EF92E00E94A40A8601212C312C21E09C
:103BC00030E03EA32DA3201631060CF077C04BA1A8
:103BD0005CA157FD0CC00150110969A57AA56E5F63
:103BE0007F4F7AA769A7460F571F5CA34BA37FEFB0
:103BF000271A370A8DA19EA102969EA38DA3ABA181
:103C0000BCA1A80FB91FBCA3ABA331016E0C7F1CD4
:103C100021E030E05201A00EB11EA501B30186EFF4
:103C200092E00E94A40A47018218930821E030E044
:103C3000A501B40186EF92E00E94A40A21E030E0E1
:103C40005201A01AB10AA501B30186EF92E00E94C9
:103C5000A40A21E030E0A501B40186EF92E00E94C1
:103C6000A40A5101A40CB51C21E030E0A5014701D4
:103C7000800E911EB40186EF92E00E94A40A21E01A
:103C800030E0A5015701A01AB10AB50186EF92E014
:103C90000E94A40A32016218730821E030E0A301F7
:103CA000B40186EF92E00E94A40A21E030E0A30173
:103CB000B50186EF92E00E94A40A85CF0E94B90E5A
:103CC00061E070E080E090E00E949D17B2E0CB0ED2
:103CD000D11CE9A9FAA93497FAABE9AB15CF60ED8D
:103CE00077E080E090E00E949D170E94EA0F8091AB
:103CF000FE029091FF02E0900003F0900103E816AD
:103D0000F90664F47C0197FF03C0FFEFEF1AFF0A86
:103D1000F594E7945701AA0CBB1C3DC0F7FEF8CF01
:103D20002FEFE21AF20AF4CF6091000370910103C1
:103D300077FF02C06F5F7F4F4B019594879480910E
:103D4000FE029091FF0297FD01966C01D594C794F5
:103D500095012F5F3F4FA4014E195F0902E010E06B
:103D6000B60186EF92E00E94980A00E010E023E09E
:103D7000A701B401C6010E940A100E94B90E61E0B9
:103D800070E080E090E00E949D1733E0E31AF108B4
:103D900046E0A41AB1081E141F0434F260ED77E067
:103DA00080E090E00E949D170E94EA0F612C712C28
:103DB000C12CD12C4090000350900103C20157FC4C
:103DC0000196959587950297C816D9060CF091C073
:103DD000C20157FC03969595879595958795460C56
:103DE000571C2090FE023090FF02260C371C241432
:103DF00035043CF4710137FE0AC05FEFE51AF50A9D
:103E000006C0720157FE03C06FEFE61AF60AF5947A
:103E1000E7948E159F050CF47C01882499248E1854
:103E20009F08880C991CC101880D991D9CA38BA328
:103E30005601AE0CBF1C01E010E09C01A601B501CB
:103E400086EF92E00E948C0AD601A40DB51DBAA798
:103E5000A9A7AD01415051092BA13CA1B50186EFA5
:103E600092E00E948C0A840C951C9401A501B60175
:103E700086EF92E00E94980A2C0C3D1CB101615023
:103E800071099401A50186EF92E00E94980A21E051
:103E9000A701B501C5010E94D4102E183F08B1E05A
:103EA0002B1A310822E0A701B501C1010E94D410EC
:103EB00009A51AA50E191F090150110924E0A7012F
:103EC000B801C1010E94D41028E0A701B801C501C2
:103ED0000E94D4100E94B90E61E070E080E090E092
:103EE0000E949D17E2E0CE0ED11CF4E06F1A71081B
:103EF00061CF60ED77E080E090E00E949D170E9426
:103F0000EA0F1CA21BA2412C512CA0900003B090E0
:103F10000103C501B7FC0196959587950297481650
:103F200059060CF067C09501B7FE02C02D5F3F4FE8
:103F300035952795359527954BA15CA1A40EB51E07
:103F40008090FE029090FF02840E951E8A149B04BE
:103F50003CF4640197FE0AC05FEFC51AD50A06C09B
:103F60006501B7FE03C06FEFC61AD60AD594C79491
:103F70002C153D050CF46901662477246C187D0826
:103F8000660C771C12012C0C3D1C9401260D371D6C
:103F9000B2E0EB2EF12C8501A201B10186EF92E097
:103FA0000E947C0AA60CB71C71E0A71AB108C201D6
:103FB000880D991D8C199D09850121E0A601B1018B
:103FC00001970E940A1022E0A601B101C1010E94DE
:103FD0000A100E94B90E61E070E080E090E00E945B
:103FE0009D1782E0480E511CABA1BCA11497BCA345
:103FF000ABA38BCF60ED77E080E090E00E949D174F
:104000000E94EA0F812C912CA090FE02B090FF023A
:10401000C0900003D0900103CA14DB0424F4C5014E
:10402000B7FE04C002C0C601D7FC019695958795DE
:10403000881699060CF03FC0D7FE03C0BFEFCB1A1D
:10404000DB0AD594C7943601680C791CB7FE03C00F
:10405000EFEFAE1ABE0AB594A7941501280C391CCF
:10406000250148185908C818D908EE24E394F12C02
:1040700083019201A601B50186EF92E00E940D092D
:104080009101A301B20186EF92E00E940D09860121
:104090009501A301B10186EF92E00E940D090E94F3
:1040A000B90E61E070E080E090E00E949D17F5E0BD
:1040B0008F0E911CA9CF60ED77E080E090E00E9428
:1040C0009D170E94EA0F8091FE029091FF02C0901E
:1040D0000003D0900103C816D9063CF46C0197FF89
:1040E00009C02FEFC21AD20A05C0D7FE03C03FEFA6
:1040F000C31AD30AD594C7941C141D040CF0A2C192
:10410000809100039091010397FD01969595879505
:104110005C01AC0CBD1C6091FE027091FF0277FF48
:1041200002C06F5F7F4F759567951B012C0C3D1C7E
:104130007B01EC18FD08AC014C195D095CA34BA395
:10414000A416B50624F4A416B50679F50CC02BA167
:104150003CA12A153B0509F08FC5922D832D17012F
:104160007B01692F782F2E143F0454F09E2D8F2D44
:10417000E214F30414F4922D832D1701E92EF82E86
:10418000621573052CF0E616F7060CF47B01B101FD
:104190009701261B370B2F5F3F4F02E010E0A50170
:1041A00086EF92E00E948C0A41C191012E193F09CD
:1041B0006BA17CA16A197B097AA769A7882799272F
:1041C0008C199D099AAB89AB7EA76DA7D501119774
:1041D000BCAFABAFBAAEA9AE80E090E089AC9AAC10
:1041E000412C512C32011DAA1EAA1FAA18AEAC01E7
:1041F000990F660B770B21964CAF5DAF6EAF7FAF1B
:10420000219769A57AA5072E000C880B990B259696
:104210006CAF7DAF8EAF9FAF2597C901330FAA0B4F
:10422000BB0B29968CAF9DAFAEAFBFAF2997960160
:104230000D2C000C440B550B2D962CAF3DAF4EAF03
:104240005FAF2D97EBADFCADE815F9050CF456C04A
:104250006DA97EA98FA998AD21962CAD3DAD4EAD2F
:104260005FAD21970E947927B701620F731F7EA36C
:104270006DA3C301B20125962CAD3DAD4EAD5FAD32
:1042800025970E9479272E0D3F1D8DA99EA9AFA9C4
:10429000B8AD29964CAD5DAD6EAD7FAD2997840F5D
:1042A000951FA61FB71F8DAB9EABAFABB8AF2D96BA
:1042B0006CAD7DAD8EAD9FAD2D97460E571E681E21
:1042C000791E8DA19EA12817390734F49DA18EA1D6
:1042D0003EA32DA3292F382FADA1BEA12A1B3B0B36
:1042E0002F5F3F4F02E010E0A401BD0186EF92E096
:1042F0000E948C0ABFEF8B1A9B0AA4CFC4018A19B3
:104300009B0929A93AA9289F2001299F500C389F71
:10431000500C1124052C000C66087708940149AD57
:104320005AAD241B350BC29EC001C39E900DD29E78
:10433000900D11249C01990F440B550B2DA33EA306
:104340004FA358A74DA55EA5052E000C660B770B55
:104350004DA75EA76FA778AB69A57AA5072E000CBD
:10436000880B990B69A77AA78BA79CA789A99AA9FB
:10437000092E000CAA0BBB0B89AB9AABABABBCAB49
:1043800096010D2C000C440B550B2DAB3EAB4FABE7
:1043900058AF6BA17CA1681579050CF447C0C30127
:1043A000B2012DA53EA54FA558A90E94792751011C
:1043B000A20EB31E6DA17EA18FA198A529A53AA535
:1043C0004BA55CA50E9479272E0D3F1D49A95AA92E
:1043D0006BA97CA9440E551E661E771E8DA19EA159
:1043E000AFA1B8A54DA95EA96FA978AD840F951F9F
:1043F000A61FB71F8DA39EA3AFA3B8A72A153B0581
:104400002CF49A2D8B2D5901292F382F2A193B096D
:104410002F5F3F4F02E010E0A401B50186EF92E06C
:104420000E948C0A5FEF851A950AB3CF0E94B90EDD
:1044300061E070E080E090E00E949D1775E0C71A8F
:10444000D1085ACE60ED77E080E090E00E949D17A1
:104450000E94EA0F81E080930A0321E030E030936C
:104460000903209308033093070320930603109257
:104470000303109202031092050310920403809329
:104480000D0300E010E00A30110511F460E201C0F4
:10449000602F86EF92E00E94D8070F5F1F4F011533
:1044A00081E0180781F70E94B90E60ED77E080E0A7
:1044B00090E00E949D170E94EA0F81E080930A031A
:1044C00001E010E010930903009308031093070321
:1044D0000093060310920303109202031092050347
:1044E0001092040367E275E086EF92E00E947C136D
:1044F0001092070310920603109309030093080318
:104500002AE043E050E060E070E086EF92E00E9435
:104510000A13E091F602F091F7020190F081E02D8C
:104520006EE286EF92E009952AE041E050E060E01B
:1045300070E086EF92E00E940A132AE044E050E027
:1045400060E070E086EF92E00E940A1369E671E095
:1045500086EF92E00E94F51282E0F82EF0920A03B4
:1045600010930903009308031093070300930603B5
:1045700064E275E086EF92E00E94D11220E14FEEF6
:104580005EEB6DEA7EED86EF92E00E940A1369E62B
:1045900071E086EF92E00E94F5120E94B90E60ED84
:1045A00077E080E090E00E949D170E94EA0FF09271
:1045B0000A03109309030093080310930703009361
:1045C00006038AE090E09093030380930203109225
:1045D0000503109204036BE475E086EF92E00E94FD
:1045E0007C130E94B90E64E670E080E090E00E94C7
:1045F0009D178091120390911303892B59F06091BC
:104600002C0370912D0380912E0390912F030E9413
:104610004A0D16C08091100390911103892B31F03F
:1046200080912A0390912B030E94190CE09124039E
:10463000F0912503908180912903809589238083BF
:1046400062E088E395E00E940E0E60E086EF92E063
:104650000E94211860E086EF92E00E9421186FE02E
:1046600086EF92E00E94211863E085E395E00E94C6
:104670000E0E8091120390911303892B59F06091D3
:1046800030037091310380913203909133030E9483
:104690004A0D11C0E0912403F0912503908180918F
:1046A0002903892B80838091100390911103892B1A
:1046B00011F00E94180C60ED77E080E090E00E941D
:1046C0009D170E94941168EE73E080E090E00E94D4
:1046D0009D178091120390911303892B59F06091DB
:1046E0002C0370912D0380912E0390912F030E9433
:1046F0004A0D16C08091100390911103892B31F05F
:1047000080912A0390912B030E94190CE0912403BD
:10471000F0912503908180912903809589238083DE
:1047200062E08DE395E00E940E0E60E086EF92E07D
:104730000E94211860E086EF92E00E9421186FE04D
:1047400086EF92E00E94211863E08AE395E00E94E0
:104750000E0E8091120390911303892B59F06091F2
:1047600030037091310380913203909133030E94A2
:104770004A0D11C0E0912403F091250390818091AE
:104780002903892B80838091100390911103892B39
:1047900011F00E94180C60ED77E080E090E00E943C
:1047A0009D170E94941168EE73E080E090E00E94F3
:1047B0009D178091120390911303892B59F06091FA
:1047C0002C0370912D0380912E0390912F030E9452
:1047D0004A0D16C08091100390911103892B31F07E
:1047E00080912A0390912B030E94190CE0912403DD
:1047F000F0912503908180912903809589238083FE
:1048000062E083E495E00E940E0E6091FC0286EF68
:1048100092E00E94211862E081E495E00E940E0E71
:1048200060E086EF92E00E94211860E086EF92E05F
:104830000E94211867E086EF92E00E94211862E052
:104840008FE395E00E940E0E809112039091130366
:10485000892B59F0609130037091310380913203BC
:10486000909133030E944A0D11C0E0912403F0910E
:104870002503908180912903892B808380911003E7
:1048800090911103892B11F00E94180C60ED77E0D4
:1048900080E090E00E949D17809112039091130395
:1048A000892B59F060912C0370912D0380912E0378
:1048B00090912F030E944A0D16C080911003909191
:1048C0001103892B31F080912A0390912B030E94D0
:1048D000190CE0912403F091250390818091290324
:1048E00080958923808362E089E495E00E940E0E22
:1048F0006091FC0286EF92E00E94211862E087E45A
:1049000095E00E940E0E60E086EF92E00E94211872
:1049100060E086EF92E00E94211867E086EF92E067
:104920000E94211862E085E495E00E940E0E8091BD
:10493000120390911303892B59F060913003709109
:10494000310380913203909133030E944A0D11C0CC
:10495000E0912403F0912503908180912903892B14
:1049600080838091100390911103892B11F00E9494
:10497000180C60ED77E080E090E00E949D170E94A7
:10498000941168EE73E080E090E00E949D170E9411
:10499000EA0F8091000390910103AC01405151094D
:1049A00057FF02C04F5F5F4F559547958091FE02BC
:1049B0009091FF02BC016051710977FF02C06F5FE7
:1049C0007F4F75956795E0E1EE2EF12C00E110E048
:1049D00021E635E086EF92E00E94E2110E94B90ED6
:1049E00068EE73E080E090E00E949D1761E086EF42
:1049F00092E00E94841868EE73E080E090E00E94EC
:104A00009D1760E086EF92E00E94841868EE73E0E4
:104A100080E090E00E949D178E010F5F1F4FDE0126
:104A200012965D01FAE09F2EA0EF8A2EB5E04B2E84
:104A3000512C612C712CC090FE02D090FF020D2CE5
:104A4000000CEE08FF08B2EFCB16BFEFDB06EB065B
:104A5000FB0684F00E944927A7019601215F3F4F82
:104A60004F4F5F4F0E947927DC01CB010F97A109BF
:104A7000B10904C081EF9FEFAFEFBFEFF801808372
:104A8000D5018C920E944927A30192010E947927A7
:104A90006B017C01BFEFCB1ADB0AEB0AFB0AF801C2
:104AA000C2826DE575E085E092E00E94D112D801E6
:104AB0004C91042E000C550B660B770B77FF05C04D
:104AC000CB01BA010E94531305C02AE085E092E0B1
:104AD0000E940A1368E575E085E092E00E94D11219
:104AE000F5014081042E000C550B660B770B77FF08
:104AF00005C0CB01BA010E94531305C02AE085E02E
:104B000092E00E940A1362E575E085E092E00E945F
:104B1000D112F7FE05C0C701B6010E94531307C0AA
:104B20002AE0B701A60185E092E00E940A1369E637
:104B300071E085E092E00E94F5129A94F3E0AF0EE6
:104B4000B11C0D5F1F4F911076CF9E01215E3F4F2C
:104B500038A32F8FAE014F5D5F4F5AA349A390EF4B
:104B6000392E25E0422E512C612C712C0E94EA0F27
:104B7000BE016F5F7F4F6B01D60111964C9111976B
:104B8000042E000C550B6C91062E000C770B80E167
:104B9000E82EF12C00E110E021E635E086EF92E00E
:104BA0000E94E211B3E0CB0ED11CEF8DF8A1CE161E
:104BB000DF0611F70E94B90E68EC70E080E090E02B
:104BC0000E949D179E012D5F3F4F7901AE014E5F00
:104BD0005F4F6A01D7019C91F6018081890F808324
:104BE000082E000C990B20910003309101038217CD
:104BF0009307ACF12091FE023091FF024901330F7F
:104C0000AA08BB08F2EF8F16FFEF9F06AF06BF069C
:104C100084F00E944927A5019401215F3F4F4F4F27
:104C20005F4F0E947927DC01CB010F97A109B109E1
:104C300004C081EF9FEFAFEFBFEFF70132978083A2
:104C4000D6013C920E944927A30192010E94792734
:104C5000DC01CB010196A11DB11DF7018083F3E0BA
:104C6000CF0ED11C23E0E20EF11C49A15AA1E4169B
:104C7000F50609F0AFCF7ACF222733272C193D094B
:104C8000C501ABA1BCA18A1B9B0B9AA789A7F10107
:104C9000EE19FF09FAABE9AB17017B01BAAFA9AF77
:104CA000BCA2ABA2BCAEABAE1EA61DA697CA82E349
:104CB00091E09093F7028093F60280911403909113
:104CC0001503009711F00C9455280895E5E0F2E0E3
:104CD0001382128248EE53E060E070E04483558313
:104CE000668377838EE091E09183808385EC90E00A
:104CF0009587848784EC90E09787868780EC90E0A6
:104D0000918B808B81EC90E0938B828B82EC90E096
:104D1000958B848B86EC90E0978B868B118E128E10
:104D2000138E148EE2EAF2E0168217821086118644
:104D3000128613861486158616861786108A118A9F
:104D4000128A138A148A158AAAEEB2E013961C926C
:104D50001E92129714964D935D936D937C931797C3
:104D600080E291E011969C938E93E6EFF2E013823D
:104D7000128220E830E03583248380E490E097833A
:104D800086833187208793878287158A15861486C4
:104D90001786168681E0848B2FEF3FEF338B228BB3
:104DA000318B208B868B178A118E108E82E391E0D7
:104DB00091838083138E128EB58FA48F178E168EDB
:104DC0008FEF83A384A385A386A384E087A380E5D4
:104DD00084AB15AA80E89AE1A6E0B0E086AB97AB79
:104DE000A0AFB1AF80EA96E8A1E0B0E082AF93AFA8
:104DF000A4AFB5AF08958F929F92AF92BF92CF921A
:104E0000DF92EF92FF92CF93DF93EC01688179817B
:104E10008A819B81611571058105910521F464E208
:104E200079ED8BE597E02DE133EF41E050E00E9412
:104E3000792749015A019B01AC01A7EAB1E40E941C
:104E400098276B017C01ACEEB4EFA50194010E94A0
:104E5000A627DC01CB018C0D9D1DAE1DBF1DB7FF2C
:104E600003C00197A109B04888839983AA83BB83B3
:104E7000BC01CD019F77DF91CF91FF90EF90DF9044
:104E8000CF90BF90AF909F908F9008950E94FB2687
:104E9000089580E091E00E94FB2608956093000150
:104EA0007093010180930201909303010895A1E2A0
:104EB0001A2EAA1BBB1BFD010DC0AA1FBB1FEE1F94
:104EC000FF1FA217B307E407F50720F0A21BB30BDF
:104ED000E40BF50B661F771F881F991F1A9469F75B
:104EE00060957095809590959B01AC01BD01CF01B7
:104EF0000895052E97FB1EF400940E94902757FDFD
:104F000007D00E94572707FC03D04EF40C9490273B
:104F100050954095309521953F4F4F4F5F4F0895E5
:104F200090958095709561957F4F8F4F9F4F089515
:104F30000E94AB27A59F900DB49F900DA49F800D5C
:104F4000911D11240895B7FF0C9498270E9498276B
:104F5000821B930B0895A29FB001B39FC001A39F32
:104F6000700D811D1124911DB29F700D811D1124A2
:104F7000911D0895EE0FFF1F0590F491E02D099407
:104F8000CF93DF938230910510F482E090E0E091BE
:104F90003B03F0913C0320E030E0C0E0D0E03097EC
:104FA00011F14081518148175907C0F0481759073E
:104FB00061F482819381209719F09B838A832BC0AF
:104FC00090933C0380933B0326C02115310519F0D3
:104FD0004217530718F49A01BE01DF01EF01028066
:104FE000F381E02DDCCF2115310509F1281B390BA8
:104FF0002430310590F412968D919C911397611590
:10500000710521F0FB019383828304C090933C03DC
:1050100080933B03FD01329644C0FD01E20FF31F74
:1050200081939193225031092D933C933AC0209162
:10503000390330913A03232B41F42091060130913A
:10504000070130933A0320933903209104013091F2
:1050500005012115310541F42DB73EB740910801F6
:1050600050910901241B350BE0913903F0913A036B
:10507000E217F307A0F42E1B3F0B2817390778F02F
:10508000AC014E5F5F4F2417350748F04E0F5F1F8E
:1050900050933A03409339038193919302C0E0E027
:1050A000F0E0CF01DF91CF9108950F931F93CF933D
:1050B000DF93009709F48CC0FC01329713821282AF
:1050C00000913B0310913C030115110581F42081EF
:1050D0003181820F931F2091390330913A032817B1
:1050E000390779F5F0933A03E093390371C0D80199
:1050F00040E050E0AE17BF0750F412962D913C915E
:105100001397AD012115310509F1D901F3CF9D01A7
:10511000DA013383228360817181860F971F8217A2
:10512000930769F4EC0128813981260F371F2E5F20
:105130003F4F318320838A819B8193838283452BD8
:1051400029F4F0933C03E0933B0342C01396FC9395
:10515000EE931297ED01499159919E01240F351F4D
:10516000E217F30771F480819181840F951F0296F5
:1051700011969C938E938281938113969C938E9328
:105180001297E0E0F0E0D80112968D919C91139770
:10519000009719F0F8018C01F6CF8D919C91980140
:1051A0002E5F3F4F820F931F2091390330913A03B6
:1051B0002817390769F4309729F410923C031092AC
:1051C0003B0302C01382128210933A030093390307
:1051D000DF91CF911F910F91089581E090E0F894B5
:1051E0000C94F928DC0101C06D9341505040E0F768
:1051F000089515E0C1E8D5E004C0FE010E94BA2779
:0C5200002196C238D107C9F7F894FFCFFF
:10520C000100000000003D03800000000000F813C6
:10521C00BB0D90133F14C1139F13B3130000000078
:10522C00DE0BAE0B0E0C880BA60B970B890B00003C
:10523C000000D807BB0D0E0C0D0C3A16AB0AA40AD5
:10524C007C0A980A8C0AAC0A7B0AAD058418AB154B
:10525C00EF15A20984090D09AE08564D4450565F4E
:0C526C00317C315F564D4450560D0A0055
:107800000C94343C0C94513C0C94513C0C94513CE1
:107810000C94513C0C94513C0C94513C0C94513CB4
:107820000C94513C0C94513C0C94513C0C94513CA4
:107830000C94513C0C94513C0C94513C0C94513C94
:107840000C94513C0C94513C0C94513C0C94513C84
:107850000C94513C0C94513C0C94513C0C94513C74
:107860000C94513C0C94513C11241FBECFEFD8E036
:10787000DEBFCDBF11E0A0E0B1E0ECE9FFE702C060
:1078800005900D92A230B107D9F712E0A2E0B1E065
:1078900001C01D92AD30B107E1F70E942D3D0C945F
:1078A000CC3F0C94003C982F959595959595959582
:1078B000905D8F708A307CF0282F295A8091C0000B
:1078C00085FFFCCF9093C6008091C00085FFFCCF60
:1078D0002093C6000895282F205DF0CF982F809127
:1078E000C00085FFFCCF9093C6000895EF92FF92F1
:1078F0000F931F93EE24FF2487018091C00087FD22
:1079000017C00894E11CF11C011D111D81E4E8164B
:1079100082E4F8068FE0080780E0180770F3E09132
:107920000401F091050109958091C00087FFE9CF1E
:107930008091C6001F910F91FF90EF9008950E94D3
:10794000763C982F8091C00085FFFCCF9093C600B5
:1079500091362CF490330CF09053892F089597555D
:10796000892F08951F930E949F3C182F0E949F3CCF
:107970001295107F810F1F9108951F93182F882350
:1079800021F00E94763C1150E1F71F9108951F935A
:10799000182F0E94763C803249F0809103018F5F5E
:1079A000809303018530C1F01F9108958091C0003C
:1079B00085FFFCCF84E18093C6008091C00085FFE5
:1079C000FCCF1093C6008091C00085FFFCCF80E102
:1079D0008093C6001F910895E0910401F091050184
:1079E00009951F9108950E94763C803241F0809164
:1079F00003018F5F80930301853081F008958091AA
:107A0000C00085FFFCCF84E18093C6008091C00058
:107A100085FFFCCF80E18093C6000895E0910401CA
:107A2000F09105010995089540E951E08823A1F0FE
:107A30002D9A28EE33E0FA013197F1F721503040CA
:107A4000D1F72D9828EE33E0FA013197F1F7215064
:107A50003040D1F7815061F708953F924F925F9285
:107A60006F927F928F929F92AF92BF92CF92DF924E
:107A7000EF92FF920F931F93CF93DF93000080E16B
:107A80008093C4001092C50088E18093C10086E015
:107A90008093C2005098589A259A81E00E94143D24
:107AA00024E1F22E9EE1E92E85E9D82E0FE0C02ECA
:107AB00010E1B12EAA24A394B1E49B2EA6E58A2E50
:107AC000F2E57F2EE0E26E2E79E4572E63E5462E36
:107AD00050E5352E0E94763C8033B1F18133B9F107
:107AE000803409F46FC0813409F476C0823409F41B
:107AF00085C0853409F488C0803531F1823521F1A3
:107B0000813511F1853509F485C0863509F48DC0BC
:107B1000843609F496C0843709F403C1853709F423
:107B200072C1863709F466C0809103018F5F80932C
:107B30000301853079F6E0910401F0910501099582
:107B40000E94763C803351F60E94F33CC3CF0E94E2
:107B5000763C803249F78091C00085FFFCCFF092DF
:107B6000C6008091C00085FFFCCF9092C600809136
:107B7000C00085FFFCCF8092C6008091C00085FFC9
:107B8000FCCF7092C6008091C00085FFFCCF609250
:107B9000C6008091C00085FFFCCF5092C600809146
:107BA000C00085FFFCCF4092C6008091C00085FFD9
:107BB000FCCF3092C6008091C00085FFFCCFB09210
:107BC000C60088CF0E94763C863808F4BDCF0E945C
:107BD000763C0E94F33C7ECF0E94763C803809F4CC
:107BE0009CC0813809F40BC1823809F43CC1883942
:107BF00009F48FC080E00E94C73C6CCF84E10E94F2
:107C0000BD3C0E94F33C66CF85E00E94BD3C0E94D3
:107C1000F33C60CF0E94763C809306010E94763C44
:107C2000809307010E94F33C55CF0E94763C80333D
:107C300009F41DC183E00E94BD3C80E00E94C73C66
:107C400049CF0E94763C809309020E94763C809343
:107C5000080280910C028E7F80930C020E94763C79
:107C6000853409F415C18091080290910902892B8D
:107C700089F000E010E00E94763CF801E85FFE4FDA
:107C800080830F5F1F4F80910802909109020817AF
:107C9000190788F30E94763C803209F045CF809125
:107CA0000C0280FF01C16091060170910701660F0F
:107CB000771F7093070160930601A0910802B091AD
:107CC00009021097C9F0E8E0F1E09B01AD014E0F09
:107CD0005F1FF999FECF32BD21BD819180BDFA9A17
:107CE000F99A2F5F3F4FE417F50799F76A0F7B1F4B
:107CF00070930701609306018091C00085FFFCCF5F
:107D0000F092C6008091C00085FFFCCFB092C60003
:107D1000E1CE83E00E94C73CDDCE82E00E94C73CFA
:107D2000D9CE0E94763C809309020E94763C8093D3
:107D300008028091060190910701880F991F909386
:107D40000701809306010E94763C853409F4A6C0A1
:107D500080910C028E7F80930C020E94763C8032D0
:107D600009F0B8CE8091C00085FFFCCFF092C6002C
:107D7000609108027091090261157105B9F140E046
:107D800050E080910C02A82FA170B82FB27011C0E2
:107D9000BB2309F45CC0E0910601F0910701319624
:107DA000F0930701E09306014F5F5F4F46175707B7
:107DB000E8F4AA2369F3F999FECF209106013091E6
:107DC000070132BD21BDF89A90B58091C00085FFB2
:107DD000FCCF9093C6002F5F3F4F30930701209355
:107DE00006014F5F5F4F4617570718F38091C00099
:107DF00085FDE5CE8091C00085FFF8CFE0CE81E023
:107E00000E94C73C67CE0E94763C803209F08CCE3F
:107E10008091C00085FFFCCFF092C6008091C00029
:107E200085FFFCCFE092C6008091C00085FFFCCFAB
:107E3000D092C6008091C00085FFFCCFC092C600E2
:107E40008091C00085FFFCCFB092C60043CEE09188
:107E50000601F091070194918091C00085FFFCCF4D
:107E60009093C6009CCF80E10E94C73C33CE0E9415
:107E7000763C0E94763C182F0E94763C112309F430
:107E800083C0113009F484C08FE00E94C73C22CE29
:107E900080910C02816080930C02E5CE80910C02EF
:107EA000816080930C0259CF809107018823880F4D
:107EB000880B8A2180930B02809106019091070123
:107EC000880F991F90930701809306018091080203
:107ED00080FF09C080910802909109020196909359
:107EE000090280930802F894F999FECF1127E091D6
:107EF0000601F0910701C8E0D1E08091080290915D
:107F00000902103091F40091570001700130D9F34B
:107F100003E000935700E89500915700017001308D
:107F2000D9F301E100935700E89509901990009169
:107F3000570001700130D9F301E000935700E89534
:107F40001395103498F011270091570001700130FB
:107F5000D9F305E000935700E895009157000170B0
:107F60000130D9F301E100935700E895329602976A
:107F700009F0C7CF103011F00296E5CF112480919F
:107F8000C00085FFB9CEBCCE8EE10E94C73CA2CD19
:0C7F900085E90E94C73C9ECDF894FFCF0D
:027F9C00800063
:040000030000780081
:00000001FF