:100000000C9462000C948A000C948A000C948A0070
:100010000C948A000C948A000C948A000C948A0038
:100020000C948A000C948A000C948A000C948A0028
:100030000C948A000C948A000C948A000C948A0018
:100040000C9425080C948A000C94F3070C94CD07AB
:100050000C948A000C948A000C948A000C948A00F8
:100060000C948A000C948A000000000024002700F1
:100070002A0000000000250028002B0000000008D6
:10008000000201000003040700000000000000005F
:1000900000000000230026002900040404040404D6
:1000A0000404020202020202030303030303010227
:1000B00004081020408001020408102001020408F6
:1000C00010206F0811241FBECFEFD8E0DEBFCDBFD8
:1000D00022E0A4E9B1E001C01D92A439B207E1F722
:1000E00011E0A0E0B1E0E6E4FAE102C005900D9273
:1000F000A439B107D9F710E0C2E6D0E004C02197D7
:10010000FE010E94160DC136D107C9F70E94CE0824
:100110000C94210D0C940000EDE9F1E0A089B18967
:1001200082E08C93A485B5851C92A685B7858FEC5B
:100130008C93108EA489B58986E08C93A289B389AB
:100140008C9180618C93A289B3898C9188608C9307
:10015000A289B3898C9180688C930288F389E02D01
:1001600080818F7D808308958F929F92AF92BF92FE
:10017000CF92DF92EF92FF92CF93DF93A09189020B
:10018000882311F03A2F01C030E080918A0290E07C
:10019000880F991F80579F4FC0908F02D090900278
:1001A000E0909102F090920240E050E0BA01FC0130
:1001B000C591D49128812A2323130FC04A015B01E2
:1001C0002FEF821A920AA20AB20A4C155D056E053B
:1001D0007F0538F4B501A401EACF342F252FCB01D8
:1001E00004C030E020E080E090E0632F722FDF91C8
:1001F000CF91FF90EF90DF90CF90BF90AF909F9006
:100200008F900895CF92DF92EF92FF920F931F93FA
:10021000CF93DF936C017A018B01C0E0D0E0CE1563
:10022000DF0589F0D8016D918D01D601ED91FC912A
:100230000190F081E02DC6010995892B11F47E0112
:1002400002C02196ECCFC701DF91CF911F910F9192
:10025000FF90EF90DF90CF900895089580E090E0B8
:100260000895FC01538D448D252F30E0842F90E0BC
:10027000821B930B541710F0CF96089501970895A1
:10028000FC01918D828D981761F0828DDF01A80F9E
:10029000B11D5D968C91928D9F5F9F73928F90E0C0
:1002A00008958FEF9FEF0895FC01918D828D98172F
:1002B00031F0828DE80FF11D858D90E008958FEF6C
:1002C0009FEF0895FC01918D228D892F90E0805C35
:1002D0009F4F821B91098F73992708958DE991E0B3
:1002E0000E94620121E0892B09F420E0822F089509
:1002F000FC01848DDF01A80FB11DA35ABF4F2C91C3
:10030000848D90E001968F739927848FA689B78991
:100310002C93A089B1898C9180648C93938D848D6A
:10032000981306C00288F389E02D80818F7D808339
:100330000895EF92FF920F931F93CF93DF93EC01F9
:1003400081E0888F9B8D8C8D981305C0E889F98991
:10035000808185FD24C0F62E0B8D10E00F5F1F4FAE
:100360000F731127E02E8C8DE8120CC00FB607FC1E
:10037000FACFE889F989808185FFF5CFCE010E9407
:100380007801F1CF8B8DFE01E80FF11DE35AFF4F8D
:10039000F0820B8FEA89FB898081806207C0EE8939
:1003A000FF896083E889F98980818064808381E0A6
:1003B00090E0DF91CF911F910F91FF90EF90089502
:1003C000CF93DF93EC01888D8823C9F0EA89FB89FC
:1003D000808185FD05C0A889B9898C9186FD0FC0F3
:1003E0000FB607FCF5CF808185FFF2CFA889B989C8
:1003F0008C9185FFEDCFCE010E947801E7CFDF9190
:10040000CF91089580E090E0892B29F00E946E0141
:1004100081110C940000089590E0FC01E458FF4F16
:100420003491FC01E255FF4F2491FC01E656FF4F49
:10043000E491EE2309F43BC0332339F1333091F0DA
:1004400038F43130A9F0323001F584B58F7D12C017
:10045000373091F03830A1F03430B9F48091800019
:100460008F7D03C0809180008F77809380000DC0C6
:1004700084B58F7784BD09C08091B0008F7703C0A9
:100480008091B0008F7D8093B000F0E0EE0FFF1FF1
:10049000EE58FF4FA591B4918FB7F894EC9161118C
:1004A00003C020952E2301C02E2B2C938FBF0895BF
:1004B000CF93DF9390E0FC01E255FF4F2491FC01C4
:1004C000E656FF4F8491882361F190E0880F991FD1
:1004D000FC01E859FF4FC591D491FC01EE58FF4F44
:1004E000A591B491611109C09FB7F89488812095B6
:1004F00082238883EC912E230BC0623061F49FB776
:10050000F8943881822F809583238883EC912E2B59
:100510002C939FBF06C08FB7F894E8812E2B2883B9
:100520008FBFDF91CF9108953FB7F89480919901E3
:1005300090919A01A0919B01B0919C0126B5A89B36
:1005400005C02F3F19F00196A11DB11D3FBFBA2F65
:10055000A92F982F8827820F911DA11DB11DBC01C5
:10056000CD0142E0660F771F881F991F4A95D1F78A
:1005700008958F929F92AF92BF92CF92DF92EF92A7
:10058000FF926B017C010E9494024B015C01C1143B
:10059000D104E104F104F1F00E949402DC01CB01EA
:1005A00088199909AA09BB09883E9340A105B1059C
:1005B00070F321E0C21AD108E108F10888EE880E34
:1005C00083E0981EA11CB11CC114D104E104F10404
:1005D00019F7DDCFFF90EF90DF90CF90BF90AF90F5
:1005E0009F908F9008952FB7F89460919501709126
:1005F000960180919701909198012FBF0895CF9215
:10060000DF92EF92FF920F931F93CF93DF93CDB7BB
:10061000DEB7C054D1400FB6F894DEBF0FBECDBFD9
:100620000E94F30200918B0210918C0220918D02A6
:1006300030918E026B017C01C01AD10AE20AF30AE2
:1006400040EDC41647E0D406E104F10418F48091AB
:100650009302BCC060938B0270938C0280938D02D6
:1006600090938E021092860210928502109284025C
:10067000109283021092820261E0809187020E94B0
:100680000C026AEF70E080E090E00E94B90261E045
:10069000809187020E94580260E0809187020E9448
:1006A0000C0264E170E080E090E00E94B902F894EE
:1006B00061E0809187020E940C028BE990E0019733
:1006C000F1F762E0809187020E94580283E290E095
:1006D0000197F1F780E00E94B400672B682B692B2B
:1006E00021F41092930278943EC081E00E94B400FD
:1006F000672B682B692BA9F38E010F5F1F4F6E01CB
:100700008FEBC81A8EEFD80A780180E00E94B400FF
:10071000F701608371838283938381E00E94B40038
:10072000F7016483758386839783F8E0EF0EF11CED
:10073000EC14FD0451F7789420E030E0F80140819A
:10074000518162817381C480D580E680F780411534
:1007500051056105710529F0C114D104E104F104CA
:1007600021F41092930280E031C0F90183E0F59505
:10077000E7958A95E1F7EE57FD4F8081880F4C157C
:100780005D056E057F0508F4816080832F5F3F4F14
:10079000085F1F4F2832310589F62091860230E02C
:1007A000409182028091830290E0840F911D4091DC
:1007B0008402840F911D40918502840F911D992719
:1007C0002817390771F681E080939302C05CDE4FF1
:1007D0000FB6F894DEBF0FBECDBFDF91CF911F9152
:1007E0000F91FF90EF90DF90CF900895CF92DF921E
:1007F000EF92FF92CF93DF93C82F0E94FF028823CE
:1008000009F448C0909188029B3031F008F442C04E
:100810009551923048F03EC06091840270E080E0D3
:1008200090E00E94620A27C0D09184026D2F6F77FA
:1008300070E080E090E00E94640A20E030E040E850
:1008400053E40E94C30A6B017C0140918502642F2E
:1008500070E080E090E00E94640A9B01AC01C70157
:10086000B6010E94A40B2DEC3CEC4CEC5DE30E9425
:10087000C30AD7FD9058CC2389F026E636E646EE2B
:100880005FE30E94C30A20E030E040E052E40E94AF
:10089000A40B04C060E070E080EC9FE7DF91CF9193
:1008A000FF90EF90DF90CF9008954F925F926F92FC
:1008B0007F928F929F92AF92BF92CF92DF92EF92F0
:1008C000FF920F93CF93DF93CDB7DEB728970FB684
:1008D000F894DEBF0FBECDBF6B017C0149015A0108
:1008E00001110EC026E636E646EE5FE30E94C30A1B
:1008F00020E030E040E052E40E94A40B6B017C0158
:1009000020E030E044E752E4C701B6010E94A40BA6
:100910002B013C0120E030E048E852E4C701B60179
:100920000E94A30B2AE939E949E95FE30E94C30A5F
:100930009B01AC01C301B2010E94A40B2B013C013D
:1009400022E133E840EC5DE3C501B4010E94C30A33
:100950009B01AC01C301B2010E94A40B20E030E076
:1009600040E05FE30E94C30A2B013C0120E030E03D
:100970004EE952E40E94B10C18160CF075C1A701A3
:100980009601C701B6010E94C30A2B013C01A501D3
:100990009401C501B4010E94C30A6D837E838F83D5
:1009A000988721E133E243E050E4C701B6010E9499
:1009B000C30A29E134E849E252E40E94A30B6983A7
:1009C0007A838B839C8326E13BE442E251E4C501B8
:1009D000B4010E94C30A9B01AC0169817A818B81B9
:1009E0009C810E94A40B69837A838B839C8328E477
:1009F00036E246E65EEBC701B6010E94C30AA501D6
:100A000094010E94C30A9B01AC0169817A818B81A8
:100A10009C810E94A40B69837A838B839C8320EE44
:100A20003FE040EE5BEBC301B2010E94C30A9B01B1
:100A3000AC0169817A818B819C810E94A40B6983BE
:100A40007A838B839C8328EF37E840E65DEB6D81EA
:100A50007E818F8198850E94C30A9B01AC016981C8
:100A60007A818B819C810E94A40B69837A838B831A
:100A70009C832CEA3DE041EA5AE3C301B2010E94A3
:100A8000C30AA50194010E94C30A9B01AC016981BC
:100A90007A818B819C810E94A40B69837A838B83EA
:100AA0009C8328EC3FE84FE55AE3C701B6010E945A
:100AB000C30A2D813E814F8158850E94C30A9B0144
:100AC000AC0169817A818B819C810E94A40B69832E
:100AD0007A838B839C8321EF3BE845E056EBC3018F
:100AE000B2010E94C30A2D813E814F8158850E9428
:100AF000C30A9B01AC0169817A818B819C810E9430
:100B0000A40B2B013C0120E030E040E551E4C5019D
:100B1000B4010E945D0A87FF5CC020E030E040EA3B
:100B200052E4C701B6010E94B10C87FD52C020E01B
:100B300030E040EE52E4C701B6010E945D0A18168B
:100B40000CF4A6C0A501940160E070E080E591E49A
:100B50000E94A30B20E030E040E85EE30E94C30A5D
:100B60004B015C0120E030E04EEB52E4C701B601DE
:100B70000E94A30B6B017C0120E030E0A9010E94E0
:100B8000B10C18164CF4A701960160E070E088E8FB
:100B900091E40E94A30B08C020E030E048E851E453
:100BA000C701B6010E94A40B2EE33DEE40E75DE3D2
:100BB0000E94C30A0E94BC0C9B01AC01C501B40198
:100BC0000E94C30A9B01AC01B201C3010E94A30BA6
:100BD00049C020E030E04AEA52E4C501B4010E9475
:100BE000B10C18160CF040C020E030E040EA52E4AE
:100BF000C701B6010E94B10C87FD36C020E030E08D
:100C00004EEA52E4C701B6010E945D0A181664F16B
:100C100020E030E04AEA52E4C501B4010E94A30B8F
:100C20002DEC3CEC4CEC5DE30E94C30A4B015C01F3
:100C3000A701960160E070E08EEA92E40E94A30BA7
:100C40002DEC3CEC4CE45EE30E94C30A9B01AC013A
:100C5000C501B4010E94C30A9B01AC01B201C301EA
:100C60000E94A40B2B013C0101110FC020E030E0D9
:100C700040E052E4B201C3010E94A30B26E838E32E
:100C80004EE05FE30E94C30A0FC0B201C3010CC073
:100C900020E030E04AEA52E4C501B4010E94B10C00
:100CA00018160CF4ABCFE0CF6B017C01C701B60185
:100CB00028960FB6F894DEBF0FBECDBFDF91CF915F
:100CC0000F91FF90EF90DF90CF90BF90AF909F90EB
:100CD0008F907F906F905F904F9008956115710590
:100CE00079F0FB0101900020E9F73197AF01461B35
:100CF000570BDC01ED91FC910280F381E02D09940A
:100D000080E090E00895CF93DF93BC018DE991E0FE
:100D10000E946E06EC016DE271E08DE991E00E94A7
:100D20006E068C0F9D1FDF91CF9108954F925F92B9
:100D30006F927F92EF92FF920F931F93CF93DF9367
:100D4000CDB7DEB7A1970FB6F894DEBF0FBECDBF0B
:100D50007C01FA01CB0119A2223008F42AE08E01AD
:100D60000F5D1F4F422E512C612C712CBF01A3012E
:100D700092010E94810BF901CA01015011096A30E8
:100D800014F4605D01C0695CD8016C93232B242BA3
:100D9000252B61F7B801C7010E946E06A1960FB618
:100DA000F894DEBF0FBECDBFDF91CF911F910F91A1
:100DB000FF90EF907F906F905F904F9008954F92CB
:100DC0005F926F927F928F929F92AF92BF92CF92DB
:100DD000DF92EF92FF926B017C01B42E9B01AC017C
:100DE0000E94FC0C882319F062E171E027C0260103
:100DF0003701E89477F82FEF3FEF4FE75FE7C30144
:100E0000B2010E94FC0C81110DC02FEF3FEF4FE7A4
:100E10005FE7C301B2010E945D0A18161CF466E187
:100E200071E00CC02FEF3FEF4FE75FE4C701B60161
:100E30000E94B10C181694F46AE171E08DE991E01A
:100E4000FF90EF90DF90CF90BF90AF909F908F90EA
:100E50007F906F905F904F900C946E062FEF3FEF56
:100E60004FE75FECC701B6010E945D0A87FDE4CF42
:100E700020E030E0A901C701B6010E945D0A87FFAA
:100E800011C0E0919D01F0919E010190F081E02D53
:100E90006DE28DE991E009954C01F7FAF094F7F8CD
:100EA000F09402C0812C912CA12C60E070E080E0D5
:100EB0009FE3AB1441F020E030E040E251E40E94B7
:100EC000100CA394F6CF9B01AC01C701B6010E94A0
:100ED000A40B2B013C010E94820C6B017C010E943F
:100EE000620A9B01AC01C301B2010E94A30B2B015A
:100EF0003C012AE0B701A6018DE991E00E94960627
:100F00007C01E80CF91CBB2069F0E0919D01F09197
:100F10009E010190F081E02D6EE28DE991E009954E
:100F2000E80EF91EDB2CDD2031F120E030E040E25C
:100F300051E4C301B2010E94C30A2B013C010E948B
:100F4000820C4B01A12CB12C2AE0B501A4018DE942
:100F500091E00E949606E80EF91EC501B4010E94B8
:100F6000620A9B01AC01C301B2010E94A30B2B01D9
:100F70003C01DA94D8CFC701FF90EF90DF90CF907B
:100F8000BF90AF909F908F907F906F905F904F90A9
:100F900008950C946E060E941C0D1F920F920FB6BE
:100FA0000F9211242F933F934F935F936F937F93EF
:100FB0008F939F93AF93BF93EF93FF938DE991E04E
:100FC0000E947801FF91EF91BF91AF919F918F9116
:100FD0007F916F915F914F913F912F910F900FBE35
:100FE0000F901F9018951F920F920FB60F92112419
:100FF0002F938F939F93EF93FF93E091AD01F09127
:10100000AE018081E091B301F091B40182FD12C084
:1010100090818091B6018F5F8F732091B701821705
:1010200051F0E091B601F0E0E356FE4F958F8093CA
:10103000B60101C08081FF91EF919F918F912F9117
:101040000F900FBE0F901F9018951F920F920FB622
:101050000F9211242F933F938F939F93AF93BF933E
:101060008091950190919601A0919701B09198017E
:101070003091940123E0230F2D3720F40196A11D18
:10108000B11D05C026E8230F0296A11DB11D2093B6
:1010900094018093950190939601A0939701B0934A
:1010A00098018091990190919A01A0919B01B09132
:1010B0009C010196A11DB11D8093990190939A0105
:1010C000A0939B01B0939C01BF91AF919F918F9191
:1010D0003F912F910F900FBE0F901F901895EDE943
:1010E000F1E01382128288EE93E0A0E0B0E0848306
:1010F0009583A683B78384E091E09183808385EC18
:1011000090E09587848784EC90E09787868780ECD1
:1011100090E0918B808B81EC90E0938B828B82ECC2
:1011200090E0958B848B86EC90E0978B868B118E6C
:10113000128E138E148EEAE3F2E016821782108666
:101140001186128613861486158616861786108ACF
:10115000118A128A138A148A158AA2E8B2E083E0FF
:1011600015968C9315978BE016968C931697E1EB5A
:10117000F0E0E4911796EC931797EDE9F0E0E49135
:101180001896EC93189740E85EE360E070E01D96D7
:101190004D935D936D937C9350970895CF93DF9318
:1011A000CDB7DEB728970FB6F894DEBF0FBECDBF20
:1011B000789484B5826084BD84B5816084BD85B532
:1011C000826085BD85B5816085BD80916E0081603E
:1011D00080936E00109281008091810082608093E4
:1011E00081008091810081608093810080918000E6
:1011F0008160809380008091B10084608093B10011
:101200008091B00081608093B00080917A0084600A
:1012100080937A0080917A00826080937A00809136
:101220007A00816080937A0080917A008068809350
:101230007A001092C10010927E0210927F021092EA
:1012400080021092810210923C0210923D02109294
:101250003E0210923F020E94F3026B017C014B019F
:101260005C0188EB880E8BE0981EA11CB11C0E94CB
:10127000F3026C157D058E059F0528F086169706EE
:10128000A806B906A0F78DE991E090937D028093BE
:101290007C020E948C000E94F30260933C027093D7
:1012A0003D0280933E0290933F026EE171E0809197
:1012B0007C0290917D020E94C9070E94F3026B019B
:1012C0007C014B015C01EAE08E0E911CA11CB11C5B
:1012D0000E94F3026C157D058E059F0528F0861689
:1012E0009706A806B906A0F781E0809350020E94F5
:1012F0008C0080E391E00E94830662E08091870287
:101300000E94580280E398EFAFEFBFEF80938B020B
:1013100090938C02A0938D02B0938E0260ED77E0E3
:1013200080E090E00E94B9020E94FF028823B1F1A0
:10133000809188028B3041F188F18551823070F5BF
:101340006091820270E080E090E00E94620A20E0FA
:1013500030E040E853E40E94C30A6B017C018091B5
:101360008302682F70E080E090E00E94640A9B0195
:10137000AC01C701B6010E94A40B2DEC3CEC4CEC77
:101380005DE30E94C30A07C06091820270E080E0C2
:1013900090E00E94620A6B017C0106C0C12CD12C36
:1013A00080ECE82E8FE7F82E80E00E94F6032B01F8
:1013B0003C0181E00E94F6034B015C01A70196010C
:1013C000C701B6010E94FC0C811110C0A30192015B
:1013D000C301B2010E94FC0C811108C0A501940157
:1013E000C501B4010E94FC0C882319F08CE391E044
:1013F0005FC001E0A7019601C501B4010E94550438
:1014000069837A838B839C8300E0A7019601C301E3
:10141000B2010E9455046D837E838F8398876CE5AB
:1014200071E08DE991E00E94C90742E0C701B60171
:101430000E94DF0667E671E08DE991E00E94C9072E
:101440006BE671E08DE991E00E94C90742E0C301BB
:10145000B2010E94DF0669E771E08DE991E00E9428
:10146000C90742E0C501B4010E94DF066EE771E0E2
:101470008DE991E00E94C90763E871E08DE991E090
:101480000E94C90742E06D817E818F8198850E940C
:10149000DF0669E771E08DE991E00E94C90742E04B
:1014A00069817A818B819C810E94DF0680E991E0CD
:1014B0000E9483060E94020231CF0E949F0A08F414
:1014C00081E00895E89409C097FB3EF490958095DB
:1014D000709561957F4F8F4F9F4F9923A9F0F92FFA
:1014E00096E9BB279395F695879577956795B79578
:1014F000F111F8CFFAF4BB0F11F460FF1BC06F5F5E
:101500007F4F8F4F9F4F16C0882311F096E911C06F
:10151000772321F09EE8872F762F05C0662371F090
:1015200096E8862F70E060E02AF09A95660F771FA4
:10153000881FDAF7880F9695879597F90895990F80
:101540000008550FAA0BE0E8FEEF16161706E8078D
:10155000F907C0F012161306E407F50798F0621BAE
:10156000730B840B950B39F40A2661F0232B242B83
:10157000252B21F408950A2609F4A140A6958FEFA2
:10158000811D811D08950E94D60A0C94470B0E946C
:10159000390B38F00E94400B20F0952311F00C9489
:1015A000300B0C94360B11240C947B0B0E94580BBF
:1015B00070F3959FC1F3950F50E0551F629FF001A6
:1015C000729FBB27F00DB11D639FAA27F00DB11DBF
:1015D000AA1F649F6627B00DA11D661F829F222748
:1015E000B00DA11D621F739FB00DA11D621F839FCF
:1015F000A00D611D221F749F3327A00D611D231FA5
:10160000849F600D211D822F762F6A2F11249F57F2
:1016100050409AF0F1F088234AF0EE0FFF1FBB1FF5
:10162000661F771F881F91505040A9F79E3F5105B4
:1016300080F00C94300B0C947B0B5F3FE4F3983EEE
:10164000D4F3869577956795B795F795E7959F5F5E
:10165000C1F7FE2B880F911D9695879597F90895F0
:1016600097F99F6780E870E060E008959FEF80EC55
:10167000089500240A9416161706180609060895F8
:1016800000240A9412161306140605060895092E5E
:101690000394000C11F4882352F0BB0F40F4BF2BCD
:1016A00011F460FF04C06F5F7F4F8F4F9F4F08950D
:1016B00057FD9058440F551F59F05F3F71F0479503
:1016C000880F97FB991F61F09F3F79F087950895E8
:1016D000121613061406551FF2CF4695F1DF08C007
:1016E000161617061806991FF1CF86957105610524
:1016F00008940895E894BB2766277727CB0197F9CC
:101700000895A1E21A2EAA1BBB1BFD010DC0AA1F42
:10171000BB1FEE1FFF1FA217B307E407F50720F05A
:10172000A21BB30BE40BF50B661F771F881F991FD5
:101730001A9469F760957095809590959B01AC011E
:10174000BD01CF0108955058BB27AA270E94BB0BAB
:101750000C94470B0E94390B38F00E94400B20F08C
:1017600039F49F3F19F426F40C94360B0EF4E095EF
:10177000E7FB0C94300BE92F0E94580B58F3BA1773
:10178000620773078407950720F079F4A6F50C9497
:101790007A0B0EF4E0950B2EBA2FA02D0B01B90198
:1017A00090010C01CA01A0011124FF27591B99F0D7
:1017B000593F50F4503E68F11A16F040A22F232FE3
:1017C000342F4427585FF3CF469537952795A79533
:1017D000F0405395C9F77EF41F16BA0B620B730BDA
:1017E000840BBAF09150A1F0FF0FBB1F661F771F4B
:1017F000881FC2F70EC0BA0F621F731F841F48F400
:10180000879577956795B795F7959E3F08F0B0CF88
:101810009395880F08F09927EE0F9795879508956F
:101820000E94240C0C94470B0E94400B58F00E941D
:10183000390B40F029F45F3F29F00C94300B511123
:101840000C947B0B0C94360B0E94580B68F3992375
:10185000B1F3552391F3951B550BBB27AA276217AC
:101860007307840738F09F5F5F4F220F331F441FB9
:10187000AA1FA9F335D00E2E3AF0E0E832D09150ED
:101880005040E695001CCAF72BD0FE2F29D0660FDA
:10189000771F881FBB1F261737074807AB07B0E81D
:1018A00009F0BB0B802DBF01FF2793585F4F3AF023
:1018B0009E3F510578F00C94300B0C947B0B5F3FEE
:1018C000E4F3983ED4F3869577956795B795F795A9
:1018D0009F5FC9F7880F911D9695879597F9089591
:1018E000E1E0660F771F881FBB1F6217730784072D
:1018F000BA0720F0621B730B840BBA0BEE1F88F73C
:10190000E09508950E94600B88F09F5798F0B92FDA
:101910009927B751B0F0E1F0660F771F881F991F24
:101920001AF0BA95C9F714C0B13091F00E947A0B41
:10193000B1E008950C947A0B672F782F8827B85F51
:1019400039F0B93FCCF3869577956795B395D9F77C
:101950003EF490958095709561957F4F8F4F9F4F86
:1019600008950E949F0A08F48FEF089519F416F461
:101970000C94360B0C94010D0E94600BB8F3992364
:10198000C9F3B6F39F57550B87FF0E940F0D002434
:10199000A0E640EA900180585695979528F4805C1F
:1019A000660F771F881F20F026173707480730F487
:1019B000621B730B840B202931294A2BA69517949F
:1019C0000794202531254A2758F7660F771F881F6F
:1019D00020F026173707480730F4620B730B840B8F
:1019E000200D311D411DA09581F7B901842F91581B
:1019F000880F9695879508950E949F0A880B990BEA
:101A000008959F3F31F0915020F487957795679521
:101A1000B795880F911D9695879597F908959150E0
:101A20005040660F771F881FD2F70895EE0FFF1FF3
:101A30000590F491E02D099481E090E0F8940C94E5
:061A4000210DF894FFCF18
:101A460000000000990102013101E001620140013C
:101A560054016E616E00696E66006F766600564DC3
:101A66004450565F317C315F564D4450560D0A0046
:101A76004448547878207465737421004661696C13
:101A8600656420746F20726561642066726F6D20D4
:101A96004448542073656E736F72210048756D69F2
:101AA600646974793A20002025090054656D7065D3
:101AB6007261747572653A2000202A432000202A3C
:101AC6004609004865617420696E6465783A2000AD
:041AD600202A46007C
:00000001FF
