:100000000C9468000C9490000C9490000C94900058
:100010000C9490000C9490000C9490000C94900020
:100020000C9490000C9490000C9490000C94900010
:100030000C9490000C9490000C9490000C94900000
:100040000C941A050C9490000C94E8040C94C204CF
:100050000C9490000C9490000C9490000C949000E0
:100060000C9490000C949000005EBCE2613FDD8334
:10007000C29C7E20A3FD1F41009D23BE46DB65F888
:100080008C11AF32CA57E974000000002500280027
:100090002B0000000000240027002A0000000000C0
:1000A00023002600290004040404040404040202BA
:1000B00002020202030303030303010204081020E7
:1000C0004080010204081020010204081020640589
:1000D00011241FBECFEFD8E0DEBFCDBF22E0A4E9E0
:1000E000B1E001C01D92A43AB207E1F711E0A0E02F
:1000F000B1E0E2E6F6E102C005900D92A439B10745
:10010000D9F710E0C8E6D0E004C02197FE010E94B4
:10011000240BC736D107C9F70E9423060C942F0B76
:100120000C940000EDE9F1E0A089B18982E08C93A4
:10013000A485B5851C92A685B7858FEC8C93108E0F
:10014000A489B58986E08C93A289B3898C9180615A
:100150008C93A289B3898C9188608C93A289B3898E
:100160008C9180688C930288F389E02D80818F7D4B
:1001700080830895CF92DF92EF92FF920F931F93A7
:10018000CF93DF936C017A018B01C0E0D0E0CE15F4
:10019000DF0589F0D8016D918D01D601ED91FC91BB
:1001A0000190F081E02DC6010995892B11F47E01A3
:1001B00002C02196ECCFC701DF91CF911F910F9123
:1001C000FF90EF90DF90CF900895089580E090E049
:1001D0000895FC01538D448D252F30E0842F90E04D
:1001E000821B930B541710F0CF9608950197089532
:1001F000FC01918D828D981761F0828DDF01A80F2F
:10020000B11D5D968C91928D9F5F9F73928F90E050
:1002100008958FEF9FEF0895FC01918D828D9817BF
:1002200031F0828DE80FF11D858D90E008958FEFFC
:100230009FEF0895FC01918D228D892F90E0805CC5
:100240009F4F821B91098F73992708958DE991E043
:100250000E941A0121E0892B09F420E0822F0895E1
:10026000FC01848DDF01A80FB11DA35ABF4F2C9153
:10027000848D90E001968F739927848FA689B78922
:100280002C93A089B1898C9180648C93938D848DFB
:10029000981306C00288F389E02D80818F7D8083CA
:1002A0000895EF92FF920F931F93CF93DF93EC018A
:1002B00081E0888F9B8D8C8D981305C0E889F98922
:1002C000808185FD24C0F62E0B8D10E00F5F1F4F3F
:1002D0000F731127E02E8C8DE8120CC00FB607FCAF
:1002E000FACFE889F989808185FFF5CFCE010E9498
:1002F0003001F1CF8B8DFE01E80FF11DE35AFF4F66
:10030000F0820B8FEA89FB898081806207C0EE89C9
:10031000FF896083E889F98980818064808381E036
:1003200090E0DF91CF911F910F91FF90EF90089592
:10033000CF93DF93EC01888D8823C9F0EA89FB898C
:10034000808185FD05C0A889B9898C9186FD0FC083
:100350000FB607FCF5CF808185FFF2CFA889B98958
:100360008C9185FFEDCFCE010E943001E7CFDF9168
:10037000CF91089580E090E0892B29F00E9426011A
:1003800081110C94000008953FB7F8948091990171
:1003900090919A01A0919B01B0919C0126B5A89BD8
:1003A00005C02F3F19F00196A11DB11D3FBFBA2F07
:1003B000A92F982F8827820F911DA11DB11DBC0167
:1003C000CD0142E0660F771F881F991F4A95D1F72C
:1003D00008958F929F92AF92BF92CF92DF92EF9249
:1003E000FF926B017C010E94C4014B015C01C114AE
:1003F000D104E104F104F1F00E94C401DC01CB015D
:1004000088199909AA09BB09883E9340A105B1053D
:1004100070F321E0C21AD108E108F10888EE880ED5
:1004200083E0981EA11CB11CC114D104E104F104A5
:1004300019F7DDCFFF90EF90DF90CF90BF90AF9096
:100440009F908F9008952FB7F894609195017091C7
:10045000960180919701909198012FBF0895DC013A
:1004600080E0615090F09D919827E92FEF70F0E0C7
:10047000E859FF4F249192959F70E92FF0E0E858DA
:10048000FF4FE4918E2F8227ECCF0895FC019081DD
:100490000180F281E02DF8948181892B8183228172
:1004A000892F809528232283A7E0B0E01197F1F7E8
:1004B000218182238183A3E2B0E01197F1F780814B
:1004C0007894EFECF0E03197F1F7982381E009F4AC
:1004D00080E00895FC0190810180F281E02D892F58
:1004E000809560FF12C0F8942281822382838181EB
:1004F000892B8183A3E2B0E01197F1F78281982BD9
:100500009283789487ED90E011C0F8942281822341
:1005100082838181892B8183AFEFB0E01197F1F75E
:100520008281982B928378948FE090E00197F1F785
:100530000895CF92DF92EF92FF920F931F93CF9384
:10054000DF931F92CDB7DEB76C01E62E08E010E016
:10055000FF24F39461E08F2D8E2109F460E0C60141
:1005600049830E946A02FF0C01501109498101155B
:10057000110581F7411115C0F894D6011196ED913E
:10058000FC91129791818C9180958923818311969A
:10059000ED91FC91129792818C91809589238283B1
:1005A00078940F90DF91CF911F910F91FF90EF9072
:1005B000DF90CF900895CF92DF92EF92FF920F934A
:1005C0001F93CF93DF931F92CDB7DEB78C01F62E2A
:1005D00040E065E579830E949902CF2C7981D72E7E
:1005E000760188E0E80EF11CF60161916F0140E0B0
:1005F000C8010E949902CE14DF04B1F70F90DF9179
:10060000CF911F910F91FF90EF90DF90CF900895C1
:10061000FC0190810180F281E02DF8948181292FE5
:1006200020958223818378948DE743E050E08150C8
:1006300021F1DA011197F1F730813923C1F3F894F0
:100640008281822382838181892B81837894ABE7A5
:10065000B7E01197F1F7F894818128232183A3E172
:10066000B1E01197F1F78081982381E009F080E0F3
:100670007894E3E6F6E03197F1F70895AF92BF92F0
:10068000CF92DF92EF92FF920F931F93CF93DF935E
:100690008B01BC0180918802909189020E94DB024B
:1006A00040E06EEB80918802909189020E9499024D
:1006B000E801680189E0C80ED11CA0908802B090C2
:1006C000890288E0E82EF12C01E010E0C5010E94CB
:1006D00046028111102B000F81E0E81AF108B1F7F2
:1006E0001993CC15DD0549F7809188029091890214
:1006F0000E94080391E0813009F090E0892FDF919A
:10070000CF911F910F91FF90EF90DF90CF90BF900E
:10071000AF9008950F931F93CF93DF93CDB7DEB7BC
:1007200029970FB6F894DEBF0FBECDBFFC01208124
:10073000203161F18C0180918802909189020E94A0
:100740000803882309F1BE016F5F7F4FC8010E9433
:100750003E038823C9F068E0CE0101960E942F0273
:100760009985891311C08D818F3361F020F48F3109
:1007700059F489E00CC08F3519F08F3739F004C077
:100780008BE005C08AE003C080E001C08CE02996C0
:100790000FB6F894DEBF0FBECDBFDF91CF911F9192
:1007A0000F910895AF92BF92CF92DF92EF92FF9296
:1007B0000F931F93CF93DF931F92CDB7DEB75C01EA
:1007C000D62EE72EFC018585811105C0C5010E944A
:1007D0000803811106C0F50113861586148680E092
:1007E00065C040E060EFC5010E94990201E0F12C74
:1007F000C12C11E0C5010E944602682FC501698322
:100800000E9446026981613019F48130B9F433C025
:100810004F2D50E068131BC0F5018385181730F485
:10082000E40FF51F8381802349F402C0181731F0CB
:1008300060E0193058F4F501148708C0F501EF0D98
:10084000F11D8381802B838361E009C0C12EF501F6
:10085000E40FF51F9381802F809589238383C50141
:100860000E946A021F5F000F11F4F39401E0F7E0A9
:10087000FF1508F0BFCF113408F4ADCFF501C386E2
:10088000C11002C081E08587F5018381882309F4C6
:10089000A2CFD5011396ED2DFE2D9501255F3F4F7B
:1008A0008D918193A217B307D9F781E00F90DF9163
:1008B000CF911F910F91FF90EF90DF90CF90BF905D
:1008C000AF9008950E942A0B6115710579F0FB0124
:1008D00001900020E9F73197AF01461B570BDC016F
:1008E000ED91FC910280F381E02D099480E090E08D
:1008F00008954F925F926F927F92EF92FF920F93C3
:100900001F93CF93DF93CDB7DEB7A1970FB6F894BF
:10091000DEBF0FBECDBF7C01FA01CB0119A2223090
:1009200008F42AE08E010F5D1F4F422E512C612CDE
:10093000712CBF01A30192010E94340AF901CA017E
:10094000015011096A3014F4605D01C0695CD8017E
:100950006C93232B242B252B61F7B801C7010E9430
:100960006404A1960FB6F894DEBF0FBECDBFDF9131
:10097000CF911F910F91FF90EF907F906F905F90BC
:100980004F9008951F920F920FB60F9211242F933C
:100990003F934F935F936F937F938F939F93AF9307
:1009A000BF93EF93FF938DE991E00E943001FF9197
:1009B000EF91BF91AF919F918F917F916F915F91D7
:1009C0004F913F912F910F900FBE0F901F90189550
:1009D0001F920F920FB60F9211242F938F939F9314
:1009E000EF93FF93E091AD01F091AE018081E09132
:1009F000B301F091B40182FD12C090818091B601E3
:100A00008F5F8F732091B701821751F0E091B6018B
:100A1000F0E0E356FE4F958F8093B60101C08081D0
:100A2000FF91EF919F918F912F910F900FBE0F909B
:100A30001F9018951F920F920FB60F9211242F93AB
:100A40003F938F939F93AF93BF9380919501909124
:100A50009601A0919701B09198013091940123E003
:100A6000230F2D3720F40196A11DB11D05C026E8E6
:100A7000230F0296A11DB11D20939401809395012F
:100A800090939601A0939701B0939801809199015A
:100A900090919A01A0919B01B0919C010196A11D9A
:100AA000B11D8093990190939A01A0939B01B093FB
:100AB0009C01BF91AF919F918F913F912F910F908A
:100AC0000FBE0F901F901895CF93DF931092A00147
:100AD00010929F0188EE93E0A0E0B0E08093A10126
:100AE0009093A201A093A301B093A4018AE091E0A6
:100AF00090939E0180939D0185EC90E09093AA01D4
:100B00008093A90184EC90E09093AC018093AB01B9
:100B100080EC90E09093AE018093AD0181EC90E089
:100B20009093B0018093AF0182EC90E09093B2017A
:100B30008093B10186EC90E09093B4018093B3016F
:100B40001092B6011092B7011092B8011092B9013B
:100B500010924002109241021092420210924302FF
:100B600010924402109245021092460210924702DF
:100B7000109248021092490210924A0210924B02BF
:100B800010924C0210924D0210924E0210924F029F
:100B9000ECEBF0E02491E8EAF0E084918823C1F0E6
:100BA00090E0880F991FFC01EE56FF4FC591D4913C
:100BB000FC01E857FF4FA591B4919FB7F894888145
:100BC000E22FE0958E2388838C91E823EC939FBFDE
:100BD000ECEBF0E0E491E0939602E8EAF0E0E491D7
:100BE000F0E0EE0FFF1FE456FF4F85919491909334
:100BF0009802809397021092A1021092A302109281
:100C0000A202E1EAF2E0129282E0E939F807D9F7AC
:100C100086E992E09093890280938802109286027E
:100C2000109287021092820289E08093830281E011
:100C30008093840280938502109295021092940210
:100C4000DF91CF910895CF93DF93CDB7DEB7619752
:100C50000FB6F894DEBF0FBECDBF789484B5826026
:100C600084BD84B5816084BD85B5826085BD85B550
:100C7000816085BD80916E00816080936E001092CE
:100C80008100809181008260809381008091810049
:100C900081608093810080918000816080938000DA
:100CA0008091B10084608093B1008091B000816038
:100CB0008093B00080917A00846080937A00809164
:100CC0007A00826080937A0080917A0081608093BC
:100CD0007A0080917A00806880937A001092C10037
:100CE00010927E0210927F02109280021092810276
:100CF00010923C0210923D0210923E0210923F026E
:100D00000E9423026B017C014B015C0148EB840EC5
:100D10004BE0941EA11CB11C0E9423026C157D05A2
:100D20008E059F0528F086169706A806B906A0F737
:100D30008DE991E090937D0280937C020E94920065
:100D40000E94230260933C0270933D0280933E0216
:100D500090933F0268E171E080917C0290917D0266
:100D60000E9464040E9423026B017C014B015C0120
:100D70005AE0850E911CA11CB11C0E9423026C1527
:100D80007D058E059F0528F086169706A806B906EC
:100D9000A0F781E0809350020E9492006AE271E025
:100DA0008DE991E00E94640467E271E08DE991E0D1
:100DB0000E946404E0918802F091890213861586EE
:100DC0001486DF011B9633961E92AE17BF07E1F71C
:100DD000109286021092870211E0BE016F5F7F4F72
:100DE00080918802909189020E94D203882309F49D
:100DF00027C167E0CE0101960E942F0298858913D2
:100E0000ECCF80918202811127C08091880290915D
:100E100089020E940803BE016F5F7F4F80918802A4
:100E2000909189020E94DB0240E064EB809188028D
:100E3000909189020E949902809188029091890282
:100E40000E944602F82E80918802909189020E94A9
:100E50000803FF2009F4DCC1F0908302CE01019663
:100E60000E948A038F1518F48091830204C0CE017A
:100E700001960E948A0380938302809186028F5F8D
:100E8000809386028981883261F030F4803149F0A4
:100E9000823209F0A2CF05C08B3319F0823409F0F9
:100EA0009CCF809187028F5F8093870296CFE091DD
:100EB0008302E950E33008F0E6C0F0E0EE0FFF1FD8
:100EC000E050FF4F0081118180918502882309F451
:100ED000ECC0809182028111E8C00E9423024B0184
:100EE0005C016801110FEE08FF0880918802909163
:100EF00089020E944602813009F0C8C061E771E0B2
:100F00008DE991E00E94640467E271E08DE991E06F
:100F10000E94640466E771E08DE991E00E94640438
:100F2000E0918802F0918902138615861486DF010C
:100F30001B96CF0103961E92A817B907E1F7BE01D1
:100F4000665F7F4FCF010E94D203882309F4B4C0AB
:100F500067E0CE010A960E942F0299898913ACC0DE
:100F600080918802909189020E940803882309F4E5
:100F700054C1BE016F5F7F4FCE010A960E943E03AF
:100F8000882309F44AC168E0CE0101960E942F022D
:100F90009985891342C1698188E0689FB001112455
:100FA0008A81282F30E0322F2227330F330F330F5F
:100FB000262B372B8A85803109F02DC1688570E09A
:100FC0008F81AB01481B5109CA019695982F88273C
:100FD000979587950E94FC0A60517109207F53E024
:100FE000220F331F5A95E1F7620F731F613854EED9
:100FF00075070CF461C0072E000C880B990B0E943A
:10100000170920E030E040E05CE30E9476096B01C4
:101010007C01A7019601C701B6010E94F70A882347
:1010200009F451C067E871E08DE991E00E94640421
:1010300068EE73E080E090E00E94E9010E94BA014E
:1010400065E571E08DE991E00E9464048091880279
:10105000909189020E94080340E06CEC8091880224
:10106000909189020E9499024091820264E48091E9
:101070008802909189020E949902809184028823BB
:1010800009F43CCF14CF0EEE12E01ECF0E942302D3
:10109000DC01CB018C199D09AE09BF0988159905A2
:1010A000AA05BB0508F421CF29CFB801110F880B81
:1010B000990B0E94E90122CFC12CD12C8EEFE82E92
:1010C00082ECF82EA6CF46015701E894B7F82FEF2F
:1010D0003FEF4FE75FE7C501B4010E94F70A8111B6
:1010E0000DC02FEF3FEF4FE75FE7C501B4010E944E
:1010F000100918161CF46BE871E096CF2FEF3FEF44
:101100004FE75FE4C701B6010E94F20A18161CF40B
:101110006FE871E089CF2FEF3FEF4FE75FECC7013A
:10112000B6010E94100987FDF3CF20E030E0A9014D
:10113000C701B6010E94100987FF0FC0E0919D0111
:10114000F0919E010190F081E02D6DE28DE991E03A
:101150000995F7FAF094F7F8F0942AE037ED43EAAE
:101160005BE3C701B6010E94570A4B015C010E9474
:10117000C30A6B017C010E9415099B01AC01C501EA
:10118000B4010E94560A4B015C012AE0B701A60196
:101190008DE991E00E947904E0919D01F0919E011A
:1011A0000190F081E02D6EE28DE991E0099520E05B
:1011B00030E040E251E4C501B4010E9476094B01E0
:1011C0005C010E94C30A6B01E12CF12C2AE0B701FB
:1011D000A6018DE991E00E947904C701B6010E9441
:1011E00015099B01AC01C501B4010E94560A20E01B
:1011F00030E040E251E40E9476090E94C30AAB014C
:1012000060E070E02AE08DE991E00E94790410CF5F
:101210001093820221CEB901E9CE60E874EEE6CEE9
:101220000E94520908F481E00895E89409C097FBF0
:101230003EF490958095709561957F4F8F4F9F4FAD
:101240009923A9F0F92F96E9BB279395F6958795F1
:1012500077956795B795F111F8CFFAF4BB0F11F4B4
:1012600060FF1BC06F5F7F4F8F4F9F4F16C088235B
:1012700011F096E911C0772321F09EE8872F762F91
:1012800005C0662371F096E8862F70E060E02AF0D2
:101290009A95660F771F881FDAF7880F96958795BE
:1012A00097F90895990F0008550FAA0BE0E8FEEF93
:1012B00016161706E807F907C0F012161306E4071A
:1012C000F50798F0621B730B840B950B39F40A2613
:1012D00061F0232B242B252B21F408950A2609F4F1
:1012E000A140A6958FEF811D811D08950E94890957
:1012F0000C94FA090E94EC0938F00E94F30920F0DE
:10130000952311F00C94E3090C94E90911240C9431
:101310002E0A0E940B0A70F3959FC1F3950F50E0BF
:10132000551F629FF001729FBB27F00DB11D639F97
:10133000AA27F00DB11DAA1F649F6627B00DA11D3D
:10134000661F829F2227B00DA11D621F739FB00DE3
:10135000A11D621F839FA00D611D221F749F332753
:10136000A00D611D231F849F600D211D822F762FEC
:101370006A2F11249F5750409AF0F1F088234AF0C9
:10138000EE0FFF1FBB1F661F771F881F9150504035
:10139000A9F79E3F510580F00C94E3090C942E0AA6
:1013A0005F3FE4F3983ED4F3869577956795B795BC
:1013B000F795E7959F5FC1F7FE2B880F911D9695D6
:1013C000879597F9089597F99F6780E870E060E046
:1013D00008959FEF80EC089500240A9416161706CE
:1013E00018060906089500240A9412161306140616
:1013F00005060895092E0394000C11F4882352F079
:10140000BB0F40F4BF2B11F460FF04C06F5F7F4F30
:101410008F4F9F4F089557FD9058440F551F59F017
:101420005F3F71F04795880F97FB991F61F09F3FD1
:1014300079F087950895121613061406551FF2CFFA
:101440004695F1DF08C0161617061806991FF1CF4A
:1014500086957105610508940895E894BB27662771
:101460007727CB0197F90895A1E21A2EAA1BBB1B7F
:10147000FD010DC0AA1FBB1FEE1FFF1FA217B30760
:10148000E407F50720F0A21BB30BE40BF50B661F76
:10149000771F881F991F1A9469F76095709580953A
:1014A00090959B01AC01BD01CF0108955058BB2719
:1014B000AA270E946E0A0C94FA090E94EC0938F0DF
:1014C0000E94F30920F039F49F3F19F426F40C949C
:1014D000E9090EF4E095E7FB0C94E309E92F0E947B
:1014E0000B0A58F3BA17620773078407950720F0B1
:1014F00079F4A6F50C942D0A0EF4E0950B2EBA2F74
:10150000A02D0B01B90190010C01CA01A001112409
:10151000FF27591B99F0593F50F4503E68F11A16B5
:10152000F040A22F232F342F4427585FF3CF469546
:1015300037952795A795F0405395C9F77EF41F1668
:10154000BA0B620B730B840BBAF09150A1F0FF0F32
:10155000BB1F661F771F881FC2F70EC0BA0F621F1E
:10156000731F841F48F4879577956795B795F7950E
:101570009E3F08F0B0CF9395880F08F09927EE0FA3
:101580009795879508950E94130A88F09F5798F0C1
:10159000B92F9927B751B0F0E1F0660F771F881F78
:1015A000991F1AF0BA95C9F714C0B13091F00E9492
:1015B0002D0AB1E008950C942D0A672F782F882703
:1015C000B85F39F0B93FCCF3869577956795B395B9
:1015D000D9F73EF490958095709561957F4F8F4F28
:1015E0009F4F08950E94520908F48FEF08950E94BA
:1015F0005209880B990B089597FB072E16F4009457
:1016000007D077FD09D00E94100B07FC05D03EF4EF
:10161000909581959F4F0895709561957F4F08959E
:10162000AA1BBB1B51E107C0AA1FBB1FA617B70708
:1016300010F0A61BB70B881F991F5A95A9F7809524
:101640009095BC01CD010895EE0FFF1F0590F49118
:10165000E02D099481E090E0F8940C942F0BF8941D
:02166000FFCFBA
:101662005E00BC007701000000005101BA00E900F1
:1016720098011A01F8000C01564D4450565F317C16
:10168200315F564D4450560D0A0044616C6C6173D3
:101692002054656D706572617475726520494320CE
:1016A200436F6E74726F6C204C6962726172792042
:1016B20044656D6F002052657175657374696E675C
:1016C2002074656D7065726174757265732E2E2E4D
:1016D20000444F4E450054656D70657261747572B9
:1016E200652069733A20006E616E00696E66006F54
:0416F2007666000018
:00000001FF
