:100000000C9417060C94CB140C94A4140C94FB0BB6
:100010000C943F060C943F060C943F060C943F064C
:100020000C943F060C943F060C943F060C943F063C
:100030000C943F060C943F060C943F060C943F062C
:100040000C945A140C943F060C944D130C942713E3
:100050000C943F060C943F060C943F060C943F060C
:100060000C94BB090C943F0608000000BE92244982
:10007000123EABAAAA2ABECDCCCC4C3E00000080DA
:10008000BEABAAAAAA3E00000000BF000000803F4D
:100090000000000000084178D3BB4387D1133D190D
:1000A0000E3CC3BD4282AD2B3E68EC8276BED98F3A
:1000B000E1A93E4C80EFFFBE01C4FF7F3F0000007E
:1000C000000007634236B79BD8A71A39685618AEA6
:1000D000BAAB558C1D3CB7CC5763BD6DEDFD753E7D
:1000E000F6177231BF000000803F00407A10F35ACB
:1000F00000A0724E18090010A5D4E80000E8764868
:10010000170000E40B54020000CA9A3B000000E113
:10011000F505000080969800000040420F000000A6
:10012000A08601000000102700000000E803000086
:1001300000006400000000000A0000000000010050
:10014000000000002C76D888DC674F0823DFC1DF71
:10015000AE59E1B1B796E5E3E453C63AE651997674
:1001600096E8E6C28426EB898C9B62ED407C6FFCAE
:10017000EFBC9C9F40F2BAA56FA5F490055A2AF7F0
:100180005C936B6CF9676DC11BFCE0E40D47FEF5F9
:1001900020E6B500D0ED902E030094357705008061
:1001A000841E080000204E0A000000C80C333333C0
:1001B000330F986E12831141EF8D2114893BE65560
:1001C00016CFFEE6DB18D1844B381BF77C1D901D43
:1001D000A4BBE424203284725E228100C9F124ECA5
:1001E000A1E53D2700000000240027002A00DB4095
:1001F000A4A62EAFDA0281DA1281DA02818F200002
:10020000A1C8D300408DAED580A800000000250015
:1002100028002B000000600000000000000000002B
:100220000000000000E000000000000000000000EE
:1002300000000001E00000000000000000000000DD
:10024000000001F0000000000000000000000000BD
:100250000003F000000000000000000000000000AB
:1002600007F0000000000000000000000000000790
:10027000F8000000000000000000000000000FF87F
:1002800000000003C0007E000001E0007F0FF800C6
:10029000000003C000FE000001E000FFEFF80000D6
:1002A0000003C000FE000001E000FFFFF8000000B6
:1002B00003C000F00000000F007FFE7FC0000003BD
:1002C000C000F00000000F003FFE7FF83FF1FBCFC1
:1002D000FCFEF3BC3DEFE01FFE7FFF7FFBFFDFFE78
:1002E000FEFFBC3DEFE01FC6FFFF7FFBFFDFFEFE12
:1002F000FFBC3DEFE00FE3C7FE787BC3DE1EF0FFDF
:10030000BC3DEF0007FF87FC787BC3DE1EF0F83CA6
:100310003DEF0001FFFFF0007BC3C01EF0F03C3D4D
:10032000EF0001F37FE03FFBC3CFFEF0F03C3DEF79
:100330000003E33F807FFBC3DFFEF0F03C3DEF00B6
:1003400007E73C00787BC3DE1EF0F03C3DEF000782
:10035000FFBE00787BC3DE1EF0F03C3DEF0007FFE0
:10036000FE00787BC3DE1EF0F03C3DEF000FFFFE89
:10037000007FFBFFDFFEF0F03FFDEFE00FFFFF002F
:100380007FFBFFDFFEF0F03FFDEFE00FF9FF003EE7
:1003900079F9CF9EF0F01F3DE7E01FF1FF0000006C
:1003A0000000000000000000001F80FF007FFFFF32
:1003B000FFFFFFFFFFFFFFE01C007F007FFFFFFF4D
:1003C000FEB46D888D18E000001F007FFFFFFFFE68
:1003D00095AD7DB577E000000F007FFFFFFFFEA524
:1003E000AD9D8D19E0000006007FFFFFFFFEB5AD5B
:1003F000EDB57EE00000000000018000000000007C
:100400000000000003800000000000000000000762
:10041000C000000000000000000007C00000000055
:1004200000000000000FC0000000000000000000FD
:100430001FE00000000000000000001FE0000000BE
:100440000000000000003FE000000000000000008D
:10045000003FF00000000000000000007FF00000FE
:1004600000000000001FF87FF00000000000000006
:100470003FFE7FF0000000000000003FFF7FF00023
:100480000000000000001FFFFBE000000000000073
:10049000000FFFF9FFC00000000000000FFFF9FF90
:1004A000F800000000000007FFF1FFFF000000005F
:1004B000000003FC73FFFF80000000000001FE3F0E
:1004C000FFFF80000000000000FF1E0FFF00000083
:1004D000000000007FFE1FFC000000000000003F45
:1004E000FFFFF8000000000000000FDFFFE0000049
:1004F00000000000001F19FFC00000000000000005
:100500003F3CFF00000000000000007E7CF800007F
:100510000000000000007FFE7C00000000000000E2
:1005200000FFFFFC0000000000000000FFFFFE00D5
:1005300000000000000000FFFFFE000000000000BF
:100540000001FFEFFE0000000000000001FFCFFEF1
:100550000000000000000003FF07FE000000000094
:10056000000003FC07FE0000000000000003F00391
:10057000FE00000000000000018000FE00000000FE
:100580000000000000007E000000000000000000ED
:10059000003E000000000000000000000C00000011
:1005A000000000078000FC000003C000000007807E
:1005B00001FC000003C0000000078001FC000003F4
:1005C000C0000000078001E00000001E00000007DE
:1005D0008001E00000001E007FE3F79FF9FDE7784F
:1005E0007BDFC0FFF7FFBFFDFDFF787BDFC0FFF7BC
:1005F000FFBFFDFDFF787BDFC0F0F787BC3DE1FF6B
:10060000787BDE00F0F787BC3DE1F0787BDE000010
:10061000F787803DE1E0787BDE007FF7879FFDE193
:10062000E0787BDE00FFF787BFFDE1E0787BDE004E
:10063000F0F787BC3DE1E0787BDE00F0F787BC3D5A
:10064000E1E0787BDE00F0F787BC3DE1E0787BDE1F
:1006500000FFF7FFBFFDE1E07FFBDFC0FFF7FFBF5B
:10066000FDE1E07FFBDFC07CF3F39F3DE1E03E7BFB
:10067000CFC00000000000000000000000FFFFFFEE
:10068000FFFFFFFFFFFFFFC0FFFFFFFFFD68DB1164
:100690001A31C0FFFFFFFFFD2B5AFB6AEFC0FFFFBF
:1006A000FFFFFD4B5B3B1A33C0FFFFFFFFFD6B5BA2
:1006B000DB6AFDC05353443133303620616C6C6FBC
:1006C000636174696F6E206661696C656400000126
:1006D00003070F1F3F7F0080C0E0F0F8FCFE000022
:1006E0000000003E5B4F5B3E3E6B4F6B3E1C3E7C12
:1006F0003E1C183C7E3C181C577D571C1C5E7F5EC0
:100700001C00183C1800FFE7C3E7FF00182418007E
:10071000FFE7DBE7FF30483A060E26297929264015
:100720007F050507407F05253F5A3CE73C5A7F3E41
:100730001C1C08081C1C3E7F14227F22145F5F00D3
:100740005F5F06097F017F006689956A606060606F
:100750006094A2FFA29408047E040810207E20105A
:1007600008082A1C08081C2A08081E101010100C63
:100770001E0C1E0C30383E3830060E3E0E060000B1
:1007800000000000005F00000007000700147F1455
:100790007F14242A7F2A12231308646236495620C4
:1007A000500008070300001C2241000041221C00E9
:1007B0002A1C7F1C2A08083E0808008070300008A8
:1007C00008080808000060600020100804023E517C
:1007D00049453E00427F400072494949462141490E
:1007E0004D331814127F1027454545393C4A494975
:1007F0003141211109073649494936464949291EDF
:1008000000001400000040340000000814224114CD
:1008100014141414004122140802015909063E411F
:100820005D594E7C1211127C7F494949363E414147
:1008300041227F4141413E7F494949417F090909A0
:10084000013E414151737F0808087F00417F41000C
:100850002040413F017F081422417F404040407FBB
:10086000021C027F7F0408107F3E4141413E7F0908
:100870000909063E4151215E7F0919294626494949
:10088000493203017F01033F4040403F1F20402089
:100890001F3F4038403F6314081463030478040387
:1008A0006159494D43007F41414102040810200035
:1008B0004141417F040201020440404040400003A6
:1008C00007080020545478407F2844443838444472
:1008D0004428384444287F385454541800087E096A
:1008E0000218A4A49C787F0804047800447D40008A
:1008F0002040403D007F1028440000417F40007CA4
:10090000047804787C080404783844444438FC189B
:1009100024241818242418FC7C080404084854547F
:10092000542404043F44243C4040207C1C204020AC
:100930001C3C4030403C44281028444C9090907C13
:100940004464544C44000836410000007700000025
:100950004136080002010204023C2623263C1EA167
:10096000A161123A4040207A3854545559215555C6
:100970007941225454784221555478402054557975
:10098000400C1E5272123955555559395454545908
:1009900039555454580000457C410002457D4200C1
:1009A00001457C407D1211127DF0282528F07C54F1
:1009B0005545002054547C547C0A097F49324949EA
:1009C00049323A4444443A324A4848303A41412153
:1009D0007A3A42402078009DA0A07D3D4242423DAF
:1009E0003D4040403D3C24FF2424487E4943662B43
:1009F0002FFC2F2BFF0929F620C0887E09032054E5
:100A00005479410000447D413048484A32384040E2
:100A1000227A007A0A0A727D0D19317D2629292F42
:100A200028262929292630484D402038080808085A
:100A300008080808382F10C8ACBA2F102834FA005C
:100A4000007B000008142A142222142A14085500DE
:100A5000550055AA55AA55AAFF55FF55FF0000009D
:100A6000FF00101010FF00141414FF001010FF00FE
:100A7000FF1010F010F0141414FC001414F700FF11
:100A80000000FF00FF1414F404FC141417101F10CE
:100A9000101F101F1414141F00101010F00000007D
:100AA000001F101010101F10101010F01000000088
:100AB000FF101010101010101010FF10000000FF99
:100AC000140000FF00FF00001F10170000FC04F4DA
:100AD00014141710171414F404F40000FF00F71492
:100AE000141414141414F700F71414141714101019
:100AF0001F101F141414F4141010F010F000001F35
:100B0000101F0000001F14000000FC140000F01073
:100B1000F01010FF10FF141414FF141010101F0019
:100B2000000000F010FFFFFFFFFFF0F0F0F0F0FF1B
:100B3000FFFF0000000000FFFF0F0F0F0F0F3844F2
:100B4000443844FC4A4A4A347E02020606027E02C7
:100B50007E0263554941633844443C04407E201E74
:100B60002006027E020299A5E7A5991C2A492A1CA3
:100B70004C7201724C304A4D4D303048784830BC90
:100B8000625A463D3E494949007E0101017E2A2ABA
:100B90002A2A2A44445F444440514A444040444A3B
:100BA00051400000FF0103E080FF000008086B6B6C
:100BB000083612362436060F090F060000181800F2
:100BC00000001010003040FF0101001F01011E0055
:100BD000191D1712003C3C3C3C00000000000000C6
:100BE00000080002010000030407000000000000EC
:100BF00000002200FF210000000000230026002941
:100C000000040404040404040402020202020203B5
:100C100003030303030102040810204080010204BF
:100C20000810200102040810200067235823112413
:100C30001FBECFEFD8E0DEBFCDBF23E0AEE1B2E014
:100C400001C01D92A43DB207E1F712E0A0E0B1E0BF
:100C5000E2EBF9E502C005900D92AE31B107D9F78C
:100C600016E0C6E1D6E004C02197FE010E94B32A37
:100C7000C531D107C9F70E94921C0C94CC2C0C945E
:100C80000000EF92FF920F931F93CF93DF93EC013D
:100C900077FDA4C0EC80FD806E157F050CF09EC032
:100CA00057FF04C0240F351F40E050E08E819F8124
:100CB000FA01E20FF31F8E179F071CF49C01241BFF
:100CC000350B121613060CF089C0922F842F8695CF
:100CD000869586958E9DD0018F9DB00D11246A0F4B
:100CE0007B1FAE8DBF8DA60FB71F4770A9F188E09F
:100CF000841B482F682F70E0FB01EA52F94FE49102
:100D0000281790F4621B71092FEF30E002C035956F
:100D100027956A95E2F7E2230130110541F070F062
:100D20000230110579F05AC00130110519F48C9187
:100D3000E82B0AC00130110508F049C0E0958C91FC
:100D4000E82302C08C91E827EC932C813D81941715
:100D500008F444C0A20FB31FE92FE41BE830F8F0F9
:100D60000230110561F48E2F9C9190959C932C81FB
:100D70003D81A20FB31F88508830B0F70FC081E0CB
:100D80000115110509F480E081959E2F8C932C812B
:100D90003D81A20FB31F98509830C0F7E770EE2343
:100DA000E9F0F0E0E253F94FE4910130110539F038
:100DB00048F00230110591F48C91E82706C08C911F
:100DC000E82B03C0E0958C91E823EC9307C0023038
:100DD000110509F4B7CFAE0DBF1DBECFDF91CF9186
:100DE0001F910F91FF90EF900895FC0177FDB9C01E
:100DF00080859185681779070CF0B3C057FDB1C0A5
:100E000082859385481759070CF0089585898230AB
:100E100079F484819581DC01A61BB70BBD0161507B
:100E2000710986819781DC01A41BB50BAD010EC051
:100E3000833009F084C064277527CB018427952768
:100E40006827792746815781481B590B4150510922
:100E50002130310531F048F12230310509F44AC022
:100E60000895CA0157FD07969C01A3E03595279583
:100E7000AA95E1F7A481B5812A9FC0012B9F900D0F
:100E80003A9F900D1124680F791F068CF78DE02D85
:100E9000E60FF71F4770552781E090E001C0880FEB
:100EA0004A95EAF79081892B48C0CA0157FD0796F9
:100EB0009C0193E0359527959A95E1F7A481B5813A
:100EC0002A9FC0012B9F900D3A9F900D1124680F0F
:100ED000791F068CF78DE02DE60FF71F4770552719
:100EE00081E090E001C0880F4A95EAF780959081F3
:100EF000892323C0CA0157FD07969C0183E03595DD
:100F000027958A95E1F7A481B5812A9FC0012B9F7F
:100F1000900D3A9F900D1124680F791F068CF78D64
:100F2000E02DE60FF71F4770552781E090E001C0E4
:100F3000880F4A95EAF79081892780830895813048
:100F400009F086CF6427752746275727642775271A
:100F500084819581DC01A61BB70BBD01615071092D
:100F600077CF089585ED8093BC008091BC0084FD0F
:100F7000FCCF10922002089540917702262F30E096
:100F8000240F311D21323105DCF420912002243060
:100F9000C9F4FC0180E090E0861758F430917702A4
:100FA0002191DC01AB5ABD4FA30FB11D2C930196CB
:100FB000F3CF80917702680F6093770280E0089505
:100FC00081E0089582E00895089581E090E03091F5
:100FD000220220912102321710F480E090E09195D6
:100FE000819591090895809122029091210289179B
:100FF00030F48F5F8093220280E090E008958FEFBD
:101000009FEF08958091210290E020912202821B9F
:1010100091090895CF92DF92EF92FF920F931F9361
:10102000CF93DF937C01262F972F8A018091CC02EA
:10103000882391F0C62FD72F6E01C40ED51ECC1574
:10104000DD0571F06991D701ED91FC910190F0817E
:10105000E02DC7010995F3CF642F822F0E94BC07B2
:10106000C801DF91CF911F910F91FF90EF90DF901A
:10107000CF900895CF93DF931F92CDB7DEB76983EA
:101080002091CC022223D1F02091C902203240F0DD
:1010900021E030E0FC013383228380E090E015C042
:1010A0008091CA02E82FF0E0EB5CFD4F99819083BC
:1010B0008F5F8093CA028093C90205C061E0CE01B0
:1010C00001960E94BC0781E090E00F90DF91CF91E4
:1010D0000895089580E090E008959091260281E0BF
:1010E000911180E08093260208950F931F93CF9370
:1010F000DF93DC015596EC915597E23071F0E330C7
:10110000E9F0E13079F5FB0114960D90BC91A02D2A
:10111000A41BB50BA21BB30B18C0EC01EC81FD8125
:10112000E61BF70BBF0161507109EE81FF81DF0102
:10113000A41BB50BAD01421B530B14C0DA01EC012B
:10114000EE81FF81E61BF70B3197F7FD0DC0EC0137
:101150004E815F81E417F5073CF4AF01BD010E94A9
:10116000F21402C00E944106DF91CF911F910F91AE
:1011700008950F931F93DC015596EC915597E2303B
:1011800061F0E33009F1E13081F51496ED91FC91C5
:101190001597E41BF50B319723C0DC011496ED91F4
:1011A000FC911597DF01A61BB70BBD01DC0116965C
:1011B000ED91FC911797DF01A41BB50BAD014150D8
:1011C0005109621B730B11C0FA01DC0116964D9197
:1011D0005C911797DA01A61BB70BBD01621B730B5D
:1011E000AB01BF010E9441060CC057FD0AC0DC01E3
:1011F0001696ED91FC9117974E175F0714F40E9415
:10120000F2141F910F91089590913402809133024E
:101210009817A1F04091330250E060E070E02AE0BE
:101220008DEC92E00E942A1C6AE571E08DEC92E060
:101230000E94021C80913302809334020895CF9360
:10124000DF931F92CDB7DEB78091310290913202C9
:10125000019731F49091340280913302981339C090
:101260008091310290913202892B31F490913402B5
:1012700080913302981333C06091230280E090E0A4
:1012800069830E94D3276981681721F080E090E08C
:101290000E94DB276091240281E090E069830E9434
:1012A000D3276981681721F081E090E00E94DB2755
:1012B00081E0809325020E944E146093BA037093DC
:1012C000BB038093BC039093BD030F90DF91CF913C
:1012D000089580912302909124020A9605C080917E
:1012E0002302909124020A97909324028093230270
:1012F000C3CFF89482E00E947F138093300289E08C
:101300000E947F1380932F02809130028130E9F494
:1013100080912F028130C9F480912D028823A9F099
:10132000809133028F5F8093330281E090E090934D
:1013300032028093310210922E0210922D020E94EE
:101340001F090E9404097894089580913002813029
:10135000C1F790912F029111F4CF80932E02F1CF1B
:1013600008958EBD00000DB407FEFDCF8EB5089523
:101370008CBD9DBD08951F920F920FB60F92112440
:101380002F933F934F935F936F937F938F939F938D
:10139000AF93BF93EF93FF938091B900887F80361E
:1013A00009F49CC068F5883209F45BC090F4803180
:1013B00009F454C038F4882309F4F6C0883009F4DD
:1013C0004DC0F6C0883109F44CC0803209F45DC0CC
:1013D000EFC0803409F468C048F4803309F455C084
:1013E000883309F0E5C080939C02D8C0803509F4A9
:1013F0004FC0883509F45DC0883409F0D9C0D6C023
:10140000883909F4C7C0A8F4883709F467C038F4EC
:10141000883609F463C0803709F460C0C9C08838D1
:1014200009F4B8C0803909F45FC0803809F0C0C041
:101430005BC0803B09F486C038F4803A09F466C08A
:10144000883A09F47FC0B4C0803C09F4A7C0883C46
:1014500009F4A4C0883B09F48AC0AAC08091BF02E5
:1014600010C09091BE028091BD02981770F5E09176
:10147000BE0281E08E0F8093BE02F0E0E356FD4F86
:1014800080818093BB0085EC86C080939C028EC0D7
:10149000E091BE0281E08E0F8093BE028091BB007E
:1014A000F0E0E356FD4F80839091BE028091BD0233
:1014B0006EC0E091BE0281E08E0F8093BE028091EB
:1014C000BB00F0E0E356FD4F808380911F02811145
:1014D0006DC081E080931E0284EA61C083E0809346
:1014E000200210929B02CFCF80919B02803208F0A5
:1014F00051C0E0919B0281E08E0F80939B0280910E
:10150000BB00F0E0E558FD4F8083BDCF85EC8093B4
:10151000BC001092200280919B02803230F4E09156
:101520009B02F0E0E558FD4F108260919B0270E055
:10153000E0917902F0917A028BE792E0099510929E
:101540009B0236C084E080932002109278021092B1
:101550007702E0917502F091760209958091770209
:10156000811105C081E08093770210925502E091CD
:10157000780281E08E0F80937802F0E0EB5AFD4F05
:1015800080818093BB0090917802809177029817B8
:1015900008F479CF85E88093BC000AC085EC80937D
:1015A000BC001092200204C010929C020E94B2075C
:1015B000FF91EF91BF91AF919F918F917F916F912B
:1015C0005F914F913F912F910F900FBE0F901F9001
:1015D00018959B01AC0160E074E284EF90E00E94FA
:1015E000912ADA01C9014097A109B109B695A795D9
:1015F000979587958093B80008952091C90290919E
:10160000CB02213208F04AC0809120028111FCCF28
:1016100032E03093200231E030931F023FEF3093ED
:101620009C021092BE022093BD02A5E3B2E04DE9F8
:1016300052E0FA013E2F341B321718F43D913193DA
:10164000F9CF1092BF022091BF02990F922B909375
:10165000BF0290911E02913061F410921E0290918F
:10166000BF029093BB009091BC0093FDF8CF95EC26
:1016700001C095EE9093BC00909120029230E1F36E
:1016800090919C029F3F79F080919C02803241F0C2
:1016900080919C02803331F084E005C081E003C07A
:1016A00082E001C083E01092CA021092C902109237
:1016B000CC0208951F93CF93DF93FC01848D958D09
:1016C000009729F1162FEF0120A131E03093CC02D1
:1016D0002093CB021092CA021092C902DC01ED9154
:1016E000FC910190F081E02D60E009958C8D9D8D3D
:1016F000DC01ED91FC910190F081E02D612F0995C5
:101700008C8D9D8DDF91CF911F910C94FD0AA4A526
:10171000B5A59C9182A9809589238C93828D938D08
:10172000892B31F0862FDF91CF911F910C94B10955
:1017300028E030E080E8A0A5B1A590A9482F462375
:1017400019F04C91942B03C04C91909594239C9349
:10175000A2A5B3A54C9191A9942B9C93A2A5B3A546
:101760004C9191A9909594239C9386952150310991
:1017700011F7DF91CF911F9108951F93CF93DF93BE
:10178000EC01162F8C8D9D8D892B39F06EA97FA9C8
:1017900088AD99AD0E94E90A0FC08A8D9B8D892B77
:1017A00021F08CA99DA90E94B809EEA5FFA5908102
:1017B0008BA9809589238083111102C066EA01C03C
:1017C00067EACE010E945A0B8C8D9D8D892B49F0C2
:1017D0006AAD7BAD8CAD9DADDF91CF911F910C9427
:1017E000E90AEEA5FFA590818BA9892B8083DF9163
:1017F000CF911F9108951F920F920FB60F9211244F
:101800002F933F934F935F936F937F938F939F9308
:10181000AF93BF93EF93FF93F89482E00E947F13FE
:101820008093300289E00E947F1380932F02809181
:101830003002813059F580912F02813039F5809145
:101840002E02882319F18091330281508093330254
:10185000109232021092310210922E0210922D023A
:101860000E941F090E9404097894FF91EF91BF9193
:10187000AF919F918F917F916F915F914F913F9128
:101880002F910F900FBE0F901F90189580913002EE
:101890008111E8CF80912F02813021F780932D02B2
:1018A000E1CFFC01538D448D252F30E0842F90E053
:1018B000821B930B541710F0CF960895019708954B
:1018C000FC01918D828D981761F0828DDF01A80F48
:1018D000B11D5D968C91928D9F5F9F73928F90E06A
:1018E00008958FEF9FEF0895FC01918D828D9817D9
:1018F00031F0828DE80FF11D858D90E008958FEF16
:101900009FEF0895FC01918D228D892F90E0805CDE
:101910009F4F821B91098F73992708958DEC92E058
:101920000E94820C21E0892B09F420E0822F089587
:10193000FC01848DDF01A80FB11DA35ABF4F2C916C
:10194000848D90E001968F739927848FA689B7893B
:101950002C93A089B1898C9180648C93938D848D14
:10196000981306C00288F389E02D80818F7D8083E3
:101970000895EF92FF920F931F93CF93DF93EC01A3
:1019800081E0888F9B8D8C8D981305C0E889F9893B
:10199000808185FD24C0F62E0B8D10E00F5F1F4F58
:1019A0000F731127E02E8C8DE8120CC00FB607FCC8
:1019B000FACFE889F989808185FFF5CFCE010E94B1
:1019C000980CF1CF8B8DFE01E80FF11DE35AFF4F0C
:1019D000F0820B8FEA89FB898081806207C0EE89E3
:1019E000FF896083E889F98980818064808381E050
:1019F00090E0DF91CF911F910F91FF90EF900895AC
:101A0000CF93DF93EC01888D8823C9F0EA89FB89A5
:101A1000808185FD05C0A889B9898C9186FD0FC09C
:101A20000FB607FCF5CF808185FFF2CFA889B98971
:101A30008C9185FFEDCFCE010E94980CE7CFDF910E
:101A4000CF91089580E090E0892B29F00E948E0CC0
:101A500081110C9400000895833081F028F48130C6
:101A600099F08230A1F008958730A9F08830B9F05C
:101A70008430D1F4809180008F7D03C080918000FC
:101A80008F7780938000089584B58F7702C084B5E6
:101A90008F7D84BD08958091B0008F7703C08091C1
:101AA000B0008F7D8093B00008953FB7F894809187
:101AB000C5029091C602A091C702B091C80226B596
:101AC000A89B05C02F3F19F00196A11DB11D3FBF76
:101AD000BA2FA92F982F8827820F911DA11DB11D04
:101AE000BC01CD0142E0660F771F881F991F4A9500
:101AF000D1F7089508950895FC016370658B848182
:101B0000958126813781613039F0633029F09187E2
:101B1000808733872287089531872087938782873C
:101B200008952F923F924F925F926F927F928F9281
:101B30009F92AF92BF92CF92DF92EF92FF920F935C
:101B40001F93CF93DF93CDB7DEB76C970FB6F894A2
:101B5000DEBF0FBECDBF9C8F8B8F5B011A011F8331
:101B60000E833701C982DC0158964D915C915997DB
:101B70004115510509F0E5C018968D919C91199772
:101B8000681779070CF0CAC11A968D919C911B9722
:101B9000281639060CF0C2C18C2C912CFB0136E0C2
:101BA000C39EE00DF11D1124FB87EA871E161F0658
:101BB0000CF0B4C1C40133E0880F991F3A95E1F7E6
:101BC0009D878C87820D931D181619060CF0A6C1EF
:101BD00057968C91811103C0203B08F02F5FAB8D8D
:101BE000BC8DED91FC9111970284F385E02DCD0120
:101BF0002A8F09952A8DB5E02B9F90011124F501BC
:101C00003596FF87EE87BB82AA822501A9014A1972
:101C10005B09598B488BC10108969B8B8A8BE8899D
:101C2000F989E40DF51DE252F94F9491988761010D
:101C30003D822C82A885A0FF13C0AB8DBC8DED9199
:101C4000FC91B981B13031F40484F585E02D2E8109
:101C50003F8116C00684F785E02DEE80FF801AC014
:101C6000EE81FF816E167F06F1F0AB8DBC8DED919C
:101C7000FC91B981B13051F40484F585E02D9301D4
:101C8000A601B2018B8D9C8D09950DC00684F78548
:101C9000E02D7301840194014C815D816A817B8117
:101CA0008B8D9C8D0995E885E695E887FFEFCF1A27
:101CB000DF0A2C813D81280D391D3D832C834A8903
:101CC0005B89C416D50609F0B5CF5FEF451A550AF2
:101CD0008A819B81880D991D9B838A83AE85BF85F0
:101CE0004A165B0609F09BCFEE81FF816E167F06D8
:101CF00009F4F2C0EB8DFC8DA081B181F981F13046
:101D000079F4B5016B5F7F4F5096ED91FC9151973F
:101D1000830128E030E0A1018B8D9C8D0995DCC00A
:101D20006A857B85681979091E96ED91FC911F974C
:101D300073010C851D859401A1018B8D9C8D0995E6
:101D4000CBC0FA0134969491329765917491291B16
:101D5000CB01B7E02B9F800D911D1124FA01259135
:101D600034913B8B2A8BFC01459154915B834A83D0
:101D7000FC013296C490319654915E87329614914C
:101D80003196D4908981823058F0612E012E000C5A
:101D90007708AD2D0D2C000CBB0BB987A88704C0AC
:101DA00019861886612C712CAB8DBC8DED91FC9140
:101DB00011970284F385E02DCD010995B9818B2E11
:101DC000912C689CC001699C900D789C900D112409
:101DD000FC01EA0DFB1DFD87EC871C82712C612C38
:101DE000E12F110FFF0B95012E0F3F1F3B872A8715
:101DF000AC0CB11CA5014E0F5F1F5F8B4E8BC10158
:101E00008D0D911DD7FC9A95998F888F4E856416FC
:101E100008F062C0862D90E048855985480F591F0B
:101E2000489D9001499D300D589D300D1124D901D8
:101E3000A20DB31DB98BA88BAA84BB844C845D848E
:101E4000DC80BA85DB1AE88DF98DE80FF91FFD8B70
:101E5000EC8B8D2D8A0D2E893F89A216B306B9F120
:101E6000877061F48A819B810196EA89FB89AA8146
:101E7000BB81EA0FFB1F74909B838A8377FE20C08F
:101E8000AB8DBC8DED91FC91B981B13061F40484CE
:101E9000F585E02D2E813F814C895D89B5018B8DC3
:101EA0009C8D09950DC00684F785E02DEE80FF809E
:101EB0008401940148895989B2018B8D9C8D0995C3
:101EC000770CEFEFAE1ABE0A480C591CC2CF3C810A
:101ED0003C0D3C8363949ACFAB8DBC8DED91FC910E
:101EE00011970688F789E02DCD016C960FB6F8940E
:101EF000DEBF0FBECDBFDF91CF911F910F91FF903D
:101F0000EF90DF90CF90BF90AF909F908F907F9099
:101F10006F905F904F903F902F9009946C960FB602
:101F2000F894DEBF0FBECDBFDF91CF911F910F910F
:101F3000FF90EF90DF90CF90BF90AF909F908F90E9
:101F40007F906F905F904F903F902F900895AF9249
:101F5000BF92CF92EF92FF920F931F93CF93DF9395
:101F6000EC01262F888D998D009709F040C06A30CA
:101F700059F41D861C862C898E859F8538E0239F09
:101F8000800D911D112441C06D3009F4AAC08E89C5
:101F90008823C1F03C898C859D8546E0349F800D67
:101FA000911D112448855985481759075CF41D86F1
:101FB0001C868E859F8548E0349F800D911D1124DD
:101FC0009F878E87EA88FB88088919894E855F85F7
:101FD0006C857D85CC88CE010E94910D2C898C85E5
:101FE0009D8536E0239F800D911D112442C06A30EB
:101FF00079F41D861C862C89FC013696E4918E8529
:102000009F852E9F800D911D11249F878E8769C00B
:102010006D3009F466C0FC0134963491631708F4FE
:1020200060C03196E491E61708F45BC0FC0132967B
:10203000A590B490462F50E0431B510937E0349FE0
:10204000B001359F700D1124A60EB71EF501329612
:1020500034913196E491332311F0E1110DC0F50173
:102060003496E4912C898C859D85E29F800D911D8D
:1020700011249D878C8735C0F501359644915E8982
:10208000552311F16C89E32FF0E0E40FF11D47FDBA
:10209000FA956E9FD0016F9FB00D11244C855D8520
:1020A0004A0F5B1FE885F985E417F5076CF41D8678
:1020B0001C86FC013696E4918E859F856E9F800D6F
:1020C000911D11249F878E87EA88FB8808891989CA
:1020D0004E855F856C857D85CC88CE010E94910DF3
:1020E000BECF81E090E0DF91CF911F910F91FF90E3
:1020F000EF90CF90BF90AF9008956F927F928F92A4
:102100009F92AF92BF92CF92DF92EF92FF920F9386
:102110001F93CF93DF93EC014B015A016901380102
:10212000E881F9810284F385E02D0995E881F98140
:102130000288F389E02D87019601A501B401CE0143
:102140000995E881F981A501460D571D41505109B6
:102150000288F389E02D9601B401CE010995E8814A
:10216000F9810088F189E02D9301A501B401CE0128
:102170000995E881F981C80CD91CB6016150710933
:102180000088F189E02D9301A501CE010995E88130
:10219000F9810688F789E02DCE01DF91CF911F915B
:1021A0000F91FF90EF90DF90CF90BF90AF909F90F6
:1021B0008F907F906F900994CF92DF92EF92FF9271
:1021C0000F931F93CF93DF9300D000D000D0CDB7F3
:1021D000DEB76C01DC01ED91FC916217730789F4A5
:1021E000041715072CF4942F852FA801092F182FF9
:1021F000041B150B98012F5F3F4F048CF58DE02DCC
:1022000012C04017510709F5261737072CF4962FEF
:10221000872FB901292F382F261B370B2F5F3F4FF0
:10222000068CF78DE02D8701C601099526960FB61D
:10223000F894DEBF0FBECDBFDF91CF911F910F91FC
:10224000FF90EF90DF90CF9008950284F385E02D0A
:102250002D833E834B835C8369837A830995D60102
:10226000ED91FC910488F589E02D2D813E814B8113
:102270005C8169817A81C6010995D601ED91FC9155
:102280000688F789E02DC60126960FB6F894DEBFC2
:102290000FBECDBFDF91CF911F910F91FF90EF90B7
:1022A000DF90CF900994EF92FF920F931F93DC0180
:1022B000ED91FC9111971A960D911C911B97189610
:1022C0002D913C91199700A0F1A1E02D7B0140E0F8
:1022D00050E060E070E009951F910F91FF90EF9042
:1022E00008954F925F926F927F928F929F92AF92DA
:1022F000BF92CF92DF92EF92FF920F931F93CF93F3
:10230000DF9300D0CDB7DEB76C015A013901480127
:10231000DC01ED91FC910284F385E02D69837A83E1
:1023200009956981462E7A81572E640C751CD60159
:10233000ED91FC91461457046CF40088F189E02D6E
:1023400087019401A501B201C6010995BFEF4B1A9F
:102350005B0AEDCF0688F789E02DC6010F900F903C
:10236000DF91CF911F910F91FF90EF90DF90CF9071
:10237000BF90AF909F908F907F906F905F904F90A5
:102380000994AF92BF92CF92DF92EF92FF920F9398
:102390001F93CF93DF9300D000D0CDB7DEB75C01A1
:1023A0006901DC01ED91FC910284F385E02D4B8302
:1023B0005C8369837A830995D501ED91FC916981EC
:1023C0007A819B012C0D3D1D215031090488F5892E
:1023D000E02D78014B815C818A01C5010995D50109
:1023E000ED91FC910688F789E02DC5010F900F90C3
:1023F0000F900F90DF91CF911F910F91FF90EF9071
:10240000DF90CF90BF90AF900994AF92BF92CF92E0
:10241000DF92EF92FF920F931F93CF93DF9300D041
:1024200000D0CDB7DEB75C016901DC01ED91FC9114
:102430000284F385E02D4B835C8369837A8309955D
:10244000D501ED91FC914B815C81C40ED51EB1E0AC
:10245000CB1AD1080488F589E02D780186016981BD
:102460007A819B01C5010995D501ED91FC91068802
:10247000F789E02DC5010F900F900F900F90DF911D
:10248000CF911F910F91FF90EF90DF90CF90BF9071
:10249000AF9009940895EF92FF920F931F93DC0180
:1024A000ED91FC9100A0F1A1E02D09951F910F91F4
:1024B000FF90EF9008950F931F93DC01ED91FC9135
:1024C000068CF78DE02D09951F910F9108950F93BC
:1024D0001F93DC01ED91FC91048CF58DE02D0995A5
:1024E0001F910F910895DC01ED91FC910084F1851D
:1024F000E02D099408952F923F924F925F926F9230
:102500007F928F929F92AF92BF92CF92DF92EF9283
:10251000FF920F931F93CF93DF9300D01F92CDB7FD
:10252000DEB74C017B836A836A0159011701980168
:10253000241B350B37FF03C0319521953109C501A7
:102540004A815B81841B950B97FF03C09195819510
:10255000910951E059838217930714F019820BC037
:102560009A2D8B2D5801092F182F9A818B81DB8290
:10257000CA82C92ED82E8A819B81A816B9065CF41E
:102580009C2D8D2D6801092F182F9A818B81BB827C
:10259000AA82A92EB82E2501AA81BB814A1A5B0AFC
:1025A00038016C187D0877FE03C07194619471083E
:1025B000720157FE03C0BFEFEB1AFB0AF594E794D4
:1025C000C016D1061CF00FEF1FEF1FC001E010E096
:1025D0001CC0D401ED91FC91B9810484F585E02DF6
:1025E0009101BB23C1F04A815B81B601C401099509
:1025F000E618F708F7FE04C0C00ED11EE40CF51C67
:10260000EA81FB813196FB83EA834A815B81A416D0
:10261000B506FCF604C0A6016A817B81E7CF0F9066
:102620000F900F90DF91CF911F910F91FF90EF903E
:10263000DF90CF90BF90AF909F908F907F906F90E2
:102640005F904F903F902F9008950E94B02C1F9262
:102650000F920FB60F9211242F933F934F935F93D6
:102660006F937F938F939F93AF93BF93EF93FF935A
:102670008DEC92E00E94980CFF91EF91BF91AF9189
:102680009F918F917F916F915F914F913F912F918A
:102690000F900FBE0F901F9018951F920F920FB6BC
:1026A0000F9211242F938F939F93EF93FF93E091B9
:1026B000DD02F091DE028081E091E302F091E4021C
:1026C00082FD12C090818091E6028F5F8F7320910E
:1026D000E702821751F0E091E602F0E0E353FD4F8C
:1026E000958F8093E60201C08081FF91EF919F91C9
:1026F0008F912F910F900FBE0F901F901895CF9331
:10270000DF93282F30E0F901E252F44F8491F90170
:10271000EB5EF34FD491F901EF5FF34FC491CC23FB
:1027200091F081110E942C0DEC2FF0E0EE0FFF1FB5
:10273000E950F44FA591B491EC91ED2381E090E044
:1027400021F480E002C080E090E0DF91CF91089515
:102750001F93CF93DF93282F30E0F901E252F44F1B
:102760008491F901EB5EF34FD491F901EF5FF34FE0
:10277000C491CC23C9F0162F81110E942C0DEC2F8F
:10278000F0E0EE0FFF1FE65FFD4FA591B4918FB70C
:10279000F894111105C09C91ED2FE095E92302C03A
:1027A000EC91ED2BEC938FBFDF91CF911F910895AA
:1027B000CF93DF9390E0FC01EB5EF34F2491FC019B
:1027C000EF5FF34F8491882361F190E0880F991FA8
:1027D000FC01EC51FE4FC591D491FC01E65FFD4F29
:1027E000A591B491611109C09FB7F8948881209593
:1027F00082238883EC912E230BC0623061F49FB753
:10280000F8943881822F809583238883EC912E2B36
:102810002C939FBF06C08FB7F894E8812E2B288396
:102820008FBFDF91CF9108958F929F92AF92BF9209
:10283000CF92DF92EF92FF926B017C010E94550DC7
:102840004B015C01C114D104E104F104F1F00E94D8
:10285000550DDC01CB0188199909AA09BB09883EED
:102860009340A105B10570F321E0C21AD108E10837
:10287000F10888EE880E83E0981EA11CB11CC114DB
:10288000D104E104F10419F7DDCFFF90EF90DF9060
:10289000CF90BF90AF909F908F9008952FB7F894EE
:1028A0006091C1027091C2028091C3029091C402F2
:1028B0002FBF08951F920F920FB60F9211242F93DE
:1028C0003F938F939F93AF93BF938091C102909159
:1028D000C202A091C302B091C4023091C00223E0B1
:1028E000230F2D3720F40196A11DB11D05C026E848
:1028F000230F0296A11DB11D2093C0028093C10237
:102900009093C202A093C302B093C4028091C50207
:102910009091C602A091C702B091C8020196A11D74
:10292000B11D8093C5029093C602A093C702B093D5
:10293000C802BF91AF919F918F913F912F910F90BE
:102940000FBE0F901F9018951F920F920FB60F9207
:1029500011242F933F934F935F936F937F938F93A4
:102960009F93AF93BF93EF93FF93E0910201F09198
:1029700003010995FF91EF91BF91AF919F918F91C5
:102980007F916F915F914F913F912F910F900FBE6B
:102990000F901F9018951F920F920FB60F9211244F
:1029A0002F933F934F935F936F937F938F939F9357
:1029B000AF93BF93EF93FF93E0910001F09101017A
:1029C0000995FF91EF91BF91AF919F918F917F9169
:1029D0006F915F914F913F912F910F900FBE0F908C
:1029E0001F9018950F931F93CF93DF9377FF04C029
:1029F000260F371F60E070E0DC011496CD91DC916A
:102A00001597FB01E20FF31FCE17DF071CF49E01A1
:102A1000261B370B121613060CF046C0FA0157FDA1
:102A20003796DF01E3E0B595A795EA95E1F7AC9F0E
:102A3000F001AD9FF00DBC9FF00D11246E0F7F1FB4
:102A4000DC015E96ED91FC915F97E60FF71F4770F2
:102A5000552781E090E001C0880F4A95EAF7482F9A
:102A60000130110539F078F002301105E9F42E0F2C
:102A70003F1F13C02E0F3F1FE217F307A9F08081FD
:102A8000842B8193F9CF80952E0F3F1FE217F30718
:102A900059F0908198239193F9CFE217F30721F031
:102AA000808184278193F9CFDF91CF911F910F917E
:102AB00008958F929F92AF92BF92CF92DF92EF9242
:102AC000FF92CF93DF93A0917103882311F03A2FE7
:102AD00001C030E08091720390E0880F991F895007
:102AE000944FC0907703D0907803E0907903F090F2
:102AF0007A0340E050E0BA01FC01C591D4912881ED
:102B00002A2323130FC04A015B012FEF821A920A76
:102B1000A20AB20A4C155D056E057F0538F4B501B1
:102B2000A401EACF342F252FCB0104C030E020E0F0
:102B300080E090E0632F722FDF91CF91FF90EF90B4
:102B4000DF90CF90BF90AF909F908F900895CF92DD
:102B5000DF92EF92FF920F931F93CF93DF936C015D
:102B60007A018B01C0E0D0E0CE15DF0589F0D801F5
:102B70006D918D01D601ED91FC910190F081E02DD8
:102B8000C6010995892B11F47E0102C02196ECCF74
:102B9000C701DF91CF911F910F91FF90EF90DF90D0
:102BA000CF9008950F931F93CF93DF93EC0188810B
:102BB0009981009729F02A813B812617370788F4ED
:102BC0008B016F5F7F4F0E94E62B009761F0998326
:102BD00088831B830A832C813D81232B11F4FC0104
:102BE000108281E001C080E0DF91CF911F910F91B1
:102BF0000895EF92FF920F931F93CF93DF93FC0101
:102C0000248135816115710511F480E019C04115E9
:102C10005105A9F07B01EC018A01020F131FB801D5
:102C20000E94D215882389F3288139818C819D8166
:102C3000B701820F931F0E94C52C1D830C8381E076
:102C4000DF91CF911F910F91FF90EF900895CF9357
:102C5000DF93EC0188819981009711F00E944E2B3F
:102C6000198218821D821C821B821A82DF91CF91E9
:102C700008952F923F924F925F926F927F928F9220
:102C80009F92AF92BF92CF92DF92EF92FF920F93FB
:102C90001F93CF93DF93CDB7DEB728970FB6F89485
:102CA000DEBF0FBECDBF4C017C836B8358874F8343
:102CB00081E090E05C01A41AB50ACA019195819562
:102CC0009109AC01440F551F5A83498318015FEFE6
:102CD000251A350A3B012101C12CD12C822F81708C
:102CE0008D8322702E83EF81F885CE16DF060CF0DF
:102CF00071C0EF80F884B7FC0AC091E0E91AF108CE
:102D0000E981FA813296FA83E983AE0EBF1EFFEFA6
:102D1000CF1ADF0AC601880F991F0196A80EB91EA7
:102D2000EC14FD0454F14D81442391F09701220FDE
:102D3000331F220D331D01E010E04B815C814E19E1
:102D40005F09B601680D791D8CE793E00E94671258
:102D50005E81552391F09701220F331F220D331D01
:102D600001E010E04B815C814E195F09B4016C19E0
:102D70007D098CE793E00E9467128F819885E816A1
:102D8000F906F9F09D81992361F001E010E09201CC
:102D9000A3016F817885680D791D8CE793E00E940F
:102DA0006712EE81EE2369F0B4014F815885641BF0
:102DB000750B01E010E09201A3018CE793E00E9403
:102DC000671251E0651A710882E0480E511CF886BE
:102DD000EF8289CF28960FB6F894DEBF0FBECDBF25
:102DE000DF91CF911F910F91FF90EF90DF90CF90E7
:102DF000BF90AF909F908F907F906F905F904F901B
:102E00003F902F9008952F923F924F925F926F9232
:102E10007F928F929F92AF92BF92CF92DF92EF926A
:102E2000FF920F931F93CF93DF937C016B01EA0115
:102E300081E090E05C01A41AB50A66247724641A44
:102E4000750A660C771C00E010E088248394912CAE
:102E5000822F8470582E822F8270482E822F887085
:102E6000382E2170222E0C171D070CF079C0B7FCEC
:102E700006C0219782E0680E711CA60CB71C0F5F7C
:102E80001F4F82E0880E911CA80CB91C5520C1F080
:102E900021E030E0A6014C0F5D1FB8016E0D7F1DD3
:102EA0008CE793E00E94731221E030E0A8014C0D02
:102EB0005D1DB7016C0F7D1F8CE793E00E947312BC
:102EC0004420C1F021E030E0A6014C1B5D0BB801AD
:102ED0006E0D7F1D8CE793E00E94731221E030E0BD
:102EE000A601401B510BB7016C0F7D1F8CE793E0CF
:102EF0000E9473123320C1F021E030E0A8014C0D94
:102F00005D1DB7016C1B7D0B8CE793E00E94731273
:102F100021E030E0A6014C0F5D1FB701601B710B73
:102F20008CE793E00E947312222009F49CCF21E0E9
:102F300030E0A601401B510BB7016C1B7D0B8CE7E9
:102F400093E00E94731221E030E0A6014C1B5D0B60
:102F5000B701601B710B8CE793E00E94731283CF63
:102F6000DF91CF911F910F91FF90EF90DF90CF9065
:102F7000BF90AF909F908F907F906F905F904F9099
:102F80003F902F900895CF92DF92EF92FF920F9390
:102F90001F93CF93DF93CDB7DEB7C054D1400FB6A8
:102FA000F894DEBF0FBECDBF0E944E140091730394
:102FB0001091740320917503309176036B017C01AD
:102FC000C01AD10AE20AF30A40EDC41647E0D4065B
:102FD000E104F10418F480917B03BCC06093730397
:102FE00070937403809375039093760310926E032D
:102FF00010926D0310926C0310926B0310926A038F
:1030000061E080916F030E94A8136AEF70E080E096
:1030100090E00E94141461E080916F030E94D81325
:1030200060E080916F030E94A81364E170E080E08B
:1030300090E00E941414F89461E080916F030E9464
:10304000A8138BE990E00197F1F762E080916F039C
:103050000E94D81383E290E00197F1F780E00E948C
:103060005915672B682B692B21F410927B037894F8
:103070003EC081E00E945915672B682B692BA9F38C
:103080008E010F5F1F4F6E018FEBC81A8EEFD80AAB
:10309000780180E00E945915F70160837183828373
:1030A000938381E00E945915F701648375838683B9
:1030B0009783F8E0EF0EF11CEC14FD0451F77894BF
:1030C00020E030E0F8014081518162817381C48049
:1030D000D580E680F780411551056105710529F01D
:1030E000C114D104E104F10421F410927B0380E0C7
:1030F00031C0F90183E0F595E7958A95E1F7E65946
:10310000FC4F8081880F4C155D056E057F0508F426
:10311000816080832F5F3F4F085F1F4F283231054A
:1031200089F620916E0330E040916A0380916B0331
:1031300090E0840F911D40916C03840F911D40918C
:103140006D03840F911D99272817390771F681E0C7
:1031500080937B03C05CDE4F0FB6F894DEBF0FBEDA
:10316000CDBFDF91CF911F910F91FF90EF90DF9036
:10317000CF900895FF920F931F93CF93DF93EC01AD
:10318000F62E8091980390919903009709F451C00D
:1031900020919C0331E03093CC022093CB0210921B
:1031A000CA021092C902DC01ED91FC910190F081FC
:1031B000E02D60E009958E01D1E0CF0DFF24F3945E
:1031C0008091980390919903C01761F1D032C8F0B3
:1031D0000E94FD0A80919C03F092CC028093CB0266
:1031E0001092CA021092C90280919803909199039B
:1031F000DC01ED91FC910190F081E02D60E00995FA
:10320000D1E08091980390919903F8016491DC01D9
:10321000ED91FC910190F081E02D0995DF5F0F5F4A
:103220001F4FCECFDF91CF911F910F91FF900C9444
:10323000FD0AE091A803F091A90320818091AE03DB
:103240008095822380838E01C60FC017C1F1F801DB
:1032500084912091960330919703232B19F00E94BB
:10326000B1092AC028E030E040E8E091A403F091E1
:10327000A5039091AC03542F582319F05081952B3E
:1032800003C05081909595239083E091A603F0911F
:10329000A70350819091AD03952B9083E091A603F5
:1032A000F091A70350819091AD0390959523908361
:1032B000469521503109C9F60F5F1F4FC6CFDF91E8
:1032C000CF911F910F91FF900895CF92DF92EF92CF
:1032D000FF920F931F93CF93DF931F92CDB7DEB76B
:1032E0008091980390919903892B59F06091B203D2
:1032F0007091B3038091B4039091B5030E94E90AE1
:1033000016C08091960390919703892B31F080919C
:10331000B0039091B1030E94B809E091AA03F09123
:10332000AB0390818091AF0380958923808365E012
:1033300082EF9BE00E94BA186091800361508CE795
:1033400093E00E945A0B2091820330918303C901BC
:10335000079697FD079623E0959587952A95E1F7BF
:103360002091800330918103829F8001839F100D03
:10337000929F100D1124E0909A03F0909B0380918E
:103380009803909199030E0D1F1D009709F44EC0EC
:1033900020919C0331E03093CC022093CB02109219
:1033A000CA021092C902DC01ED91FC910190F081FA
:1033B000E02D60E40995670121E0FF24F3948091FA
:1033C000980390919903C016D10669F12032C8F094
:1033D0000E94FD0A80919C03F092CC028093CB0264
:1033E0001092CA021092C902809198039091990399
:1033F000DC01ED91FC910190F081E02D60E40995F4
:1034000021E08091980390919903F60161916F01F9
:10341000DC01ED91FC910190F081E02D298309956B
:1034200029812F5FCCCF0E94FD0A43C0E091A80301
:10343000F091A90390818091AE03892B8083E016DF
:10344000F106B9F1F70181917F0120919603309146
:103450009703232B19F00E94B109F1CF28E030E047
:1034600040E8E091A403F091A5039091AC03542FA0
:10347000582319F05081952B03C0508190959523C6
:103480009083E091A603F091A70350819091AD0342
:10349000952B9083E091A603F091A7035081909122
:1034A000AD03909595239083469521503109C9F637
:1034B000C6CF8091980390919903892B99F06091E0
:1034C000B6037091B7038091B8039091B9030F9040
:1034D000DF91CF911F910F91FF90EF90DF90CF90F0
:1034E0000C94E90AE091AA03F091AB0390818091DA
:1034F000AF03892B80838091960390919703892B4A
:1035000059F00F90DF91CF911F910F91FF90EF90A5
:10351000DF90CF900C94B0090F90DF91CF911F9165
:103520000F91FF90EF90DF90CF900895209182034C
:1035300030918303C901079697FD079623E095957F
:1035400087952A95E1F72091800330918103829F2E
:10355000A001839F500D929F500D112460E070E0F8
:1035600080919A0390919B030C94BE2C3F924F92B2
:103570005F926F927F928F929F92AF92BF92CF9203
:10358000DF92EF92FF920F931F93CF93DF9300D0C0
:1035900000D000D0CDB7DEB72C013B014A01590164
:1035A000C901079697FD07969C0193E035952795ED
:1035B0009A95E1F73A832983C12CD12CE12CF12C87
:1035C000312CC701860D971D9C838B83E016F10675
:1035D000CCF51E821D82ED81FE81EA15FB0554F5B6
:1035E0008D819E8187709927892B11F0330C0EC035
:1035F000ED81FE81F7FD379683E0F595E7958A9595
:10360000E1F7EC0DFD1DE80DF91D349037FE0CC0FF
:1036100021E030E04B815C816D817E81640D751D00
:103620008CE793E00E9473128D819E8101969E83A8
:103630008D83D1CFFFEFEF1AFF0A29813A81C20EA5
:10364000D31EBFCF26960FB6F894DEBF0FBECDBFF8
:10365000DF91CF911F910F91FF90EF90DF90CF906E
:10366000BF90AF909F908F907F906F905F904F90A2
:103670003F900895CF93DF93EC016115710561F0E0
:10368000FB0101900020E9F73197AF01461B570B72
:103690000E94F915811103C0CE010E942716CE01A8
:1036A000DF91CF910895CF93DF93EC01FB0144812B
:1036B0005581608171810E94F915811103C0CE018D
:1036C0000E942716CE01DF91CF910895EF92FF92CD
:1036D0000F931F93CF93DF938C017B0161157105CD
:1036E00069F0FB0101900020E9F73197EF01C61B5B
:1036F000D70BBE010E94D215811104C0C8010E94DF
:10370000271608C0F801D583C483B7018081918151
:103710000E94C52CC801DF91CF911F910F91FF909E
:10372000EF900895FC01808191810C944E2BEF92D3
:10373000FF920F931F93CF93DF93CDB7DEB7A1977F
:103740000FB6F894DEBF0FBECDBF7C01CB01BA012E
:10375000F70111821082138212821582148242E0D4
:10376000420F8E010F5F1F4F0E94FF23BC01C70154
:103770000E94661BA1960FB6F894DEBF0FBECDBFA8
:10378000DF91CF911F910F91FF90EF900895EF92ED
:10379000FF920F931F93CF93DF93EC01198218824E
:1037A0001B821A821D821C826115710521F18B0119
:1037B000FB0101900020E9F731977F01E61AF70A33
:1037C000B7010E94D215811109C0CE01DF91CF91BE
:1037D0001F910F91FF90EF900C942716FD82EC82C1
:1037E000B80188819981DF91CF911F910F91FF904E
:1037F000EF900C94C52CDF91CF911F910F91FF900A
:10380000EF9008956115710579F0FB01019000209A
:10381000E9F73197AF01461B570BDC01ED91FC91A5
:103820000280F381E02D099480E090E00895CF9329
:10383000DF93BC018CE793E00E94021CEC016AE577
:1038400071E08CE793E00E94021C8C0F9D1FDF91BA
:10385000CF9108954F925F926F927F92EF92FF9275
:103860000F931F93CF93DF93CDB7DEB7A1970FB61A
:10387000F894DEBF0FBECDBF7C01FA01CB0119A2C7
:10388000223008F42AE08E010F5D1F4F422E512C8A
:10389000612C712CBF01A30192010E94912AF901B0
:1038A000CA01015011096A3014F4605D01C0695CFD
:1038B000D8016C93232B242B252B61F7B801C7016A
:1038C0000E94021CA1960FB6F894DEBF0FBECDBFBA
:1038D000DF91CF911F910F91FF90EF907F906F90AC
:1038E0005F904F9008950F931F93CF93DF93EC0158
:1038F000E881F981DB0114964D915C9115976D91EA
:103900007C910280F381E02D09958C016AE571E0DC
:10391000CE010E94021C800F911FDF91CF911F9159
:103920000F910895CF93DF93CDB7DEB767970FB6AA
:10393000F894DEBF0FBECDBF789484B5826084BD9D
:1039400084B5816084BD85B5826085BD85B58160A3
:1039500085BD80916E00816080936E001092810021
:1039600080918100826080938100809181008160DC
:10397000809381008091800081608093800080919D
:10398000B10084608093B1008091B0008160809329
:10399000B00080917A00846080937A0080917A00F0
:1039A000826080937A0080917A00816080937A00AF
:1039B00080917A00806880937A001092C100E09133
:1039C000DD02F091DE0282E08083E091D902F09185
:1039D000DA021082E091DB02F091DC0280E1808368
:1039E0001092E502E091E102F091E20286E080832C
:1039F000E091DF02F091E002808180618083E091BC
:103A0000DF02F091E002808188608083E091DF0234
:103A1000F091E002808180688083E091DF02F09184
:103A2000E00280818F7D808360E08EE00E94D81369
:103A300062E083E00E94D81362E082E00E94D81323
:103A400062E089E00E94D81361E086E00E94D8130A
:103A500080919A0390919B03892B09F03EC020919D
:103A6000820330918303C901079697FD079623E0EF
:103A7000959587952A95E1F72091800330918103F0
:103A8000AC01429FC001439F900D529F900D1124A5
:103A90000E94B92A90939B0380939A03892BE9F49F
:103AA00004EB16E0F8016491611107C06AE571E06A
:103AB0008DEC92E00E94021C0FC0E091CD02F091CB
:103AC000CE020190F081E02D8DEC92E009950F5F20
:103AD0001F4F892B39F7EACFFFCF0E94961A20910A
:103AE000820330918303809180039091810321327E
:103AF0003105A4F0B9016054710977FF02C06F5F0E
:103B00007F4F759567958255910997FD019600E461
:103B100010E022E530E044EF53E013C0B9016052F9
:103B2000710977FF02C06F5F7F4F75956795835767
:103B3000910997FD019600E210E023E730E044E1AF
:103B400052E0959587950E94B61A82E080939D0376
:103B50008091980390919903892B59F18CE380937C
:103B60009C0310922202109221021092CA0210921B
:103B7000C9021092200281E080931F0210921E025F
:103B800061E082E10E94A81361E083E10E94A81332
:103B90008091B9008E7F8093B9008091B9008D7FAC
:103BA0008093B90088E48093B80085E48093BC00DA
:103BB000BEC061E08091A1030E94D81361E08091B2
:103BC000A2030E94D8138091A103082E000C990B28
:103BD000FC01EF5FF34FE491F0E0EE0FFF1FE65FB3
:103BE000FD4F259134913093A9032093A803FC0144
:103BF000EB5EF34FE491E093AE038091A203082EB5
:103C0000000C990BFC01EF5FF34FE491F0E0EE0F35
:103C1000FF1FE65FFD4FA591B491B093AB03A09356
:103C2000AA03FC01EB5EF34FE491E093AF038C91A8
:103C3000E82BEC938091960390919703892B09F4DC
:103C400034C01FB7F89480912702811127C0EBE0A0
:103C5000FCE08491EFE1FCE09491E82FF0E0EE0FBE
:103C6000FF1FEC51FE4FA591B491EC91E92321F493
:103C700061E08AE00E94A81361E08AE00E94D81304
:103C80008CB580618CBD8CB580648CBD61E08DE0AD
:103C90000E94D81361E08BE00E94D8138091270224
:103CA0008F5F809327021FBF42C061E080919F0316
:103CB0000E94D81361E08091A0030E94D8138091E4
:103CC0009F03082E000C990BFC01EF5FF34FE4916A
:103CD000F0E0EE0FFF1FE65FFD4F2591349130932A
:103CE000A5032093A403FC01EB5EF34FE491E09362
:103CF000AC038091A003082E000C990BFC01EF5F30
:103D0000F34FE491F0E0EE0FFF1FE65FFD4FA5914A
:103D1000B491B093A703A093A603FC01EB5EF34F0D
:103D2000E491E093AD038C91E095E823EC938091CE
:103D3000A30387FD1EC061E00E94D81361E080915B
:103D4000A3030E94A81361E070E080E090E00E946D
:103D5000141460E08091A3030E94A8136AE070E04D
:103D600080E090E00E94141461E08091A3030E941F
:103D7000A8138091980390919903892B59F0609131
:103D8000B2037091B3038091B4039091B5030E9484
:103D9000E90A16C08091960390919703892B31F020
:103DA0008091B0039091B1030E94B809E091AA03F9
:103DB000F091AB0390818091AF038095892380833C
:103DC00064E086E092E00E94BA186091820361503C
:103DD0008CE793E00E945A0B64E082E092E00E943C
:103DE000BA1880919D03813011F064E101C060E157
:103DF0008CE793E00E945A0B64E08EEF91E00E9402
:103E0000BA18809180039091810380389105E9F47C
:103E100080918203909183038032910531F464E0B4
:103E20008AEF91E00E94BA1829C08034910531F5DB
:103E300063E087EF91E00E94BA1880919D03813082
:103E400011F06FEC17C06FE915C080369105B1F421
:103E50008091820390918303409781F463E084EF23
:103E600091E00E94BA1880919D03813011F06FEAB1
:103E700001C060E18CE793E00E945A0B69ED8CE78A
:103E800093E00E945A0B80919D03813011F061EF05
:103E900001C062E28CE793E00E945A0B66E08EEE6E
:103EA00091E00E94BA188091980390919903892B10
:103EB00059F06091B6037091B7038091B803909167
:103EC000B9030E94E90A11C0E091AA03F091AB0383
:103ED00090818091AF03892B80838091960390918C
:103EE0009703892B11F00E94B0090E94961A109234
:103EF00089031092880310928B0310928A0381E049
:103F00008093900301E010E010938F0300938E03E1
:103F100010938D0300938C038AE991E00E94171C93
:103F20008AEA91E00E94171C81EB91E00E94171C25
:103F30000E94651960ED77E080E090E00E94141423
:103F40000E94961A109289031092880310928B0394
:103F500010928A0380EC91E00E94171C8EEC91E095
:103F60000E94171C8CED91E00E94171C88EE91E0D6
:103F70000E94171C0E94651960ED77E080E090E0D8
:103F80000E94141464EF71E080E090E00E94141429
:103F90000E94961A10938F0300938E0310938D0343
:103FA00000938C03109289031092880310928B0364
:103FB00010928A0362E080916F030E94D81380E31D
:103FC00098EFAFEFBFEF8093730390937403A093C8
:103FD0007503B093760389E799E09093010180938C
:103FE000000180916900836080936900E89A809164
:103FF0006B00826080936B00D89A8091680081602A
:10400000809368008DE698E090930301809302010D
:1040100080916900837F886080936900E99A80E0DD
:1040200090E00E94D3278093230281E090E00E94D9
:10403000D3278093240280912302909124021B8A2B
:104040001A8A1D8A1C8A1F8A1E8A4AE0BE016F5F77
:104050007F4F0E941F24BE016F5F7F4FCE014296AB
:104060000E94661B66EF71E0CE0101960E94C71B9D
:10407000BE016E5E7F4FCE0101960E94531BBC01B4
:104080008DEC92E00E94731CCE0101960E94921B5F
:10409000CE0142960E94921B0E944E146093BA0376
:1040A0007093BB038093BC039093BD030E944E1496
:1040B0006093BE037093BF038093C0039093C103CA
:1040C000BB24B394CC24C394D12C92E0A92EF0E469
:1040D000F0937C0080917A00806480937A008091D4
:1040E0007A0086FDFCCF609178008091790070E0C5
:1040F000782B072E000C880B990B0E94B62620E027
:1041000030EC4FE754E40E948D2820E030E040EA94
:1041100050E40E9415279B01AC0160E070E080EA4A
:1041200090E40E948D2820E030E040E85FE30E94A8
:1041300020280E9404299B01AC0161E77DE38AE00D
:1041400090E40E94202821E73DE34AE45FE30E94D7
:104150008D289B01AC0160E070E080E291E40E9458
:104160005C296093290270932A0280932B0290931A
:104170002C029091260280912502913019F4882317
:1041800009F468C090912602911136C1811134C1A1
:10419000109289031092880310928B0310928A0365
:1041A000B0929003D0928F03C0928E03D0928D0371
:1041B000C0928C0382E092E00E94171CA0929003B0
:1041C0004091290250912A0260912B0270912C0299
:1041D00020E0CE0101960E94971BBE016F5F7F4FCA
:1041E0008CE793E00E94731CCE0101960E94921B03
:1041F000B092900380912302909124021B8A1A8A24
:104200001D8A1C8A1F8A1E8A4AE0BE016F5F7F4F8B
:104210000E941F24BE016F5F7F4FCE0142960E9415
:10422000661B6DE072E0CE0101960E94C71BBE01C5
:104230006E5E7F4FCE0101960E94531BBC018CE73E
:1042400093E00E94731CCE0101960E94921BCE0146
:10425000429649C10E94C3178823A9F18091700337
:104260008B3039F180F18551823068F560916A03B5
:1042700070E080E090E00E94B42620E030E040E86A
:1042800053E40E9415272B013C0160916B0370E001
:1042900080E090E00E94B6269B01AC01C301B20110
:1042A0000E9421282DEC3CEC4CEC5DE30E9415278C
:1042B00007C060916A0370E080E090E00E94B4263D
:1042C0001B012C0106C0212C312C30EC432E3FE782
:1042D000532E0E94C3178823C9F1809170038B303D
:1042E00029F0A0F18551823048F030C060916C0314
:1042F00070E080E090E00E94B4262CC010916C0326
:10430000612F6F7770E080E090E00E94B62620E099
:1043100030E040E853E40E9415273B014C016091D6
:104320006D0370E080E090E00E94B6269B01AC0136
:10433000C401B3010E9421282DEC3CEC4CEC5DE360
:104340000E94152717FF06C0905804C060E070E077
:1043500080EC9FE7B092900310928903109288033B
:104360002AE030E030938B0320938A03D0928F03AE
:10437000C0928E03D0928D03C0928C0322E0AB01D9
:10438000BC01CE0101960E94971B6DE571E0CE0144
:1043900042960E94C71BBE016F5F7F4FCE014296BF
:1043A0000E94531B6BE671E00E943A1BBC018CE734
:1043B00093E00E94731CCE0142960E94921BCE0194
:1043C00001960E94921B22E0B201A101CE0101964A
:1043D0000E94971B6DE671E0CE0142960E94C71BBA
:1043E000BE016F5F7F4FCE0142960E94531B6BE769
:1043F00071E00E943A1B6CC0882309F476C00E94C9
:104400004E146093BE037093BF038093C0039093D8
:10441000C1030091BA031091BB032091BC033091FA
:10442000BD03DC01CB01801B910BA20BB30B0091F0
:10443000C2031091C30320E030E0081719072A07D0
:104440003B0708F432C1109289031092880310923E
:104450008B0310928A03B0929003D0928F03C09284
:104460008E03D0928D03C0928C038DE791E00E9461
:10447000171CA0929003409123025091240260E007
:1044800070E02AE08CE793E00E942A1C6AE571E064
:104490008CE793E00E94021CB092900340912902A5
:1044A00050912A0260912B0270912C0222E0CE01E1
:1044B00001960E94971B68E871E0CE0142960E9427
:1044C000C71BBE016F5F7F4FCE0142960E94531BF8
:1044D000BC018CE793E00E94731CCE0142960E94BF
:1044E000921BCE0101960E94921B209029023090CF
:1044F0002A0240902B0250902C026091230270916E
:10450000240280E090E00E94B4269B01AC01C2012D
:10451000B1010E94FF2818161CF41092280211C045
:10452000609123027091240280E090E00E94B42602
:104530009B01AC01C201B1010E94AF2687FDB09280
:10454000280250902802652D86E00E94A81331E0D1
:1045500053123AC04BE650E05093890340938803CE
:1045600010928B0310928A03EE24E394F12C08E05E
:1045700010E025E130E040E050E066E670E08CE7D6
:1045800093E00E944B1203E010E021E042E050E093
:1045900062E070E08AE790E00E94391622E042E093
:1045A00050E062E070E086E690E00E94391650929A
:1045B000900310928F0310928E0310928D0310922D
:1045C0008C0363E971E066C0511068C088E690E032
:1045D000909389038093880310928B0310928A032F
:1045E00001E010E025E130E040E050E066E670E0F8
:1045F0008CE793E00E945B1225E130E047E050E059
:1046000066E670E08CE793E00E945B1224E030E005
:1046100042E050E064E670E08CE793E00E946712AD
:1046200024E030E042E050E06CE770E08CE793E09B
:104630000E94671221E042E050E062E070E086E60E
:1046400090E00E94031722E042E050E062E070E058
:104650008AE790E00E94031724E042E050E065E022
:1046600070E08AE790E00E94031728E042E050E003
:1046700065E070E086E690E00E940317B092900338
:10468000D0928F03C0928E03D0928D03C0928C0380
:1046900066E971E08CE793E00E94021C0E946519B4
:1046A0000E94961A0E94220D12CD109225021DCF53
:1046B00082E391E090937D0380937C0380919A0341
:1046C00090919B03009711F00C944E2B0895EDEC04
:1046D000F2E01382128248EE53E060E070E044831F
:1046E0005583668377838EE091E09183808385ECA8
:1046F00090E09587848784EC90E09787868780ECAC
:1047000090E0918B808B81EC90E0938B828B82EC9C
:1047100090E0958B848B86EC90E0978B868B118E46
:10472000128E138E148EA4ECB3E013961C921E927C
:10473000129714964D935D936D937C93179780E237
:1047400091E011969C938E9388EB9BE09093C3032A
:104750008093C203ECE7F3E01382128220E830E09A
:104760003583248380E290E0978386833187208796
:1047700093878287158A158614861786168681E0A8
:10478000848B2FEF3FEF338B228B318B208B868BEB
:10479000178A118E108E82E391E091838083138EAD
:1047A000128EB58FA48F178E168E8FEF83A384A3DE
:1047B00085A386A387A380E584AB15AAAAE6B3E008
:1047C00084E015968C9315978BE016968C9316972C
:1047D000E9E1FCE0E4911796EC931797E5E0FCE043
:1047E000E4911896EC93189740E85EE360E070E07F
:1047F0001D964D935D936D937C9350970895EF9222
:104800000F931F93CF93DF93E80147FD02C034E07D
:1048100001C034E1E42F440FFF0BF7FF03C0F19513
:10482000E195F109E32E022F2E2FAE010E943924CB
:10483000CE01DF91CF911F910F91EF900895BB278B
:10484000FB015527AA27880F991FAA1FA41710F04C
:10485000A41B83955051B9F7A05DAA3308F0A95D58
:10486000A193009779F7B111B1931192CB010C94F8
:104870009F264F925F926F927F929F92AF92BF92CC
:10488000CF92DF92EF92FF920F931F93CF93DF931C
:10489000CDB7DEB729970FB6F894DEBF0FBECDBFF8
:1048A0006A01122FB02E2BE3201720F0FF24F3947F
:1048B000F00E02C0BCE3FB2E0F2D27E0AE014F5FD0
:1048C0005F4F0E94C725AC018981982F9970913064
:1048D00031F0E1FC06C0E0FE06C090E205C09DE2BA
:1048E00003C09BE201C090E0EE2DE07183FF3CC06D
:1048F000911102C083E001C084E0811718F4212FD8
:10490000281B01C020E0E1110BC0F601822F30E22C
:10491000882319F031938150FBCFC20ED11C20E0C7
:10492000992329F0D6019C93F60131966F01C601B7
:104930000396E2FE0AC03EE4D6013C9341E41196A0
:104940004C93119712963C9306C03EE6F6013083D5
:1049500041E641833283FC01322F40E2332309F4E4
:1049600042C041933150FACF82FF44C0911102C03E
:1049700083E001C084E0811718F4212F281B01C0B7
:1049800020E0E1110BC0F601822F30E2882319F0FC
:1049900031938150FBCFC20ED11C20E0992329F026
:1049A000D6019C93F60131966F01C6010396E2FE93
:1049B0000BC039E4D6013C933EE411963C93119729
:1049C00036E412963C9307C039E6F60130833EE6A2
:1049D000318336E63283FC01322F40E2332319F073
:1049E00041933150FBCFFC01E20FF11D10828EEF9D
:1049F0009FEFB7C0F1E0911101C0F0E06F2F70E0C0
:104A00001416150624F49A012F5F3F4F02C021E0CF
:104A100030E0260F371FBB2029F06B2D70E06F5F51
:104A20007F4F02C060E070E0260F371F612F70E0FB
:104A3000261737071CF4121B212F01C020E03E2D42
:104A4000387159F4D601322F60E2332319F06D9397
:104A50003150FBCFC20ED11C20E0FF2331F0D60134
:104A60009C93B6016F5F7F4F6B01E1110BC0F601A4
:104A7000922F30E3992319F031939150FBCFC20E5E
:104A8000D11C20E09F2D940F3A81782F7071A72EB2
:104A900084FF03C0313309F49150191624F499307E
:104AA00018F098E001C091E0E42F852F57FF02C075
:104AB000E0E080E06E2F782FE0E0F0E0AEE29A2EAA
:104AC0003A01691A71082A01461A570A0B2D10E09B
:104AD0001195019511096F3F8FEF780729F4D601E1
:104AE0009C92C60101966C014617570784F0661622
:104AF00077066CF47F01E40CF51CA1E0B0E0AC0F8C
:104B0000BD1FEA0EFB1ED7011196BC9002C090E3B8
:104B1000B92E615071093196C60101967C0160176A
:104B2000710724F0D601BC926C01D5CF64177507CC
:104B300041F4363320F4353321F4A11002C081E36F
:104B4000B82EF601B082F701822F90E2882319F087
:104B500091938150FBCFF701E20FF11D108280E0AD
:104B600090E029960FB6F894DEBF0FBECDBFDF915F
:104B7000CF911F910F91FF90EF90DF90CF90BF905A
:104B8000AF909F907F906F905F904F9008952830E6
:104B900008F027E03327DA01990F311D87FD916076
:104BA00000966105710539F432602E5F3D9330E364
:104BB0002A95E1F708959F3F30F08038710561052F
:104BC00009F03C5F3C5F3D93913008F08068911D97
:104BD000DF93CF931F930F93FF92EF92192F987F3C
:104BE0009695E92F96959695E90FFF27EC5BFE4F7A
:104BF00099273327EE24FF24A701E70105900894A5
:104C0000079428F4360FE71EF81E491F511D660F42
:104C1000771F881F991F0694A1F70590079428F421
:104C2000E70EF81E491F561FC11D770F881F991FD9
:104C3000661F0694A1F70590079428F4F80E491F03
:104C4000561FC71FD11D880F991F661F771F069417
:104C5000A1F70590079420F4490F561FC71FD81FCE
:104C6000990F661F771F881F0694A9F784911095E6
:104C7000177041F0D695C79557954795F794E794E7
:104C80001A95C1F7EAEEF0E0689415901591359108
:104C90006591959105907FE27395E118F10A430BB8
:104CA000560BC90BD009C0F7E10CF11E431F561F6C
:104CB000C91FD01D7EF4703311F48A95E6CFE894B5
:104CC000015030F0080F0AF40027021708F4202FD3
:104CD0002395022F7A3328F079E37D932A95E9F71B
:104CE00010C07D932A9589F6069497956795379518
:104CF00017951794E118F10A430B560BC90BD0090D
:104D000098F023957E9173957A3308F070E37C9345
:104D10002013B8F77E9170617D9330F0839571E335
:104D20007D9370E32A95E1F71124EF90FF900F91A6
:104D30001F91CF91DF91992787FD90950895DC0110
:104D4000FC01672F71917723E1F7329704C07C91C2
:104D50006D9370836291AE17BF07C8F308950E94E8
:104D6000F12608F481E00895E89409C097FB3EF429
:104D700090958095709561957F4F8F4F9F4F9923A8
:104D8000A9F0F92F96E9BB279395F6958795779526
:104D90006795B795F111F8CFFAF4BB0F11F460FFE6
:104DA0001BC06F5F7F4F8F4F9F4F16C0882311F03E
:104DB00096E911C0772321F09EE8872F762F05C052
:104DC000662371F096E8862F70E060E02AF09A95ED
:104DD000660F771F881FDAF7880F9695879597F9E2
:104DE0000895990F0008550FAA0BE0E8FEEF16167C
:104DF0001706E807F907C0F012161306E407F507CF
:104E000098F0621B730B840B950B39F40A2661F042
:104E1000232B242B252B21F408950A2609F4A140E5
:104E2000A6958FEF811D811D08950E9428270C945F
:104E300099270E948B2738F00E94922720F0952313
:104E400011F00C9482270C94882711240C94CD2700
:104E50000E94AA2770F3959FC1F3950F50E0551F4C
:104E6000629FF001729FBB27F00DB11D639FAA27BF
:104E7000F00DB11DAA1F649F6627B00DA11D661F0E
:104E8000829F2227B00DA11D621F739FB00DA11D2F
:104E9000621F839FA00D611D221F749F3327A00DE9
:104EA000611D231F849F600D211D822F762F6A2F85
:104EB00011249F5750409AF0F1F088234AF0EE0FEA
:104EC000FF1FBB1F661F771F881F91505040A9F717
:104ED0009E3F510580F00C9482270C94CD275F3FB4
:104EE000E4F3983ED4F3869577956795B795F79553
:104EF000E7959F5FC1F7FE2B880F911D96958795CB
:104F000097F9089597F99F6780E870E060E0089549
:104F10009FEF80EC089500240A94161617061806D1
:104F20000906089500240A941216130614060506AD
:104F30000895092E0394000C11F4882352F0BB0F3E
:104F400040F4BF2B11F460FF04C06F5F7F4F8F4FA1
:104F50009F4F089557FD9058440F551F59F05F3FDC
:104F600071F04795880F97FB991F61F09F3F79F08B
:104F700087950895121613061406551FF2CF46950D
:104F8000F1DF08C0161617061806991FF1CF86958F
:104F90007105610508940895E894BB276627772773
:104FA000CB0197F90895F999FECF92BD81BDF89A8A
:104FB000992780B50895262FF999FECF1FBA92BD83
:104FC00081BD20BD0FB6F894FA9AF99A0FBE0196EA
:104FD00008952F923F924F925F926F927F928F929D
:104FE0009F92AF92BF92CF92DF92EF92FF920F9378
:104FF0001F93CF93DF93CDB7DEB7CA1BDB0B0FB682
:10500000F894DEBF0FBECDBF09942A88398848883E
:105010005F846E847D848C849B84AA84B984C884D4
:10502000DF80EE80FD800C811B81AA81B981CE0FCB
:10503000D11D0FB6F894DEBF0FBECDBFED010895B0
:105040005058BB27AA270E9438280C9499270E9401
:105050008B2738F00E94922720F039F49F3F19F4F3
:1050600026F40C9488270EF4E095E7FB0C94822735
:10507000E92F0E94AA2758F3BA176207730784071B
:10508000950720F079F4A6F50C94CC270EF4E09562
:105090000B2EBA2FA02D0B01B90190010C01CA01F2
:1050A000A0011124FF27591B99F0593F50F4503E9D
:1050B00068F11A16F040A22F232F342F4427585F8F
:1050C000F3CF469537952795A795F0405395C9F7A7
:1050D0007EF41F16BA0B620B730B840BBAF091505F
:1050E000A1F0FF0FBB1F661F771F881FC2F70EC0FE
:1050F000BA0F621F731F841F48F4879577956795D1
:10510000B795F7959E3F08F0B0CF9395880F08F0BC
:105110009927EE0F9795879508950E94A1280C94E2
:1051200099270E94922758F00E948B2740F029F47B
:105130005F3F29F00C94822751110C94CD270C94D9
:1051400088270E94AA2768F39923B1F3552391F386
:10515000951B550BBB27AA2762177307840738F0E6
:105160009F5F5F4F220F331F441FAA1FA9F335D043
:105170000E2E3AF0E0E832D091505040E695001CF7
:10518000CAF72BD0FE2F29D0660F771F881FBB1FB1
:10519000261737074807AB07B0E809F0BB0B802D8F
:1051A000BF01FF2793585F4F3AF09E3F510578F0BB
:1051B0000C9482270C94CD275F3FE4F3983ED4F300
:1051C000869577956795B795F7959F5FC9F7880F8F
:1051D000911D9695879597F90895E1E0660F771FE1
:1051E000881FBB1F621773078407BA0720F0621B72
:1051F000730B840BBA0BEE1F88F7E09508950E949D
:10520000F12608F48FEF08950E94142929ED3BE55B
:105210004EED5EE30C94152716F00C94E6290C94E1
:10522000882768940C9482270E94B227A8F39923B8
:10523000C1F3AEF3DF93CF931F930F93FF92C92F68
:10524000DD2788232AF02197660F771F881FDAF75A
:1052500020E030E040E85FEB9FE3883920F0803EBB
:1052600038F021968F770E942128E8E6F0E004C00C
:105270000E942128E5E9F0E00E94F4298B01BE019B
:10528000EC01FB2E6F5771097595771F880B990BF1
:105290000E94B62628E132E741E35FE30E94282717
:1052A000AF2D9801AE01FF900F911F91CF91DF912B
:1052B0000E9438280C949927FA01EE0FFF1F3096B0
:1052C00021053105A1F16115710561F48038BFE355
:1052D0009B0749F168949038810561F08038BFEFF1
:1052E0009B0741F099234AF5FF3FE1053105210570
:1052F00019F1E8940894E795D901AA2329F4AB2F72
:10530000BE2FF85FD0F310C0FF5F70F4A695E0F7F2
:10531000F73950F019F0FF3A38F49F779F930DD08A
:105320000F9007FC9058089546F00C94882760E091
:1053300070E080E89FE308954FE79F775F934F9376
:105340003F932F930E9414292F913F914F915F918A
:105350000E9415270C94B42929F416F00C94822786
:105360000C94CC270C9488270E94B227A8F3963877
:10537000A0F707F80F92E8942BE33AEA48EB5FE7CF
:105380000E942B270F920F920F924DB75EB70F928C
:105390000E945D2AE2ECF0E00E94F4294F915F91B7
:1053A000EF91FF91E595EE1FFF1F49F0FE57E06872
:1053B0004427EE0F441FFA95E1F74195550B0E94E3
:1053C000272A0F9007FE0C941B2A08959F3F31F067
:1053D000915020F4879577956795B795880F911D23
:1053E0009695879597F90895DF93CF931F930F9321
:1053F000FF92EF92DF927B018C01689406C0DA2E57
:10540000EF010E942827FE01E894A591259135918E
:1054100045915591A6F3EF010E943828FE019701AE
:10542000A801DA9469F7DF90EF90FF900F911F9138
:10543000CF91DF9108959B01AC0160E070E080E8BE
:105440009FE30C948D280C9482270C94E6290E94EB
:10545000B227D8F39923C9F3940F511DA3F39150A8
:10546000504094F059F0882332F0660F771F881F60
:1054700091505040C1F79E3F51052CF7880F911D68
:105480009695879597F908955F3FACF0983E9CF00C
:10549000BB27869577956795B79508F4B160939586
:1054A000C1F7BB0F58F711F460FFE8CF6F5F7F4F74
:1054B0008F4F9F4FE3CF0C94CD27FA01DC01AA0F49
:1054C000BB1F9B01AC01BF5728F422273327442779
:1054D000507820C0B75190F4AB2F002446953795F3
:1054E0002795011CA395D2F3002071F0220F331FE2
:1054F000441FB395DAF30ED00C9420286130710567
:10550000A0E88A07B94630F49B01AC0166277727EB
:1055100088279078309621F020833183428353830B
:105520000895A1E21A2EAA1BBB1BFD010DC0AA1FE4
:10553000BB1FEE1FFF1FA217B307E407F50720F0FC
:10554000A21BB30BE40BF50B661F771F881F991F77
:105550001A9469F760957095809590959B01AC01C0
:10556000BD01CF010895EE0FFF1F0590F491E02DCE
:105570000994CF93DF938230910510F482E090E09C
:10558000E091D203F091D30320E030E0C0E0D0E01E
:10559000309711F14081518148175907C0F04817E1
:1055A000590761F482819381209719F09B838A8344
:1055B0002BC09093D3038093D20326C021153105CD
:1055C00019F04217530718F49A01BE01DF01EF01E9
:1055D0000280F381E02DDCCF2115310509F1281B74
:1055E000390B2430310590F412968D919C911397CC
:1055F0006115710521F0FB019383828304C09093B0
:10560000D3038093D203FD01329644C0FD01E20F23
:10561000F31F81939193225031092D933C933AC00B
:105620002091D0033091D103232B41F42091060126
:10563000309107013093D1032093D00320910401CE
:10564000309105012115310541F42DB73EB7409148
:10565000080150910901241B350BE091D003F09112
:10566000D103E217F307A0F42E1B3F0B28173907CD
:1056700078F0AC014E5F5F4F2417350748F04E0FAE
:105680005F1F5093D1034093D0038193919302C045
:10569000E0E0F0E0CF01DF91CF9108950F931F93E9
:1056A000CF93DF93009709F48CC0FC0132971382EB
:1056B00012820091D2031091D3030115110581F4D8
:1056C00020813181820F931F2091D0033091D1032B
:1056D0002817390779F5F093D103E093D00371C00F
:1056E000D80140E050E0AE17BF0750F412962D915C
:1056F0003C911397AD012115310509F1D901F3CF83
:105700009D01DA013383228360817181860F971FA7
:105710008217930769F4EC0128813981260F371F1E
:105720002E5F3F4F318320838A819B8193838283C5
:10573000452B29F4F093D303E093D20342C0139690
:10574000FC93EE931297ED01499159919E01240F1C
:10575000351FE217F30771F480819181840F951F43
:10576000029611969C938E938281938113969C93BB
:105770008E931297E0E0F0E0D80112968D919C9103
:105780001397009719F0F8018C01F6CF8D919C9139
:1057900098012E5F3F4F820F931F2091D0033091CD
:1057A000D1032817390769F4309729F41092D303ED
:1057B0001092D20302C0138212821093D10300937D
:1057C000D003DF91CF911F910F910895A0E0B0E039
:1057D000ECEEFBE20C94ED27EC01009721F4CB01F9
:1057E0000E94B92AB8C0FC01E60FF71F9C012250A5
:1057F0003109E217F30708F4ACC0D9010D911C91EF
:10580000119706171707B0F00530110508F49FC06F
:10581000C80104978617970708F499C00250110928
:10582000061B170B019311936D937C93CF010E947C
:105830004E2B8DC05B01A01AB10A4C01800E911E47
:10584000A091D203B091D30340E050E0E12CF12CC1
:10585000109709F44AC0A815B905D1F56D907C9050
:105860001197630182E0C80ED11CCA14DB0480F1D9
:10587000A3014A195B096A0182E0C80ED11C129685
:10588000BC9012971396AC91B5E0CB16D10440F0C2
:10589000B282A38351834083D9016D937C930AC064
:1058A0000E5F1F4FC301800F911FF9019183808309
:1058B000EB2DFA2FE114F10431F0D7011396FC938C
:1058C000EE93129744C0F093D303E093D2033FC00A
:1058D0008D919C9111974817590708F4AC017D01EF
:1058E00012960D90BC91A02DB3CF8091D0039091D2
:1058F000D10388159905E1F446175707C8F480913C
:10590000040190910501009741F48DB79EB7409135
:10591000080150910901841B950BE817F907C8F499
:10592000F093D103E093D003F901718360830FC03A
:10593000CB010E94B92A7C01009759F0A801BE0151
:105940000E94B52CCE010E944E2BC70104C0CE018F
:1059500002C080E090E0CDB7DEB7EEE00C940928FD
:1059600081E090E0F8940C94CC2CFB01DC0102C0A7
:1059700001900D9241505040D8F70895DC0101C0CC
:105980006D9341505040E0F70895FB01DC01019018
:105990000D920020E1F7089516E0C6E1D6E004C0BC
:1059A000FE010E94B32A2196C731D107C9F7F894A6
:0259B000FFCF27
:1059B2007A0D7A0D0000D403800000000000B90CBB
:1059C200A715510C000D820C600C740C0000000035
:1059D2003A080A086A08E4070208F307E507000024
:1059E2000000A70FA7156A086908F5067A12731254
:1059F2004B1267125B127B124A127C0DBD0B7508AB
:105A0200B90871115311DC107D100D0A0054656D37
:105A120070657261747572653A2000430048756D55
:105A220069646974793A2020202000250054687244
:105A32006573686F6C643A0043757272656E743A8E
:105A42002020006F6E006F6666004C6967687420E4
:105A5200496E74656E73697479004D6F64756C6517
:105A6200005375626D697373696F6E2042793A00F3
:105A720044616E6973682053616A6A6164004172AD
:105A82006166617420496472656573004172686180
:105A92006D20526168696D0044616E6973682048C7
:105AA200617373616E005468726573686F6C643AF7
:105AB2002000496E74656E736974793A004C5558CA
:0E5AC200202020202020202054483A200000E0
:00000001FF
